:020000040800F2
:10000000601B0020E9020008331E0008B91C00082C
:10001000311E00081F0600084525000800000000EA
:10002000000000000000000000000000290200089D
:10003000C10600080000000085020008351E000807
:100040000303000803030008030300080303000878
:100050000303000803030008030300080303000868
:100060000303000803030008030300080303000858
:1000700003030008210600082D06000839060008C1
:100080000303000803030008030300080303000838
:100090000303000803030008030300080303000828
:1000A00003030008F91E0008030300080303000807
:1000B0000303000803030008030300080303000808
:1000C00003030008030300080303000803030008F8
:1000D00003030008030300080303000811220008BB
:1000E00003030008030300080303000803030008D8
:1000F00003030008030300080303000803030008C8
:1001000003030008030300080303000803030008B7
:10011000CD1F0008D91F00080303000803030008CF
:100120000303000803030008030300080303000897
:1001300003030008000000000000000003030008A3
:100140000303000803030008030300080303000877
:100150000303000803030008030300080303000867
:100160000303000803030008030300080303000857
:100170000303000803030008000000000000000063
:10018000030300080303000800F002F800F03CF845
:100190000AA090E8000C82448344AAF10107DA45E2
:1001A00001D100F031F8AFF2090EBAE80F0013F0F8
:1001B000010F18BFFB1A43F001031847103A000063
:1001C000303A0000103A24BF78C878C1FAD85207F4
:1001D00024BF30C830C144BF04680C6070470000C1
:1001E0000023002400250026103A28BF78C1FBD840
:1001F000520728BF30C148BF0B6070471FB503F0DE
:10020000CFFC1FBD10B510BD00F0D0F91146FFF7AF
:10021000F5FF02F0A9F900F0EEF903B4FFF7F2FFE1
:1002200003BC00F0F5F900002C4B19680868B0E831
:10023000F04F80F30988BFF36F8F4FF0000080F319
:10024000118870470000000008480068006880F3CB
:1002500008884FF0000080F3148862B661B6BFF3DF
:100260004F8FBFF36F8F00DF00BF00BF08ED00E0CE
:10027000DFF80C00016841F470010160704700BFB5
:1002800088ED00E0EFF30980BFF36F8F134B1A681E
:100290001EF0100F08BF20ED108A20E9F04F10600B
:1002A00009B44FF0500080F31188BFF34F8FBFF3B4
:1002B0006F8F02F073FF4FF0000080F3118809BCCC
:1002C00019680868B0E8F04F1EF0100F08BFB0ECD6
:1002D000108A80F30988BFF36F8F704710000020E9
:1002E000EFF3058070470000094880470948004740
:1002F000FEE7FEE7FEE7FEE7FEE7FEE7FEE7FEE7D6
:10030000FEE7FEE704480549054A064B7047000032
:10031000E91E00088901000860150020601B00200C
:10032000601700206017002053EA020C00F069807B
:100330002DE9F04B4FF00006002B1FBFB3FA83F5F9
:1003400003FA05F424FA05F65E4012BF1643B2FA2A
:1003500082F502FA05F4C5F120051EBF22FA05FC5C
:1003600044EA0C04203556EA044C4FEA144418BF02
:10037000641C4FF000084FF00009904271EB030C31
:1003800039D3002919BFB1FA81F701FA07F6B0FA9B
:1003900080F700FA07F6C7F120071EBF20FA07FC16
:1003A00046EA0C062037B6FBF4FCA7EB0507103F26
:1003B00007F01F0BCBF120060CFA0BFB2CFA06F60C
:1003C00044BFB3460026202FA4BF5E464FF0000B6B
:1003D0005BEA060C08BF4FF0010B19EB0B09ABFBF6
:1003E000027C48EB0608C01B06FB02CC0BFB03CCCF
:1003F00071EB0C01C1E70B46024641464846BDE899
:10040000F08B13B54FF000004FF00001AFF3008008
:10041000BDE81C407047032A40F2308010F0030C06
:1004200000F0158011F8013BBCF1020F624498BF47
:1004300011F801CB00F8013B38BF11F8013BA2F1E4
:10044000040298BF00F801CB38BF00F8013B11F05F
:10045000030300F02580083AC0F0088051F8043BFF
:10046000083A51F804CBA0E80810F5E7121D5CBF6C
:1004700051F8043B40F8043BAFF30080D20724BF9F
:1004800011F8013B11F801CB48BF11F8012B24BF33
:1004900000F8013B00F801CB48BF00F8012B704782
:1004A00010B5203AC0F00B80B1E81850203AA0E80F
:1004B0001850B1E81850A0E81850BFF4F5AF5FEA43
:1004C000027C24BFB1E81850A0E8185044BF18C9F6
:1004D00018C0BDE810405FEA827C24BF51F8043B9D
:1004E00040F8043B08BF7047D20728BF31F8023BF1
:1004F00048BF11F8012B28BF20F8023B48BF00F885
:10050000012B704702F0FF0343EA032242EA024252
:1005100000F02CB84FF0000200B513469446964602
:10052000203922BFA0E80C50A0E80C50B1F1200106
:10053000BFF4F7AF090728BFA0E80C5048BF0CC0B4
:100540005DF804EB890028BF40F8042B08BF704712
:1005500048BF20F8022B11F0804F18BF00F8012B84
:1005600070477047704770474FF000020429C0F091
:10057000128010F0030C3FF4CFAFCCF1040CBCF1AF
:10058000020F18BF00F8012BA8BF20F8022BA1EB27
:100590000C01FFF7C1BF5FEAC17C24BF00F8012B4B
:1005A00000F8012B48BF00F8012B7047754600F09A
:1005B0002BF8AE4605006946534620F007008546F5
:1005C00018B020B5FFF79EFEBDE820404FF00006B2
:1005D0004FF000074FF000084FF0000B21F007012B
:1005E000AC46ACE8C009ACE8C009ACE8C009ACE86E
:1005F000C0098D46704710B50446AFF30080204611
:10060000BDE81040FFF709BE00487047FC14002009
:1006100001491820ABBEFEE7260002007047FEE746
:10062000014800F0ABB8000020070020014800F0AE
:10063000A5B80000C0060020014800F09FB80000E7
:100640008007002001681823CAB2103AB2FBF3F207
:10065000054B6FF30901032A9B5CC36500D9091D93
:100660008165084670470000AA3B000810B50146A6
:1006700000208B698A6A4FF0C07453B1B3F5005FF4
:1006800015D072B1012A0CD0022A0AD0032A09D14E
:1006900004E01AB1012A06D0022A03D1C96AC901AD
:1006A00000D5012010BDC96AA142FAD010BD002AB0
:1006B000F7D0012AF2D0022AF3D0032AF3D010BDDA
:1006C000704772B6FEE72DE9F0410446876D00F0F1
:1006D0009FFA064694F835000025022806D08020AF
:1006E000606584F834500120BDE8F081206801681D
:1006F00021F0160101602068416921F0800141610B
:10070000206C08B9A06C20B12068016821F00801B4
:1007100001602068016821F0010101600CE000F037
:1007200077FA801B052807D920206065032084F80C
:10073000350084F83450D7E720680068C007EED150
:1007400094F85C103F208840B860012084F83500A0
:1007500084F834500020C7E790F83510022903D000
:100760008021416501207047052180F8351000681F
:10077000016821F001010160002070472DE9F84374
:1007800004464FF00009CDF8009063484FF416512D
:10079000A56D0068B0FBF1F72E6894F85C10082096
:1007A00000FA01F131420FD021680A6852070BD5D7
:1007B0000A6822F004020A6094F85C108840A8607D
:1007C000606D40F00100606594F85C104FF0010826
:1007D00008FA01F0304208D021684969090604D5B9
:1007E000A860606D40F00200606594F85C10042021
:1007F0008840304208D021680968890704D5A8607C
:10080000606D40F00400606594F85C101020884032
:10081000304218D021680968090714D5A8602068FB
:100820000168490304D50068000308D5A16C07E0FE
:100830000168C90503D4016821F008010160216C39
:1008400009B12046884794F85C1020208840304247
:1008500031D021680968C9062DD5A86094F8350003
:1008600005282068016806D0490347D500680003C1
:100870001DD4616C1CE021F0160101602068416903
:1008800021F080014161206C08B9A06C20B1206882
:10089000016821F00801016094F85C103F20884055
:1008A000A86084F8358084F83490216D1FE0E16BF6
:1008B00009B120468847606D00282BD0606DC007C5
:1008C00014D0052084F835002068016821F001016A
:1008D00001600098401C0090B84203D8206800686E
:1008E000C007F6D184F8358084F83490E16C002993
:1008F00010D001B02046BDE8F04308470168C905A3
:10090000D5D4016821F01001016084F8358084F8A5
:100910003490CCE7BDE8F8830C0000202DE9F041CD
:10092000044600F075F906465CB1022084F83500F3
:10093000002584F834502068016821F0010101602D
:100940000DE00120BDE8F08100F062F9801B052870
:1009500005D920206065032084F83500F2E720687F
:100960000068C007F0D12268116820480140D4E92E
:1009700001031843D4E9033633431843636918432A
:10098000A3691843E3691843236A18430843616A5B
:10099000042903D1D4E90B131943084310602068DC
:1009A0004069666A20F0070130460E43012704289B
:1009B0000CD1A06A0643E06A40B12046FFF756FE1C
:1009C00020B14020606584F83570BAE72068466140
:1009D0002046FFF737FE94F85C203F21914081606C
:1009E000656584F835700020ACE700003F8010F0AA
:1009F00070B5044600F00CF90546601C02D00448AE
:100A00000078044400F004F9401BA042FAD370BD02
:100A1000000000202DE9F84FDFF8BCA100220125DD
:100A200003264FF00F090AF1040BAAF1040E00BFD0
:100A30000B6805FA02F42340A34270D10F7907F046
:100A40000307012F01D0022F16D187684FEA420811
:100A500006FA08FC27EA0C07D1F80CC00CFA08FCCF
:100A60004CEA070CC0F808C04768A7430C79C4F3E8
:100A7000001494403C4344600C79E443A4070AD03A
:100A8000C4684FEA420C06FA0CF7BC438F6807FAB9
:100A90000CF72743C7600C7904F00304022C12D131
:100AA000D40800EB840CDCF820405707FF0E09FA4D
:100AB00007F824EA0804D1F8108008FA07F848EA91
:100AC0000408CCF8208004684FEA420C06FA0CF7C0
:100AD000BC430F7907F0030707FA0CF727430760B9
:100AE0004C6814F4403F70D03C4C276847F4804772
:100AF0002760246822F0030704F480440094384CF3
:100B000007EB040CDCF8084897074FEA177809FA56
:100B100008F7BC43334FB84202D1002724E054E029
:100B2000314FB84201D101271EE0304FB84201D108
:100B3000022719E02E4FB84201D1032714E02D4FB0
:100B4000B84201D104270FE02B4FB84201D105274D
:100B50000AE02A4FB84201D1062705E0284FB842E3
:100B600001D1072700E0082707FA08F72743CCF848
:100B70000878DAF800405746D1F804C09C435FEA91
:100B8000CC2C00D51C433C60DBF800405F46D1F81C
:100B900004C09C435FEA8C2C00D51C433C60DEF80B
:100BA00000407746D1F804C09C435FEA8C3C00D5F6
:100BB0001C433C60084F083F3C68D1F804C09C438C
:100BC0005FEACC3C00D51C433C60521C102AFFF469
:100BD0002FAFBDE8F88F0000083C014044380240C8
:100BE00000300140000002400004024000080240C2
:100BF000000C0240001002400014024000180240A5
:100C0000001C02400AB1816170470904FBE7000043
:100C10000148806870470000000000200248816899
:100C20000278114481607047000000200B4810B525
:100C3000016841F400710160016841F48061016064
:100C4000016841F480710160032000F099F80F20E1
:100C500000F006F800F04AF8002010BD003C024009
:100C600030B505461C4887B00024016841F00101F9
:100C70000160006806A900F00100009001A800F0E2
:100C8000D7F900F005FA15494000B0FBF1F115481D
:100C9000134A491E026040F2E732C0E90324C0E96A
:100CA0000114846100F09AFC040012D10D4800F098
:100CB000C3FC04000DD1192000F034F8102D07D228
:100CC00000222946192000F03BF80748056000E0A3
:100CD000012407B0204630BD4438024040420F0096
:100CE00000000140E0070020040000200C4882B012
:100CF000016841F480410160006800F48040009088
:100D00000748001F016841F080510160006800221F
:100D100000F0805000900F21901E02B000F010B83B
:100D200044380240002809DB00F01F0201219140F5
:100D30004009800000F1E020C0F800117047000079
:100D4000F0B40E4B1B680C46C3F30223C3F1070536
:100D5000042D00D90425191D072901D2002300E024
:100D6000DB1E012606FA05F1491E214099409E40EE
:100D7000761E16403143F0BC01F0E5BB0CED00E0FF
:100D8000064900F0070208684FF6FF03184040EAE2
:100D90000220034A10430860704700000CED00E099
:100DA0000000FA052DE9F0418AB0040005D094F85E
:100DB000BD042668002520B108E001200AB0BDE886
:100DC000F08184F8BC54204600F05EF8032084F8DB
:100DD000BD04F06BC00500D42561206801F040FB24
:100DE00004F11001282288466846FFF759FB94E871
:100DF0000F0001F013FA0226C8BB0021206801F0A1
:100E000073FB002001270EE000EBC00104EB810121
:100E100081F83D7001F83C0F08810D71CD600D61C6
:100E2000401CC0B28D6161688142EDD8002011E0A4
:100E300000EBC00104EB810181F87D5281F87C0256
:100E400081F88052C1F88852C1F88C52401CC0B25F
:100E5000C1F8945261688142EAD828224146684626
:100E6000FFF71EFB94E80F0001F040FA10B184F880
:100E7000BD64A2E784F8385084F8BD74206801F09E
:100E800027FA00209AE7000010B586B00446142126
:100E90006846FFF73FFB2068B0F1A04F27D1154807
:100EA0000021026842F001020260006800F00100C7
:100EB00005904FF4C05000900220CDE901010320BD
:100EC00003900A20049069460B48FFF7A3FD0948E8
:100ED000001D016841F0800101600648143001687E
:100EE00041F480410160006800F48040059006B044
:100EF00010BD000030380240000002402DE9F047EC
:100F00000E46050065D0DFF81481D8F80000F7B26E
:100F100000F00700B04207D288F80070D8F800004F
:100F200000F00700B04254D128683D4C810712D52B
:100F3000400703D5206840F4E0502060287800077F
:100F400003D5206840F4604020602068A96820F044
:100F5000F000084320602878C0072DD03049686829
:100F60000839012812D0022813D0032811D00968AB
:100F7000890700292DDA216821F00301014321604E
:100F8000FFF746FE814641F2883A0EE00968890380
:100F9000EFE709688901ECE7FFF73AFEA0EB0901EA
:100FA000514502D90320BDE8F0872068696800F048
:100FB0000C00B0EB810FEFD1D8F80010404601F0E3
:100FC0000701B14207D90770006800F00700B0427E
:100FD00001D00120E7E72878400705D52068E968B7
:100FE00020F4E050084320602878000706D52068E8
:100FF000296920F4604040EAC100206000F058F800
:101000002168084AC1F30311515CC84006490860D1
:1010100006480068FFF724FE0020C4E7003C0240B9
:1010200008380240B23B00080C00002004000020F9
:101030000F2202600C4A136803F003034360136835
:1010400003F0F0038360136803F4E053C360126895
:101050004FF4E05303EAD20202610448006800F052
:10106000070008607047000008380240003C02405A
:101070000448054900680968044AC1F38221515CAB
:10108000C84070470C00002008380240C23B0008EE
:101090000448054900680968044AC1F34231515CBB
:1010A000C84070470C00002008380240C23B0008CE
:1010B000154810B5006810F00C02144813D01449FC
:1010C000042A0FD0082A0ED10F4C241F226823684F
:1010D00002F03F025B0207D52068C0F38810A0FB36
:1010E000010106E0084610BD2168C1F38811A1FB8B
:1010F00000010023FFF718F92168C1F30141491CE1
:101100004900B0FBF1F010BD083802400024F400A3
:1011100000366E012DE9F84F04006ED02078DFF81C
:101120004C93C007A9F104054AD009F104000168F5
:10113000C1F38101012908D00068C0F381000228B1
:101140000AD1D9F80000400206D52868800337D5B7
:1011500060680028E1D033E06068B0F5803F10D0CF
:10116000B0F5A02F286810D020F4803028602868BF
:1011700020F4802028606068A8B1FFF749FD06468A
:101180000DE0286840F48030F4E740F480202860C7
:10119000F7E700BFFFF73CFD801B642873D8286881
:1011A0008003F7D50CE0FFF733FD064605E000BFEE
:1011B000FFF72EFD801B6428F0D828688003F7D441
:1011C0002078DFF8AC8280074FF0000A3ED5A748B0
:1011D000001D016811F00C0F08D00068C0F38100F9
:1011E00002280BD1D9F80000400207D428688007F4
:1011F00016D5E068012800D112E033E1E068B8B10B
:101200000120C8F80000FFF703FD064605E000BF17
:10121000FFF7FEFC801B0228C0D828688007F7D59E
:101220002868216920F0F80040EAC10028600DE03C
:10123000C8F800A0FFF7ECFC064604E0FFF7E8FC66
:10124000801B02281FD828688007F7D42078000761
:1012500022D5864F87486169703771B101210160DD
:10126000FFF7D6FC064604E0FFF7D2FC801B0228FD
:1012700009D838688007F7D50EE0C0F800A0FFF75E
:10128000C7FC064605E082E0FFF7C2FC801B02288F
:101290007DD838688007F7D42078400768D5DFF814
:1012A000CCB100270BF13C0BDBF80000C0000BD4E5
:1012B000DBF8001041F08051CBF80010DBF80000A3
:1012C000012700F0805000906B4E3068C00510D4AC
:1012D000306840F480703060FFF79AFC009005E0C1
:1012E000FFF796FC0099401A022850D83068C005D4
:1012F000F6D55E4EA0686C3601280FD00528306800
:1013000010D020F001003060306820F00400306020
:10131000A068B8B1FFF77CFC00900FE0306840F0A7
:101320000100F4E740F004003060F7E7FFF770FCDD
:101330000099411A41F28830814266D830688007AE
:10134000F4D50EE0FFF764FC009007E0FFF760FCC7
:101350000099411A41F28830814256D8306880079E
:10136000F4D42FB1DBF8001021F08051CBF800103D
:10137000A069C8B33D49091D0968C1F3810102296B
:101380004AD00228504607D0C8F8600000E03CE090
:10139000FFF73EFC04463BE04746C8F86000FFF715
:1013A00037FC064605E000BFFFF732FC801B022831
:1013B0002BD828688001F7D4D4E907010843A16A33
:1013C0002E4A490802EB0141626A41EA8211084350
:1013D00094F82C1040EA0161C9F800100120386629
:1013E000FFF716FC044606E03EE000BFFFF710FCE6
:1013F000001B022809D828688001F7D534E000BF17
:10140000FFF706FC001B022802D90320BDE8F88F75
:1014100028688001F4D427E00128F7D0D9F800002B
:10142000E26900F4800191421CD1226A00F03F0180
:10143000914217D147F6C071626A0140B1EB821F39
:1014400010D1A26A4FF0FF3300F4403103EB520297
:10145000B1EB024F06D194F82C1000F07060B0EBA5
:10146000016F01D00120D1E70020CFE7043802400E
:1014700000004742800E4742007000400000FFFF1E
:1014800070B5040009D0606A002540B1256165612E
:10149000A56294F8510040B10CE0012070BD606875
:1014A000B0F5827FF4D0E561F2E784F85050204631
:1014B00000F044F8022084F851002068016821F00F
:1014C00040010160A088218900F4827001F4044188
:1014D0000843A18901F400610843217C01F0020165
:1014E0000843217D01F001010843218B01F40071C3
:1014F0000843217F01F03801084394F8201001F0DF
:1015000080010843218D01F40051084321680860DF
:10151000A069042101EA104094F8241001F01001A0
:101520000843216848602068C16921F40061C161F5
:101530006565012084F85100002070BD70B586B04B
:10154000064614216846FEF7E5FF1E4930688842CA
:1015500036D11D480025016841F4804101600068D2
:1015600000F48040059018481038016841F00201ED
:1015700001600068694600F0020005904FF4C04029
:1015800000900220CDE9010503200390052004907E
:101590000E48FFF73FFA0F4C0D48C4E9000500154F
:1015A000A560C4E903506561A561E5612562204637
:1015B0006562FFF7B3F908B1FFF783F8F464A66337
:1015C00006B070BD003800404038024000040240C0
:1015D00058600240C00600207047704710B50400F4
:1015E00003D094F83D0010B107E0012010BD0020A9
:1015F00084F83C00204600F01EF8022084F83D00EC
:10160000211D206800F07EFC012084F8460084F84B
:101610003E0084F83F0084F8400084F8410084F8DC
:10162000420084F8430084F8440084F8450084F8BC
:101630003D00002010BD704790F83D10012901D0F9
:1016400001207047022180F83D100168CA6842F00D
:101650000102CA6000681149884214D0B0F1804F7D
:1016600011D00F4988420ED00E4988420BD00E4946
:10167000884208D00D49884205D00D49884202D0E1
:101680000C49884204D1816801F00701062903D082
:10169000016841F001010160002070470000014035
:1016A0000004004000080040000C0040000401401D
:1016B0000040014000180040704770B504460068C3
:1016C00001694FF00005C943890715D4C168C943B2
:1016D000890711D4E91E0161012020772068806903
:1016E0008007204602D0FFF7E7FF04E000F098F8FB
:1016F000204600F096F8257720680169C94349071C
:1017000017D4C168C943490713D46FF004010161BC
:10171000022020772068806910F4407F204602D0A4
:10172000FFF7CAFF04E000F07BF8204600F079F8EC
:10173000257720680169C943090716D4C168C943E0
:10174000090712D46FF00801016104202077206896
:10175000C0698007204602D0FFF7AEFF04E000F02A
:101760005FF8204600F05DF8257720680169C943DD
:10177000C90617D4C168C943C90613D46FF0100154
:101780000161082020772068C06910F4407F20465E
:1017900002D0FFF791FF04E000F042F8204600F08D
:1017A00040F8257720680169C943C90708D1C16895
:1017B000C943C90704D1891E0161204600F032F8EF
:1017C00020680169C943090609D4C168C9430906EB
:1017D00005D46FF0800101612046FFF7FDFE20680F
:1017E0000169C943490609D4C168C943490605D4FA
:1017F0006FF040010161204600F01EF82068016989
:10180000C94389060BD4C168C943890607D46FF060
:10181000200101612046BDE87040FFF7DEBE70BDCB
:101820007047704700680349884201D1FFF7F6B955
:10183000704700000000014070477047704700008B
:10184000F8B5016804460868CA684B6910F00F0FC4
:101850004FF0000559D003F0010602F490773743AA
:1018600065D0C10705D0D10503D5216C41F0010138
:101870002164410705D5D90703D0216C41F002014D
:101880002164810705D5D90703D0216C41F00401FB
:101890002164010707D502F02001314303D0216CF8
:1018A00041F008012164216C00293AD0800604D55A
:1018B000900602D5204600F0C4FB20684069216CE8
:1018C000C0F38010090700D460B3204600F092FBFB
:1018D00020684069400621D52068143050E8001F78
:1018E00021F0400140E80012002AF5D1A06BA8B118
:1018F0006C490165A06BFEF72FFF002811D0A06B8B
:10190000016D01B0BDE8F040084783060FD593068E
:101910000DD52046BDE8F84000F093BB2046FFF708
:101920008DFFF8BD2046FFF789FF2564F8BD266BC3
:101930002023012E79D1C60677D5D60675D508683D
:10194000486800904869400640D5A16B0868406827
:101950000004000CEAD0A28D8242E7D9E085C86974
:10196000B0F5807F2DD020680C3050E8001F21F4A6
:10197000807140E80012002AF5D12068143050E848
:10198000001F21F0010140E80012002AF5D1206873
:10199000143050E8001F21F0400140E80012002AF6
:1019A000F5D184F83E30256320680C3050E8001FE4
:1019B00021F0100140E80012002AF5D1A06BFEF7DB
:1019C00082FEA08DE18D401A81B229E0A08DE18DCB
:1019D000401A81B2E08D0028A8D00029A6D0206846
:1019E0000C3050E8002F22F4907240E80026002EC0
:1019F000F5D12068143050E8002F22F0010240E8B1
:101A00000026002EF5D184F83E30256320680C3086
:101A100050E8002F22F0100240E80023002BF5D1FF
:101A20002046FFF70AFFF8BDFFE705062BD5150690
:101A300029D594F83D002128F5D1A068B0F5805F44
:101A400001D12069B0B1206A411C2162216800786F
:101A50004860E08C401E0004000CE084E3D1206864
:101A6000C16821F08001C1602068C16841F0400177
:101A7000C160D8E7206A0088C0F308004860206A87
:101A8000801C2062E5E74006CDD55006CBD5CA685C
:101A9000204622F04002CA6084F83D3000F00BF985
:101AA000C1E70000E51F000870B5040004D094F8F9
:101AB0003D00002510B106E0012070BD84F83C50C7
:101AC000204600F023F8242084F83D002068C168F7
:101AD00021F40051C160204600F014FB2068016928
:101AE00021F4904101612068416921F02A0141619E
:101AF0002068C16841F40051C1602564202084F849
:101B00003D0084F83E00002070BD00002DE9F0414A
:101B100086B0064614216846FEF7FCFC5C495B482B
:101B200033685B4A10390325022700244FF0080868
:101B300083424CD1106840F400201060106800F41B
:101B400000200590086840F0010008600868CDE9B1
:101B5000005700F00100CDE9048069464D48CDE909
:101B60000245FEF757FF4D4D4B484FF4806847053F
:101B70002860C5E90174C5E903486C61AC61EC619A
:101B80002C6228466C62FEF7C9FE08B1FEF799FD8B
:101B9000B563AE634048424D3030E5E8020740206F
:101BA000A5E811013E4845F81449AC61EC612C628E
:101BB0006C62FEF7B3FE08B1FEF783FD7563002289
:101BC00005213420AE63FFF7BBF8342034E0354EF6
:101BD0003548B34235D1136843F48013136012685B
:101BE00002F4801205920A6842F004020A600A6850
:101BF00002F0040205920A6842F008020A600968CD
:101C000002AB01F0080105918114CDE9001783E8CA
:101C100030016946FEF7FEFE0420CDE9000702AB65
:101C2000694683E830012148FEF7F4FE00220521D1
:101C30003520FFF785F83520FFF774F806B0BDE8CA
:101C4000F0811B4EB342F9D1136843F48023136033
:101C5000126802F4802205920A6842F004020A60C7
:101C60000968029401F0040105914FF44061CDE947
:101C700000170721CDE903516946FEF7CBFE00228C
:101C800005212720FFF75CF82720D5E7004C00400E
:101C9000403802400000024040600240200700201F
:101CA000800700200050004000080240000C024065
:101CB0000048004070477047FEE700002DE9F04300
:101CC00087B014216846FEF725FC374800240168D8
:101CD00041F080010160016801F080010591016817
:101CE00041F001010160016801F001010591016805
:101CF00041F004010160016801F0040105910168EF
:101D000041F002010160016801F0020105910168E2
:101D100041F0080101600068244F00F008000590C0
:101D20000022F0213846FEF76DFFDFF88490002294
:101D300030214846FEF766FFDFF8788048F21B0640
:101D4000002231464046FEF75DFFF813CDE900045E
:101D5000694638460294FEF75DFEF02000900125AA
:101D6000CDE90154694638460394FEF753FE30200E
:101D70000090CDE90154694648460394FEF74AFEB7
:101D80000096CDE90154694640460394FEF742FEB1
:101D90004020CDE90004694648460294FEF73AFE29
:101DA00007B0BDE8F0830000303802400000024078
:101DB00000080240000402400F4810B50D490160C0
:101DC0004FF4827141604FF4806181600021C160F5
:101DD0004FF400720161C0E90512C1610162416204
:101DE00081620A21C162FFF74BFB002801D072B665
:101DF000FEE710BD00380040900000200B4810B5F1
:101E00004FF0A04101600421416002220021C0E99D
:101E10000321C0E9062101624162C1620163FEF74C
:101E2000C1FF002801D072B6FEE710BDB40100204A
:101E3000FEE7FEE710B54FF0E020006901F0FAFC84
:101E4000012803D0BDE8104001F054BA10BD0000D5
:101E500030B593B030216846FEF75CFB14210CA826
:101E6000FEF758FB1E480025016841F080510160D3
:101E7000006800F0805011901A48016841F48041D8
:101E800001600068022400F480401190012000905D
:101E90004FF4A02001906005CDE906400C20089089
:101EA000A820CDE9090407200B906846FFF732F916
:101EB00008B172B6FEE70CA90F2081E831004FF49B
:101EC000A0500F904FF48050109005210CA8FFF700
:101ED00015F8002801D072B6FEE713B030BD00003F
:101EE00040380240007000400248016841F470012F
:101EF0000160704788ED00E00148FFF7DEBB00009D
:101F0000E0070020F0B50268254C264D264E274FED
:101F1000274B4FF0804CA04209D0604507D0A84223
:101F200005D0B04203D0B84201D0984204D122F08B
:101F3000700E4A6842EA0E02A0421BD0604519D0DA
:101F4000A84217D0B04215D0B84213D0984211D051
:101F5000184DA8420ED0184DA8420BD0174DA842DC
:101F600008D0174DA84205D0164DA84202D0164DF4
:101F7000A84203D122F44075CA682A434D6922F071
:101F800080022A4302608A68C2620A688262A042B2
:101F900001D0984201D10969016301214161F0BD7D
:101FA000000001400004004000080040000C004018
:101FB000000401400040014000440140004801404D
:101FC00000180040001C0040002000400148FFF7BE
:101FD00037BC0000E80000200148FFF731BC0000DA
:101FE0002C01002010B5806B0021C185C184FFF752
:101FF00025FC10BD01680C3151E8002F22F49072CD
:1020000041E80023002BF5D10168143151E8002F7D
:1020100022F0010241E80023002BF5D1016B0129D8
:1020200009D101680C3151E8002F22F0100241E87B
:102030000023002BF5D1202180F83E100021016300
:10204000704708B590F83E10222901D0022008BD43
:1020500082684FF480539A4201D1016921B1816AAB
:102060009A421BD04AB10AE00268816A5268C2F300
:1020700008020A80816A891C08E0026972B102685C
:10208000526802F07F020A70816A491C8162C18D28
:10209000491E0904090CC18503D019E00268526881
:1020A000F1E70168CA6822F02002CA600168CA68C4
:1020B00022F48072CA6001684A6922F001024A6112
:1020C000202180F83E10016B012903D0FFF7F2FDBB
:1020D000002008BD0021016301680C3151E8002F88
:1020E00022F0100241E80023002BF5D101680A68B4
:1020F000D20602D50A6849680091818DFFF79DFBE1
:10210000E6E7000070B5044600680169E26821F462
:102110004051114301612169A068E2690843616986
:10212000114308432168CA6849F20C639A43024389
:10213000CA6020684169A26921F44071114341617C
:1021400031492068884202D03049884202D1FEF7E6
:102150009FFF01E0FEF78CFFE2690023192164254F
:102160003226B2F5004F626828D0A0FB0101930F20
:102170009200FEF7D9F80146B0FBF5F06FF01802B7
:10218000504301EB800006EB0010B0FBF5F000F0CF
:10219000F002B1FBF5F002EB0012B1FBF5F06FF0CD
:1021A0001803584301EB800006EB0010B0FBF5F07C
:1021B00000F00F0021681044886070BDA0FB010191
:1021C00092185B41FEF7B0F80146B0FBF5F0020152
:1021D000B1FBF5F06FF01803584301EB800006EBFC
:1021E000C000B0FBF5F000F0F80002EB4002B1FBDC
:1021F000F5F0584301EB800006EBC000B0FBF5F0B2
:1022000000F00700D6E70000001001400014014074
:102210000148FFF715BB00007001002070B50446AF
:1022200006990A9E049D0D98012916D0E06840F099
:102230004000E060204600F02BF8A16B1EB321F4B3
:102240008031A163012D07D1A16841F00601A16091
:10225000A16841F02001A16070BDA16B21F4803123
:10226000A163E168094A1140E160E16821F440118D
:10227000E160012803D1E06840F48010E06020466E
:1022800000F006F8DEE741F48031DAE7BFFFBDFF7A
:1022900008B500220D490092009B5B1C00938B4205
:1022A0000CD80369002BF7DA0092026942F00102B0
:1022B0000261009A521C00928A4201D9032008BD93
:1022C0000269D207F5D1002008BD0000400D0300CF
:1022D000D0F8001E21F00301C0F8001ED0F8041849
:1022E00041F00201C0F80418002070472DE9F04FBA
:1022F00000250E460446DDF82CC0DDF824B0109F02
:102300002846294604EB8002C2F80411401C0F281D
:10231000F8D32046C7B1806B20F40012A263A06BF3
:1023200040F40022A26308468846C4F8000ED4F8A0
:1023300000182046C4F80018BCF1010F16D0D0F8E0
:10234000001841F0030116E0D0F8040840F0020242
:10235000C4F80428A06B40F40012A263A06B20F420
:102360000022A263A06B20F48022DBE7D0F80018E3
:102370000BB141F00101C0F80018102100F094F8F1
:1023800000B10125204600F071F800B1012540465A
:10239000C4F81088C4F81488C4F81C8800214FF0D1
:1023A00000694FF0904A4FF67F3314E004EB41127E
:1023B000D2F800C9BCF1000F06DA11B1C2F800A9C9
:1023C00004E0C4F8009901E0C2F80009C2F810095D
:1023D000C2F80839491C8E42E8D8002115E000BF38
:1023E00004EB4112D2F800CBBCF1000F06DA11B1B8
:1023F000C2F800AB04E0C4F8009B01E0C2F8000B97
:10240000C2F8100BC2F8083B491C8E42E8D8D4F839
:10241000101821F48072C4F81028A0616FF0804079
:102420006061BBF1000F03D1A06940F01000A06112
:10243000A06909490843A0610C9818B1A06940F04F
:102440000800A061012F03D1A06904490843A061DD
:102450002846BDE8F08F000000383C8004000040B2
:10246000816821F0010181600020704708B50022D9
:102470000C490092009B5B1C00938B420AD80369B5
:10248000002BF7DA009210220261009A521C00928F
:102490008A4201D9032008BD0269D206F5D4002082
:1024A00008BD0000400D030018B500230D4A00933D
:1024B000009C641C009494420CD80469002CF7DA48
:1024C0000093202343EA811101610099491C009186
:1024D000914201D9032018BD01698906F5D4002075
:1024E00018BD0000400D030070B50446C06800250B
:1024F00020F0C040E060012901D079B120E0E0681F
:1025000040F00050E0600120FEF772FA60696D1C37
:1025100010F0010F10D1322DF5D30DE0E06840F03E
:102520008040E0600120FEF763FA60696D1C10F0E6
:10253000010F01D0322DF5D3322D01D0002070BD16
:10254000012070BDFEE70907090E002804DB00F139
:10255000E02080F80014704700F00F0000F1E02048
:1025600080F8141D7047000008B5FEF75FFBFFF709
:102570006FFCFFF7A3FB2F480024016841F4001112
:1025800001600068224600F40010009005210D2033
:10259000FEF7D6FB0D20FEF7C5FB002205210E201D
:1025A000FEF7CEFB0E20FEF7BDFB002205210F201B
:1025B000FEF7C6FB0F20FEF7B5FBFFF7FDFB1F483C
:1025C0001D490C2501604FF49641C0E90114C46017
:1025D000C0E904458461C461FFF766FA08B172B6C8
:1025E000FEE71648164944304FF4E1360160C0E971
:1025F0000164C460C0E904458461C461FFF754FA12
:1026000008B172B6FEE70D480E4988300160C0E996
:102610000164C460C0E904458461C461FFF744FA01
:1026200008B172B6FEE7FFF7E9FB00F00DF800F025
:102630001DF8FEE730380240004C0040E800002062
:102640000050004000480040EFF3058010B16FF0EB
:10265000050070470448016811B14FF0FF30704722
:1026600001210160002070476000002010B5EFF3E9
:10267000058010B16FF0050010BD08480168012900
:1026800002D04FF0FF3010BD054A002182F8141D22
:102690000221016000F036FD002010BD6000002026
:1026A0000BE000E02DE9F041134C0F460546E668CB
:1026B0002068001D00F0B0FB681C07D137B121680D
:1026C000BDE8F0410D48091D00F0F6BB2068354417
:1026D000B5424560216805D2A06BBDE8F041091DF7
:1026E00000F0D2BB606B091D00F0CEFBA06A8542F2
:1026F00000D2A562BDE8F08110000020180D002076
:102700002DE9F041054600F0E3FB2D4CA068401C8C
:10271000A06020682B4F10B1606930B32BE02560BA
:10272000A068012827D1002606EB860007EB800071
:1027300000F09CFB761C382EF6D3234800F096FB65
:102740002148143000F092FB1F48283000F08EFB27
:102750001D483C3000F08AFB1B48503000F086FBDF
:10276000194860631430A06305E02068E96AC06A14
:10277000884200D82560606A401C60626864E86A2C
:102780002169884200D9206100EB800007EB8000BE
:10279000291D00F091FB00F0BBFB606900280CD004
:1027A0002068E96AC06A884207D208494FF0805021
:1027B0000860BFF34F8FBFF36F8FBDE8F08100005B
:1027C0001000002068080020C80C002004ED00E084
:1027D00038B500F07DFB104C2068C8B90F4800F0F8
:1027E00045FB0E48143000F041FB0C48E06014300B
:1027F00020610A4B0020F03B009003F150021021B1
:102800000A2000F08DFD206010B105A100F002FC4F
:10281000BDE8384000F07CBB4C0000201C0E0020BE
:10282000546D72510000000030B4026C0B46002A57
:102830000BD0C1681144C1608468A14201D3016812
:10284000C16030BC1846FDF7E6BD30BC70472DE9CD
:10285000F041856B174604460026026C82B1C7B171
:10286000E068FDF7D8FDE168206C091AE160226894
:10287000914202D2A168081AE060022F16D017E038
:102880002068A8B9A06801F04DF806460020A060B5
:102890000EE06068FDF7BFFD216C60680844606071
:1028A000A168884204D32068606001E005B16D1E14
:1028B0006D1CA5633046BDE8F08110B5044690F864
:1028C000590058B101280CD002280FD0502080F3B5
:1028D0001188BFF34F8FBFF36F8FFEE7206B00F0BF
:1028E0002BFB2046BDE8104000F026BB10BD0000C9
:1028F000144E154CA6F29C474FF08058DFF84C90D0
:1029000012E000BF00F0E4FAF068C568281D00F08E
:1029100083FAA068401EA0606068401E606000F0FE
:10292000F7FA2846FFF7C9FF60680028EAD138683F
:102930000128F9D9C9F80080BFF34F8FBFF36F8F1B
:10294000F2E70000040D00201000002004ED00E07C
:1029500070B51D46049C51B1C4F80020C4E90F01B4
:102960000121204600F010FD84F84C5070BD246019
:10297000F4E700002DE9F05F8846DDE90B94154689
:10298000834691009A460A9EA522206BFDF7BAFD68
:102990006FF00301206B01EB8501084420F007076D
:1029A000780707D0502080F31188BFF34F8FBFF313
:1029B0006F8FFEE70025B8F1000F0FD05FF0000029
:1029C000221818F8001082F8341018F8001011B10D
:1029D000401C1028F4D384F8435001E084F83450AC
:1029E000382E00D33726E662C4E91365201D00F0B7
:1029F00048FA04F1180000F044FA2461C6F13800E6
:102A00006462A061656584F858505246594638465C
:102A100000F0ECF92060B9F1000F01D0C9F80040D6
:102A2000BDE8F09F30B5114900E011460A688242C6
:102A3000FBD34B685C18844203D14068184448605B
:102A4000084643681C18944209D1084C183C246875
:102A5000A24209D052681A4442600A6812680260B1
:102A6000814200D0086030BD0460F9E77C0000209E
:102A700070B5002441600B4D0061914206D8D11A17
:102A80008269914206D2011D286907E09A4203D269
:102A9000994201D3012403E0011DE86800F0F4F934
:102AA000204670BD4C00002010B5044600F010FA1E
:102AB000A06B28B15FF0000400F02AFA204610BD98
:102AC0000124F9E730B589B03C4D6EE00498002848
:102AD00006DADDE90601059A90470498002864DBD0
:102AE000069C606910B1201D00F096F903A800F063
:102AF000D7F8024604980A2857D2DFE800F0050507
:102B0000052D334A05052D3394F8280040F00100C7
:102B100084F828000599A069059B01442046FFF729
:102B2000A7FF68B3216A2046884794F82800400729
:102B30003BD5002000900598A16900234218194652
:102B4000204600F0F9FFD8B9502080F31188BFF378
:102B50004F8FBFF36F8FFEE714F8280F20F00100AE
:102B6000207022E094F8280040F0010084F828004A
:102B70000598A06128B1811813462046FFF778FF19
:102B800013E0502080F31188BFF34F8FBFF36F8F96
:102B9000FEE794F82800810703D4204600F0CCF922
:102BA00003E020F0010084F82800002204A928682E
:102BB00000F03EFD002889D109B030BD4C00002056
:102BC0002DE9FC410F46054600F0E0FA01A800F0AF
:102BD00067F80446019818B100F01CFFBDE8FC81BD
:102BE000254EAFB130690068D0B30027291B3A46A3
:102BF000306800F023FA00F00DFF0028EED11F49E5
:102C00004FF080500860BFF34F8FBFF36F8FE5E741
:102C1000A542EBD800F0FEFEF0682746C068C46805
:102C2000201D00F0F9F894F82800410719D5A06993
:102C30002B4641193A462046FFF71AFFA8B100205B
:102C40000346014600902A46204600F075FF60B911
:102C5000502080F31188BFF34F8FBFF36F8FFEE7D3
:102C600007E020F0010084F82800216A2046884708
:102C7000B4E70127BAE700004C00002004ED00E0B3
:102C80000648416B096829B1416BC968C968496840
:102C9000816270474FF0FF31FAE70000100000201A
:102CA00070B5054600F0D4FD064E0446B068844277
:102CB00003D200F009F8012000E00020286020463F
:102CC000B46070BD4C000020F8B5194D20E0C0681C
:102CD000C4680668201D00F09FF8216A20468847D6
:102CE00094F82800400713D5A0693044B04206D9B3
:102CF00024616060211DE86800F0C6F808E000204B
:102D00000346014600903246204600F015FF38B1D8
:102D1000E86801680029DAD12969C5E90310F8BD1E
:102D2000502080F31188BFF34F8FBFF36F8FFEE702
:102D30004C00002008484068401C4FF0500080F3D1
:102D4000118804D0BFF34F8FBFF36F8FFEE7BFF33F
:102D50004F8FBFF36F8FFEE784000020074CE068C1
:102D6000016841B1C0680021D0F80000FFF728FFDA
:102D7000FFF7A8FEF3E701210020F7E74C00002051
:102D80002DE9F041044600F0A3F894F9455004F110
:102D9000240609E0606A48B1304600F003FE08B13D
:102DA00000F076F96D1E6DB2002DF3DC4FF0FF36AA
:102DB00084F8456000F0ACF800F08AF894F94450CB
:102DC00004F1100709E0206948B1384600F0EAFD37
:102DD00008B100F05DF96D1E6DB2002DF3DC84F8D2
:102DE0004460BDE8F04100F093B8000010B5031F47
:102DF0004FF080741C601B1F21F001011960191F26
:102E0000044B0B6014390A60091F6FF0020244384A
:102E10000A6010BD352D0008D0E9013201699A60C1
:102E2000D0E901235A604A68824201D182684A602F
:102E3000002202610868401E0860086870470000B0
:102E4000034B036003F15C00086080201060704752
:102E5000440E0020044B036003F15C0008604FF453
:102E60008070106070470000A010002000F1080181
:102E70004FF0FF32C0E90112C16001610021016021
:102E8000704700210161704730B50B685A1C02D0B1
:102E900000F1080202E0026904E022465468256855
:102EA0009D42FAD953684B6099608A60516008610D
:102EB0000168491C016030BD42684A6093688B60BC
:102EC00093685960916008610168491C016070470E
:102ED000502080F31188BFF34F8FBFF36F8F0A49E3
:102EE0004868401C486001280CD10848006810F070
:102EF000FF0F07D0502080F31188BFF34F8FBFF32F
:102F00006F8FFEE7704700008400002004ED00E0B2
:102F10000849486828B1401E486001D180F31188F3
:102F20007047502080F31188BFF34F8FBFF36F8F2E
:102F3000FEE700008400002070B500282AD0164D5E
:102F4000A0F1080460686969084207D1502080F345
:102F50001188BFF34F8FBFF36F8FFEE722683AB13E
:102F6000502080F31188BFF34F8FBFF36F8FFEE7C0
:102F70008843606000F00AF9606869680844686026
:102F80002046FFF74FFD2869401C2861BDE87040CE
:102F900000F040BD70BD0000640000204FF0E02054
:102FA00000210161816105494FF47A720968B1FB22
:102FB000F2F1491E41610721016170470C000020B8
:102FC00010B5FDF78DF9114910280ED300F1E0205E
:102FD00090F8F0030A78904207D2502080F31188CD
:102FE000BFF34F8FBFF36F8FFEE709480068896812
:102FF00000F4E060884207D9502080F31188BFF3C5
:103000004F8FBFF36F8FFEE710BD000084000020DC
:103010000CED00E010B5084B002200BF53F8324021
:103020001CB1521C082AF9D310BD43F8321003EB2F
:10303000C201486010BD00002808002070B5154688
:103040000E460446FFF744FF94F944100020491C43
:1030500001D184F8440094F94510491C01D184F849
:103060004500FFF755FFA06B28B92A46314604F109
:10307000240000F02BF82046BDE87040FFF780BE2A
:1030800002490A6A0260C968416070471000002066
:1030900001490120C86170471000002010B50C469E
:1030A00050B1094909681831FFF7EEFE2046BDE826
:1030B00010400121FFF7F6BA502080F31188BFF3CA
:1030C0004F8FBFF36F8FFEE71000002070B51446DE
:1030D0000D4668B10A4909681831FFF7EDFE0CB1D9
:1030E0004FF0FF3521462846BDE87040FFF7DABAB9
:1030F000502080F31188BFF34F8FBFF36F8FFEE72F
:103100001000002030B587B00024039405AA04A95C
:1031100003A80494FFF794FEDDE903010094CDE9D0
:103120000110002315A11748059A00F057FB164D12
:103130000028E8621FD000F0CFFC012809D0401C15
:1031400019D1502080F31188BFF34F8FBFF36F8FD9
:10315000FEE7502080F31188BFF34F8FBFF36F8FCE
:103160004FF0FF30A86201206861EC6007B0BDE855
:10317000304000F045B807B030BD000049444C4530
:1031800000000000F1280008100000200248016B38
:10319000491C01637047000010000020164810B55C
:1031A000016B11B10121C16110BD0021C161016933
:1031B000124A01E0B9B1491E01EB810352F82330F4
:1031C000002BF7D001EB810302EB830202F108042C
:1031D00053685B685360A34201D15B685360DA684F
:1031E0000260016110BD502080F31188BFF34F8F42
:1031F000BFF36F8FFEE7000010000020680800207A
:103200001CB537480168374A914207D1502080F3F6
:103210001188BFF34F8FBFF36F8FFEE7006831490E
:10322000491E884207D1502080F31188BFF34F8F89
:10323000BFF36F8FFEE72C4908780190FF200870DC
:1032400008788DF800009DF800009DF8002000F03F
:10325000F000904207D0502080F31188BFF34F8FC9
:10326000BFF36F8FFEE79DF80000204C00F0500088
:1032700020700720A06005E09DF8002052008DF826
:103280000020401E9DF800201206F5D4A0600328FF
:1032900007D0502080F31188BFF34F8FBFF36F8F9B
:1032A000FEE74FF44070A060019808700C48203091
:1032B000016841F470010160016841F070410160F2
:1032C000FFF76CFE00206060FCF7D2FF0848016841
:1032D00041F040410160FCF7B7FF00201CBD000039
:1032E00000ED00E071C20F4100E400E08400002026
:1032F00034EF00E010B5502080F31188BFF34F8FFA
:10330000BFF36F8F00F0AAFA18B104494FF0805054
:103310000860002080F3118810BD000004ED00E07B
:1033200038B5049D18B153B1CAB181B120E0502025
:1033300080F31188BFF34F8FBFF36F8FFEE75020EC
:1033400080F31188BFF34F8FBFF36F8FFEE75020DC
:1033500080F31188BFF34F8FBFF36F8FFEE739B152
:10336000502080F31188BFF34F8FBFF36F8FFEE7BC
:1033700050241C46012384F846302B460094FFF766
:10338000E7FA204638BD000070B50D46040025D090
:10339000FFF79EFDD4E90F20216802FB0011A16018
:1033A0000021A163216861600A46D4E90F01401E33
:1033B00000FB0121E16021464FF0FF3001F8440F8E
:1033C000487004F110008DB1FFF750FD04F12400A6
:1033D000FFF74CFDFFF79CFD012070BD502080F3EE
:1033E0001188BFF34F8FBFF36F8FFEE7216900296C
:1033F000F0D000F0D7FA0028ECD004494FF080500C
:103400000860BFF34F8FBFF36F8FE3E704ED00E079
:103410002DE9FF4782B01D468A464FF000080400A0
:1034200003D0BAF1000F08D011E0502080F31188CA
:10343000BFF34F8FBFF36F8FFEE7206C38B1502082
:1034400080F31188BFF34F8FBFF36F8FFEE7022D1C
:103450000AD1E06B012807D0502080F31188BFF318
:103460004F8FBFF36F8FFEE700F0E4F93F4F4FF04F
:1034700000094FF0805648B9049838B1502080F3C5
:103480001188BFF34F8FBFF36F8FFEE7FFF720FD6B
:10349000A06BE16B884207D3022D05D00498D0B110
:1034A000B8F1000F1AD01EE02A4651462046FFF719
:1034B000CEF9616A19B104F1240000F073FA20B169
:1034C0003E60BFF34F8FBFF36F8FFFF721FD0120E9
:1034D00006B0BDE8F087FFF71BFD22E06846FFF766
:1034E000CFFD4FF00108FFF713FDFFF74FFEFFF789
:1034F000EFFC94F94400401C01D184F8449094F905
:103500004500401C01D184F84590FFF701FD04A956
:10351000684600F029F930B12046FFF731FC00F091
:1035200079FA0020D4E7FFF7D3FCA06BE16B884267
:1035300013D1FFF7EDFC04F110000499FFF7AEFD85
:103540002046FFF71DFC00F065FA00289ED13E6082
:10355000BFF34F8FBFF36F8F98E7FFF7D9FC20467B
:10356000FFF70EFC00F056FA90E7000004ED00E0D3
:103570002DE9F0471F4690468946040003D0B9F173
:10358000000F08D011E0502080F31188BFF34F8F57
:10359000BFF36F8FFEE7206C38B1502080F31188A5
:1035A000BFF34F8FBFF36F8FFEE7022F0AD1E06B9F
:1035B000012807D0502080F31188BFF34F8FBFF34D
:1035C0006F8FFEE7FFF7FCFC5020EFF3118680F3CE
:1035D0001188BFF34F8FBFF36F8FA06BE16B8842F1
:1035E00006D3022F04D0002086F31188BDE8F087AF
:1035F00094F94550A06B3A4649462046FFF727F913
:10360000681C04D06D1C84F845500120ECE7606A0A
:103610000028FAD004F1240000F0C4F90028F4D006
:10362000B8F1000FF1D00121C8F80010EDE700005B
:103630002DE9F747002683B08A46040003D0BAF18B
:10364000000F08D011E0502080F31188BFF34F8F96
:10365000BFF36F8FFEE7206C38B1502080F31188E4
:10366000BFF34F8FBFF36F8FFEE700F0E3F8DFF893
:10367000F4804FF000094FF0805748B9059838B1F1
:10368000502080F31188BFF34F8FBFF36F8FFEE799
:10369000FFF71EFCA56BC5B151462046FFF7C4F8E5
:1036A0006D1EA563206950B104F1100000F07AF995
:1036B00028B1C8F80070BFF34F8FBFF36F8FFFF7CB
:1036C00027FC012006B0BDE8F087059808B11EB1BF
:1036D00006E0FFF71DFC27E06846FFF7D1FC012656
:1036E000FFF716FCFFF752FDFFF7F2FB94F94400D9
:1036F000401C01D184F8449094F94500401C01D14C
:1037000084F84590FFF704FC05A9684600F02CF802
:10371000002820460AD0FFF733FB00F07BF9204653
:10372000FFF7C2F90028B3D00020CBE7FFF7BCF9C0
:1037300090B104F124000599FFF7B0FC2046FFF793
:103740001FFB00F067F90028A2D1C8F80070BFF392
:103750004F8FBFF36F8F9BE72046FFF711FB00F001
:1037600059F995E704ED00E02DE9F0410C4605001C
:1037700011D0C4B1FFF7ACFB174BDA686E68206854
:10378000911B471C17D02F681B6A9F4219D0964285
:1037900017D8012410E0502080F31188BFF34F8F19
:1037A000BFF36F8FFEE7502080F31188BFF34F8F78
:1037B000BFF36F8FFEE70024FFF7AAFB2046BDE8AA
:1037C000F081884205D9401A20602846FFF758FC4E
:1037D000F1E700202060DCE710000020F0B585B0A4
:1037E000DDE90B640A9DA6B1DCB15C270097266376
:1037F000022684F85960002604AFCDE90246CDE9DF
:103800000057FFF7B7F82046FEF77AFF049805B097
:10381000F0BD502080F31188BFF34F8FBFF36F8F3F
:10382000FEE7502080F31188BFF34F8FBFF36F8FF7
:10383000FEE700000548416919B1006B18B100208E
:1038400070470120704702207047000010000020E0
:103850000148C06870470000100000202DE9F041C9
:103860002E4C0027206B28B1A069401CA06138466F
:10387000BDE8F081E668761CE66013D1606B0068F5
:1038800038B1502080F31188BFF34F8FBFF36F8F93
:10389000FEE7606BA16B6163A063206A401C20623D
:1038A000FFF7EEF9A06ADFF87880864209D3606BF3
:1038B0000068A0B1606BC068C5686868864211D2B4
:1038C000A0622068C06A00EB800158F8210001283E
:1038D00000D90127E0690028C9D00127C7E74FF0C8
:1038E000FF30EDE7281DFFF797FAA86A18B105F138
:1038F0001800FFF791FAE86A2169884200D920612F
:1039000000EB800108EB8100291DFFF7D5FAE86A7A
:103910002168C96A8842CAD30127C8E7100000207D
:103920006808002070B504004FF0000133D01B4D33
:103930002868844207D0502080F31188BFF34F8F4E
:10394000BFF36F8FFEE7206D38B1401E2065E36C3A
:10395000E26A9A421FD040B11DE0502080F31188E6
:10396000BFF34F8FBFF36F8FFEE7201DFFF754FAB1
:10397000E06CE062C0F13800A061E06A2969884229
:1039800000D92861064900EB800001EB8000211D71
:10399000FFF792FA0121084670BD000010000020D8
:1039A0006808002070B5C068C46854B104F11800FC
:1039B0000646FFF731FA144D286B50B131461348D3
:1039C00015E0502080F31188BFF34F8FBFF36F8F46
:1039D000FEE7201DFFF720FAE06A2969884200D936
:1039E00028610B4900EB800001EB8000211DFFF7EF
:1039F00063FAE06A2968C96A884202D90120E8614D
:103A000070BD002070BD000010000020F00C0020F0
:103A1000680800202DE9F0472C4D00242746286B2C
:103A200038B1FFF755FA286B401E2863286B40B168
:103A300046E0502080F31188BFF34F8FBFF36F8FA4
:103A4000FEE7A968224E0120D1B3A6F59169804610
:103A50003068E0B1F068C46804F11800FFF7DCF9E1
:103A6000201DFFF7D9F9E06A2969884200D9286149
:103A700000EB800109EB8100211DFFF71DFAE06AD0
:103A80002968C96A8842E3D3C5F81C80E0E70CB115
:103A9000FFF7F6F8AC694CB14FEA0806FFF7DEFE17
:103AA00000B1EE61641EF9D10020A861E86938B167
:103AB0000849012738070860BFF34F8FBFF36F8FA6
:103AC000FFF726FA3846BDE8F08700001000002016
:103AD000F00C002004ED00E010B586B0FEF778FE93
:103AE000114C2068B8B100200390049005AA04A9E5
:103AF00003A8FFF7AFF9DDE9032102208DE80700F5
:103B000000230AA10B48059AFFF768FE606010B118
:103B100006B0012010BD502080F31188BFF34F8FF5
:103B2000BFF36F8FFEE700004C000020546D722041
:103B3000537663005D2D00082DE9FF411E461346B4
:103B400002000A9D4FF0000016D0144C2768002F89
:103B50000FD0CDE900130292062917DAFFF76AFEAB
:103B600002284FF000030FD0002269462068FFF7BB
:103B70004FFC04B0BDE8F081502080F31188BFF302
:103B80004F8FBFF36F8FFEE72A46EEE700233246E2
:103B900069463846FFF7ECFCEBE700004C000020DC
:103BA0004FF04070E1EE100A704700061016000654
:103BB00010160000000000000000010203040607C8
:103BC000080900000000010203040000EC3B0008AB
:103BD0000000002090000000C40100087C3C0008A8
:103BE00090000020D01A0000E00100080100000051
:103BF00010000000000000000024F400000000009D
:103C000000000000000000000000000000000000B4
:103C100000000000000000000000000000000000A4
:103C20000000000000000000000000000000000094
:103C30000000000000000000000000000000000084
:103C40000000000000000000000000000000000074
:103C50000000000000000000000000000000000064
:103C60000000000000000000000000000000000054
:0C3C700000000000AAAAAAAA00000000A0
:040000050800018965
:00000001FF
