:020000040800F2
:10000000605E002009030008172600088924000804
:1000100015260008050A0008912F000800000000BE
:10002000000000000000000000000000490200087D
:10003000D10A000800000000A5020008812800087D
:1000400023030008230300082303000823030008F8
:1000500023030008230300082303000823030008E8
:1000600023030008230300082303000823030008D8
:1000700023030008090A0008150A0008210A0008DD
:1000800023030008230300082303000823030008B8
:10009000230300082303000823030008D30A0008F1
:1000A0002303000845290008230300082303000850
:1000B0002303000823030008230300082303000888
:1000C0002303000823030008230300082303000878
:1000D0002303000823030008230300085D2C000805
:1000E0002303000823030008230300082303000858
:1000F0002303000823030008230300082303000848
:100100002303000823030008230300082303000837
:10011000192A0008252A00082303000823030008E1
:100120002303000823030008230300082303000817
:100130002303000800000000000000002303000863
:1001400023030008230300082303000823030008F7
:1001500023030008230300082303000823030008E7
:1001600023030008230300082303000823030008D7
:100170002303000823030008000000000000000023
:10018000230300082303000800F002F800F04CF8F5
:100190000AA090E8000C82448344AAF10107DA45E2
:1001A00001D100F041F8AFF2090EBAE80F0013F0E8
:1001B000010F18BFFB1A43F001031847E457000072
:1001C000045800000A4410F8014B14F00F0508BF52
:1001D00010F8015B240908BF10F8014B6D1E05D013
:1001E00010F8013B6D1E01F8013BF9D1641E03D0EC
:1001F000641E01F8015BFBD19142E4D3704700001B
:100200000023002400250026103A28BF78C1FBD81F
:10021000520728BF30C148BF0B6070471FB505F0BB
:10022000B9FA1FBD10B510BD00F0E4F91146FFF793
:10023000F5FF03F03FFB00F002FA03B4FFF7F2FF13
:1002400003BC00F005FA00002C4B19680868B0E800
:10025000F04F80F30988BFF36F8F4FF0000080F3F9
:10026000118870470000000008480068006880F3AB
:1002700008884FF0000080F3148862B661B6BFF3BF
:100280004F8FBFF36F8F00DF00BF00BF08ED00E0AE
:10029000DFF80C00016841F470010160704700BF95
:1002A00088ED00E0EFF30980BFF36F8F134B1A68FE
:1002B0001EF0100F08BF20ED108A20E9F04F1060EB
:1002C00009B44FF0500080F31188BFF34F8FBFF394
:1002D0006F8F04F03FFB4FF0000080F3118809BCE2
:1002E00019680868B0E8F04F1EF0100F08BFB0ECB6
:1002F000108A80F30988BFF36F8F704710000020C9
:10030000EFF305807047000009488047094800471F
:10031000FEE7FEE7FEE7FEE7FEE7FEE7FEE7FEE7B5
:10032000FEE7FEE704480549054A064B7047000012
:10033000352900088901000860580020605E00200F
:10034000605A0020605A002053EA020C00F06980D5
:100350002DE9F04B4FF00006002B1FBFB3FA83F5D9
:1003600003FA05F424FA05F65E4012BF1643B2FA0A
:1003700082F502FA05F4C5F120051EBF22FA05FC3C
:1003800044EA0C04203556EA044C4FEA144418BFE2
:10039000641C4FF000084FF00009904271EB030C11
:1003A00039D3002919BFB1FA81F701FA07F6B0FA7B
:1003B00080F700FA07F6C7F120071EBF20FA07FCF6
:1003C00046EA0C062037B6FBF4FCA7EB0507103F06
:1003D00007F01F0BCBF120060CFA0BFB2CFA06F6EC
:1003E00044BFB3460026202FA4BF5E464FF0000B4B
:1003F0005BEA060C08BF4FF0010B19EB0B09ABFBD6
:10040000027C48EB0608C01B06FB02CC0BFB03CCAE
:1004100071EB0C01C1E70B46024641464846BDE878
:10042000F08B13B54FF000004FF00001AFF30080E8
:10043000BDE81C407047032A40F2308010F0030CE6
:1004400000F0158011F8013BBCF1020F624498BF27
:1004500011F801CB00F8013B38BF11F8013BA2F1C4
:10046000040298BF00F801CB38BF00F8013B11F03F
:10047000030300F02580083AC0F0088051F8043BDF
:10048000083A51F804CBA0E80810F5E7121D5CBF4C
:1004900051F8043B40F8043BAFF30080D20724BF7F
:1004A00011F8013B11F801CB48BF11F8012B24BF13
:1004B00000F8013B00F801CB48BF00F8012B704762
:1004C00010B5203AC0F00B80B1E81850203AA0E8EF
:1004D0001850B1E81850A0E81850BFF4F5AF5FEA23
:1004E000027C24BFB1E81850A0E8185044BF18C9D6
:1004F00018C0BDE810405FEA827C24BF51F8043B7D
:1005000040F8043B08BF7047D20728BF31F8023BD0
:1005100048BF11F8012B28BF20F8023B48BF00F864
:10052000012B704702F0FF0343EA032242EA024232
:1005300000F002B84FF000020429C0F0128010F061
:10054000030C00F01B80CCF1040CBCF1020F18BFAF
:1005500000F8012BA8BF20F8022BA1EB0C0100F042
:100560000DB85FEAC17C24BF00F8012B00F8012B15
:1005700048BF00F8012B70474FF0000200B513464A
:1005800094469646203922BFA0E80C50A0E80C50B3
:10059000B1F12001BFF4F7AF090728BFA0E80C5064
:1005A00048BF0CC05DF804EB890028BF40F8042B5D
:1005B00008BF704748BF20F8022B11F0804F18BFCA
:1005C00000F8012B704770477047704710B500F076
:1005D00009F8006810BD10B5044600F003F8046087
:1005E00010BD000000487047FC57002000487047CD
:1005F000FC5700207546FFF7F9FFAE460500694637
:10060000534620F00700854618B020B5FFF78AFE54
:10061000BDE820404FF000064FF000074FF0000803
:100620004FF0000B21F00701AC46ACE8C009ACE884
:10063000C009ACE8C009ACE8C0098D46704710B5E8
:100640000446AFF300802046BDE81040FFF7F5BD3B
:1006500001491820ABBEFEE72600020070470000EB
:1006600070B548B1EFF3108472B60D4D29886A88D1
:10067000914206D114B102E0022070BD62B604209E
:1006800070BD08496A8801EB42112022FFF718FF6C
:10069000688802F0F9FF688004B962B6002070BD76
:1006A00090000020AC5100202DE9F047914688468B
:1006B00007000AD0104C208802F0E6FF618805464A
:1006C000884204D10520BDE8F0870220FBE70B4EED
:1006D0002088182206EB40103946FFF7ACFE21882F
:1006E00006EB4111C1F81880218806EB4111C1F8D1
:1006F0001C9025800020E6E790000020AC510020EF
:10070000EFF3108072B60021034A11805180002857
:1007100000D162B6704700009000002010B540285C
:1007200017D1284C2078002813D06068002810D0FA
:100730002169491C21612169E164617851B1A06A94
:10074000401CA062206B401C2063A06AE065206B07
:10075000606610BD012161706169491C6161616958
:1007600021651822184901F0B9F9A063616891F870
:100770005120E2634A6D2264C96C4FF0FF320029B8
:1007800001D04B6D00E01346636401D009684A68EC
:10079000A264A16BA167E16BE167226C094901F1D9
:1007A00080010A60626C4A60A26C8A600028D0D026
:1007B0004FF000006070E06A00F10100E062E06A62
:1007C000206610BD94000020AC5500202DE9F041BA
:1007D00000240B4E0746012505FA04F0384201D0EB
:1007E000012200E0002206EBC400818856F83400A4
:1007F00000F05AFC641C082CEED3BDE8F081000028
:10080000C057000803488068002801D003F07AB977
:10081000704700002001002000282AD0EFF310824A
:1008200072B614490B6903604B6943608B6983603E
:10083000CB69C3600B6A03614B6A43618B6A836156
:10084000CB6AC3610B6B03624B6B43628B6B83623E
:10085000CB6BC3620B6C03634B6C43638B6C836326
:100860000B7880F83C30497880F83D10002A00D1A0
:1008700062B670479400002010B518B11F4A016895
:10088000914201D0022010BD1D4C606000202070FC
:100890006070A060E06020616061A061E061206242
:1008A0006062A062E06220636063A063E063206432
:1008B0006064A064E06420656065A065E065206612
:1008C0006066A066E06620676067A067E06704F185
:1008D000800108604860886018210A48FFF72AFEF6
:1008E000FFF70EFF0122D103074800F0DDFBE068AF
:1008F000E0660020FFF76AFF002010BD00380040CE
:1009000094000020AC5500200004024010B5FFF711
:10091000A7FE002805D103490A6A521C0A620A6A26
:100920004A6710BD9400002010B50B4C606880B180
:10093000002020706070FFF7E3FEFF20FFF746FF06
:100940000A2000F099FA00F009F801202070002038
:1009500010BD012010BD00009400002070B50B4DAB
:100960004FF4004400222146284600F09DFB012060
:1009700000F082FA01222146284600F095FB044847
:100980008021C160C168C16670BD000000040240E2
:100990009400002070B505000CD00948007848B1DB
:1009A000EFF3108472B6AC2206492846FFF788FDA3
:1009B00014B102E0002070BD62B695F8A80070BDC9
:1009C00020010020C455002010B50B4C606878B998
:1009D000A06830B900221146202003F047F8A0603B
:1009E00040B1064A0021064803F0B8F8606008B13B
:1009F000002010BD012010BD20010020005800087B
:100A00005D380008FEE70000014800F0C3B80000B0
:100A1000D0070020014800F0BDB80000700700209A
:100A2000014800F0B7B80000300800200168182322
:100A3000CAB2103AB2FBF3F2054B6FF30901032A75
:100A40009B5CC36500D9091D81650846704700009D
:100A50009E57000810B5014600208B698A6A4FF046
:100A6000C07453B1B3F5005F15D072B1012A0CD038
:100A7000022A0AD0032A09D104E01AB1012A06D0B9
:100A8000022A03D1C96AC90100D5012010BDC96A73
:100A9000A142FAD010BD002AF7D0012AF2D0022AD2
:100AA000F3D0032AF3D010BD30B50468256825F4CF
:100AB00080252560046863608368402B036803D049
:100AC00099600068C26030BD9A600068C16030BD46
:100AD0007047402000F0E4B972B6FEE72DE9F0411E
:100AE0000446876D00F0E6FA064694F835000025C6
:100AF000022806D08020606584F834500120BDE8CB
:100B0000F0812068016821F01601016020684169C8
:100B100021F080014161206C08B9A06C20B12068EF
:100B2000016821F0080101602068016821F00101DD
:100B300001600CE000F0BEFA801B052807D92020D8
:100B40006065032084F8350084F83450D7E72068C6
:100B50000068C007EED194F85C103F208840B86070
:100B6000012084F8350084F834500020C7E790F85D
:100B70003510022903D080214165012070470521ED
:100B800080F835100068016821F001010160002043
:100B9000704700002DE9F84304464FF00009CDF8F6
:100BA000009063484FF41651A56D0068B0FBF1F753
:100BB0002E6894F85C10082000FA01F131420FD041
:100BC00021680A6852070BD50A6822F004020A60FD
:100BD00094F85C108840A860606D40F0010060658A
:100BE00094F85C104FF0010808FA01F0304208D088
:100BF00021684969090604D5A860606D40F00200CB
:100C0000606594F85C1004208840304208D0216868
:100C10000968890704D5A860606D40F0040060652C
:100C200094F85C1010208840304218D02168096880
:100C3000090714D5A86020680168490304D5006835
:100C4000000308D5A16C07E00168C90503D4016859
:100C500021F008010160216C09B12046884794F811
:100C60005C1020208840304231D021680968C906D4
:100C70002DD5A86094F8350005282068016806D0B5
:100C8000490347D5006800031DD4616C1CE021F0C6
:100C9000160101602068416921F080014161206CEA
:100CA00008B9A06C20B12068016821F0080101603A
:100CB00094F85C103F208840A86084F8358084F860
:100CC0003490216D1FE0E16B09B120468847606DCB
:100CD00000282BD0606DC00714D0052084F83500A3
:100CE0002068016821F0010101600098401C00901B
:100CF000B84203D820680068C007F6D184F8358070
:100D000084F83490E16C002910D001B02046BDE891
:100D1000F04308470168C905D5D4016821F01001E6
:100D2000016084F8358084F83490CCE7BDE8F8831E
:100D30000C0000202DE9F041044600F0BBF9064606
:100D40005CB1022084F83500002584F83450206816
:100D5000016821F0010101600DE00120BDE8F08192
:100D600000F0A8F9801B052805D920206065032024
:100D700084F83500F2E720680068C007F0D12268E7
:100D8000116820480140D4E901031843D4E903362F
:100D90003343184363691843A3691843E36918434D
:100DA000236A18430843616A042903D1D4E90B1369
:100DB00019430843106020684069666A20F0070103
:100DC00030460E43012704280CD1A06A0643E06A8E
:100DD00040B12046FFF73EFE20B14020606584F818
:100DE0003570BAE7206846612046FFF71FFE94F889
:100DF0005C203F2191408160656584F8357000205A
:100E0000ACE700003F8010F02DE9F0410446866D0C
:100E100090F83400002501280DD0012084F834001A
:100E200094F835700020012F07D084F83400022593
:100E30002846BDE8F0810220FBE7022784F83570E0
:100E400060652046FFF730FE94F85C103F20884034
:100E5000B0602068016841F016010160206C20B18B
:100E60002068016841F0080101602068016841F0D4
:100E700001010160DCE7000070B5044600F01AF9DA
:100E80000546601C02D004480078044400F012F9C2
:100E9000401BA042FAD370BD00000020FFF73EBC0B
:100EA000044910B50A68024202D00860FFF7F6FF55
:100EB00010BD0000143C01402DE9F84FDFF8BCA143
:100EC0000022012503264FF00F090AF1040BAAF1B5
:100ED000040E00BF0B6805FA02F42340A34270D150
:100EE0000F7907F00307012F01D0022F16D1876871
:100EF0004FEA420806FA08FC27EA0C07D1F80CC0B2
:100F00000CFA08FC4CEA070CC0F808C04768A74375
:100F10000C79C4F3001494403C4344600C79E443DE
:100F2000A4070AD0C4684FEA420C06FA0CF7BC4387
:100F30008F6807FA0CF72743C7600C7904F00304A5
:100F4000022C12D1D40800EB840CDCF820405707A7
:100F5000FF0E09FA07F824EA0804D1F8108008FA0D
:100F600007F848EA0408CCF8208004684FEA420CED
:100F700006FA0CF7BC430F7907F0030707FA0CF7E2
:100F8000274307604C6814F4403F70D03C4C2768FE
:100F900047F480472760246822F0030704F4804464
:100FA0000094384C07EB040CDCF8084897074FEA2C
:100FB000177809FA08F7BC43334FB84202D100272B
:100FC00024E054E0314FB84201D101271EE0304FF8
:100FD000B84201D1022719E02E4FB84201D10327B0
:100FE00014E02D4FB84201D104270FE02B4FB84237
:100FF00001D105270AE02A4FB84201D1062705E0B2
:10100000284FB84201D1072700E0082707FA08F760
:101010002743CCF80878DAF800405746D1F804C0E6
:101020009C435FEACC2C00D51C433C60DBF80040BD
:101030005F46D1F804C09C435FEA8C2C00D51C436A
:101040003C60DEF800407746D1F804C09C435FEA7C
:101050008C3C00D51C433C60084F083F3C68D1F8ED
:1010600004C09C435FEACC3C00D51C433C60521C4E
:10107000102AFFF42FAFBDE8F88F0000083C0140B4
:1010800044380240003001400000024000040240A9
:1010900000080240000C0240001002400014024010
:1010A00000180240001C02400AB181617047090427
:1010B000FBE7000001488068704700000000002046
:1010C0000248816802781144816070470000002066
:1010D0000B4810B5016841F400710160016841F4EA
:1010E00080610160016841F480710160032000F0BB
:1010F00099F80F2000F006F800F04AF8002010BD23
:10110000003C024030B505461C4887B00024016809
:1011100041F001010160006806A900F001000090A3
:1011200001A800F0D7F900F005FA15494000B0FB1E
:10113000F1F11548134A491E026040F2E732C0E956
:101140000324C0E90114846100F030FE040012D1D0
:101150000D4800F059FE04000DD1192000F034F8BC
:10116000102D07D200222946192000F03BF807482D
:10117000056000E0012407B0204630BD443802403D
:1011800040420F00000001409008002004000020B1
:101190000C4882B0016841F480410160006800F4AD
:1011A000804000900748001F016841F080510160B5
:1011B0000068002200F0805000900F21901E02B0C5
:1011C00000F010B844380240002809DB00F01F028C
:1011D000012191404009800000F1E020C0F8001199
:1011E00070470000F0B40E4B1B680C46C3F302239B
:1011F000C3F10705042D00D90425191D072901D2C3
:10120000002300E0DB1E012606FA05F1491E2140FD
:1012100099409E40761E16403143F0BC01F0CCBE92
:101220000CED00E0064900F0070208684FF6FF03E6
:10123000184040EA0220034A10430860704700004B
:101240000CED00E00000FA052DE9F0418AB0040041
:1012500005D094F8BD042668002520B108E00120DF
:101260000AB0BDE8F08184F8BC54204600F05EF876
:10127000032084F8BD04F06BC00500D4256120680C
:1012800001F014FE04F11001282288466846FFF799
:1012900017F994E80F0001F0E7FC0226C8BB002113
:1012A000206801F047FE002001270EE000EBC0019E
:1012B00004EB810181F83D7001F83C0F08810D714C
:1012C000CD600D61401CC0B28D6161688142EDD876
:1012D000002011E000EBC00104EB810181F87D5298
:1012E00081F87C0281F88052C1F88852C1F88C5292
:1012F000401CC0B2C1F8945261688142EAD82822E9
:1013000041466846FFF7DCF894E80F0001F014FD51
:1013100010B184F8BD64A2E784F8385084F8BD7435
:10132000206801F0FBFC00209AE7000010B586B0B1
:10133000044614216846FFF71FF92068B0F1A04F5A
:1013400027D115480021026842F0010202600068BE
:1013500000F0010005904FF4C05000900220CDE94C
:101360000101032003900A20049069460B48FFF70F
:10137000A3FD0948001D016841F080010160064895
:101380001430016841F480410160006800F480403D
:10139000059006B010BD0000303802400000024049
:1013A0002DE9F0470E46050065D0DFF81481D8F826
:1013B0000000F7B200F00700B04207D288F80070D2
:1013C000D8F8000000F00700B04254D128683D4C26
:1013D000810712D5400703D5206840F4E050206013
:1013E0002878000703D5206840F46040206020681A
:1013F000A96820F0F000084320602878C0072DD0AD
:10140000304968680839012812D0022813D003280F
:1014100011D00968890700292DDA216821F003011C
:1014200001432160FFF746FE814641F2883A0EE013
:1014300009688903EFE709688901ECE7FFF73AFEDD
:10144000A0EB0901514502D90320BDE8F0872068CF
:10145000696800F00C00B0EB810FEFD1D8F80010F4
:10146000404601F00701B14207D90770006800F05B
:101470000700B04201D00120E7E72878400705D5F2
:101480002068E96820F4E0500843206028780007CD
:1014900006D52068296920F4604040EAC100206038
:1014A00000F058F82168084AC1F30311515CC840A4
:1014B0000649086006480068FFF724FE0020C4E7DC
:1014C000003C024008380240A65700080C000020EB
:1014D000040000200F2202600C4A136803F003038B
:1014E0004360136803F0F0038360136803F4E05370
:1014F000C36012684FF4E05303EAD2020261044869
:10150000006800F0070008607047000008380240DB
:10151000003C02400448054900680968044AC1F3D8
:101520008221515CC84070470C00002008380240FE
:10153000B65700080448054900680968044AC1F321
:101540004231515CC84070470C000020083802400E
:10155000B6570008154810B5006810F00C02144882
:1015600013D01449042A0FD0082A0ED10F4C241F7F
:101570002268236802F03F025B0207D52068C0F3AF
:101580008810A0FB010106E0084610BD2168C1F3E8
:101590008811A1FB00010023FEF7D6FE2168C1F3EC
:1015A0000141491C4900B0FBF1F010BD0838024070
:1015B0000024F40000366E012DE9F84F04006ED0CF
:1015C0002078DFF84C93C007A9F104054AD009F14F
:1015D00004000168C1F38101012908D00068C0F34B
:1015E000810002280AD1D9F80000400206D52868F7
:1015F000800337D560680028E1D033E06068B0F53B
:10160000803F10D0B0F5A02F286810D020F4803093
:101610002860286820F4802028606068A8B1FFF75F
:1016200049FD06460DE0286840F48030F4E740F4B8
:1016300080202860F7E700BFFFF73CFD801B64288F
:1016400073D828688003F7D50CE0FFF733FD064612
:1016500005E000BFFFF72EFD801B6428F0D8286846
:101660008003F7D42078DFF8AC8280074FF0000ABF
:101670003ED5A748001D016811F00C0F08D0006886
:10168000C0F3810002280BD1D9F80000400207D432
:101690002868800716D5E068012800D112E033E100
:1016A000E068B8B10120C8F80000FFF703FD064666
:1016B00005E000BFFFF7FEFC801B0228C0D82868A9
:1016C0008007F7D52868216920F0F80040EAC100BA
:1016D00028600DE0C8F800A0FFF7ECFC064604E027
:1016E000FFF7E8FC801B02281FD828688007F7D482
:1016F0002078000722D5864F87486169703771B11D
:1017000001210160FFF7D6FC064604E0FFF7D2FC9A
:10171000801B022809D838688007F7D50EE0C0F88A
:1017200000A0FFF7C7FC064605E082E0FFF7C2FC19
:10173000801B02287DD838688007F7D420784007BE
:1017400068D5DFF8CCB100270BF13C0BDBF80000CB
:10175000C0000BD4DBF8001041F08051CBF8001032
:10176000DBF80000012700F0805000906B4E3068DD
:10177000C00510D4306840F480703060FFF79AFCE8
:10178000009005E0FFF796FC0099401A022850D817
:101790003068C005F6D55E4EA0686C3601280FD0C3
:1017A0000528306810D020F001003060306820F04B
:1017B00004003060A068B8B1FFF77CFC00900FE037
:1017C000306840F00100F4E740F004003060F7E7D3
:1017D000FFF770FC0099411A41F28830814266D8C7
:1017E00030688007F4D50EE0FFF764FC009007E056
:1017F000FFF760FC0099411A41F28830814256D8C7
:1018000030688007F4D42FB1DBF8001021F080514C
:10181000CBF80010A069C8B33D49091D0968C1F3A0
:10182000810102294AD00228504607D0C8F860003A
:1018300000E03CE0FFF73EFC04463BE04746C8F8CA
:101840006000FFF737FC064605E000BFFFF732FCFB
:10185000801B02282BD828688001F7D4D4E907011F
:101860000843A16A2E4A490802EB0141626A41EA33
:101870008211084394F82C1040EA0161C9F8001065
:1018800001203866FFF716FC044606E03EE000BF84
:10189000FFF710FC001B022809D828688001F7D543
:1018A00034E000BFFFF706FC001B022802D903202A
:1018B000BDE8F88F28688001F4D427E00128F7D02C
:1018C000D9F80000E26900F4800191421CD1226A3B
:1018D00000F03F01914217D147F6C071626A0140A2
:1018E000B1EB821F10D1A26A4FF0FF3300F44031F8
:1018F00003EB5202B1EB024F06D194F82C1000F02A
:101900007060B0EB016F01D00120D1E70020CFE77C
:101910000438024000004742800E474200700040F9
:101920000000FFFF16494A68002A28D0904226D1BD
:1019300000224A70CA6A521CCA62CA6A0A668A6D62
:10194000521C8A6590F85120CA63426D0A64C06CCB
:101950004FF0FF32002801D0436D00E013464B6486
:1019600001D0006842688A64C86BC8670A6C044882
:1019700000F1800002604A6C4260896C81607047AF
:101980009400002070B5040009D0606A002540B1C1
:1019900025616561A56294F8510040B10CE0012019
:1019A00070BD6068B0F5827FF4D0E561F2E784F83D
:1019B0005050204600F044F8022084F8510020687E
:1019C000016821F040010160A088218900F4827043
:1019D00001F404410843A18901F400610843217C1A
:1019E00001F002010843217D01F001010843218B30
:1019F00001F400710843217F01F03801084394F895
:101A0000201001F080010843218D01F400510843AA
:101A100021680860A069042101EA104094F82410AC
:101A200001F010010843216848602068C16921F471
:101A30000061C1616565012084F85100002070BD1E
:101A400070B586B0064614216846FEF795FD1E491E
:101A50003068884236D11D480025016841F4804134
:101A60000160006800F48040059018481038016853
:101A700041F0020101600068694600F00200059033
:101A80004FF4C04000900220CDE9010503200390EF
:101A9000052004900E48FFF70FFA0F4C0D48C4E9DB
:101AA00000050015A560C4E903506561A561E56105
:101AB000256220466562FFF73DF908B1FFF70CF893
:101AC000F464A66306B070BD0038004040380240A0
:101AD0000004024058600240700700202DE9F041E8
:101AE000044600268068042318B96568B5F5827F2E
:101AF0000ED094F85050012D13D0012784F8507067
:101B000094F851C00025BCF1010F0DD0022654E01D
:101B100084F851302046BDE8F04113460A4600F0F3
:101B2000AFB80220BDE8F08171B16AB184F85130DC
:101B30006565A163A287E28725646564A586E5865D
:101B4000B0F5004F02D00BE0012636E020680168B6
:101B500021F0400101602068016821F480410160AA
:101B6000E16C18480864E16C1748C863E16C1748D9
:101B7000C864E06C0565E38F2168A26B0C31E06CF2
:101B8000FFF742F938B1606D40F010006065012642
:101B900084F8517011E020680168490603D4016897
:101BA00041F0400101602068416841F0200141603E
:101BB0002068416841F00101416084F8505030468E
:101BC000B0E700003B2600084F2600081926000851
:101BD00010B5284C6168002933D0884231D10021EA
:101BE0006170A169491CA161A169616590F85110FA
:101BF000E163416D2164C06C4FF0FF31002801D0DA
:101C0000426D00E00A46626401D000684168A16448
:101C1000E06BE067216C174800F180000160616CA7
:101C20004160A16C8160E06860B1E068A0F10100F2
:101C3000E060606B00F101006063606BA066E068CB
:101C4000E06610BDA06800F10100A060FFF732FA65
:101C5000A16802460848FEF727FD18B1606A401CDB
:101C6000606210BDE069401CE061E0692067FEF73A
:101C7000C9FD10BD94000020AC5500207047000045
:101C80002DE9F041044690F85000002601280DD0BF
:101C9000012784F8507094F851000025D4F804C04E
:101CA00001280FD0BCF5827F0AD102E00220BDE8F6
:101CB000F081D4F808C0BCF1000F01D1042801D094
:101CC000022660E049B342B33BB394F851000428C4
:101CD00002D0052084F8510065652163A386E38660
:101CE000A263A387E3872564656494F85100042800
:101CF00015D0E16C264808642648E16CC863E16CA5
:101D00002548C864E06C0565E38F2168A26B0C313F
:101D1000E06CFFF779F8E0B906E0012633E0E16C0A
:101D20001E4808641E48E8E72068416841F0010148
:101D30004160A06C0564A06CC563A06CC564A06C18
:101D40000565E38E2268216B0C32A06CFFF75CF80E
:101D500038B1606D40F010006065012684F8517064
:101D600011E020680168490603D4016841F0400190
:101D700001602068416841F02001416020684168AD
:101D800041F00201416084F8505030468FE7000076
:101D900045260008B9260008192600083B26000839
:101DA0004F260008704770477047704710B5040011
:101DB00003D094F83D0010B107E0012010BD0020D1
:101DC00084F83C00204600F01EF8022084F83D0014
:101DD000211D206800F0BCFD012084F8460084F835
:101DE0003E0084F83F0084F8400084F8410084F805
:101DF000420084F8430084F8440084F8450084F8E5
:101E00003D00002010BD704790F83D10012901D021
:101E100001207047022180F83D100168CA6842F035
:101E20000102CA6000681149884214D0B0F1804FA5
:101E300011D00F4988420ED00E4988420BD00E496E
:101E4000884208D00D49884205D00D49884202D009
:101E50000C49884204D1816801F00701062903D0AA
:101E6000016841F00101016000207047000001405D
:101E70000004004000080040000C00400004014045
:101E80000040014000180040704770B504460068EB
:101E900001694FF00005C943890715D4C168C943DA
:101EA000890711D4E91E016101202077206880692B
:101EB0008007204602D0FFF7E7FF04E000F098F823
:101EC000204600F096F8257720680169C943490744
:101ED00017D4C168C943490713D46FF004010161E5
:101EE000022020772068806910F4407F204602D0CD
:101EF000FFF7CAFF04E000F07BF8204600F079F815
:101F0000257720680169C943090716D4C168C94308
:101F1000090712D46FF008010161042020772068BE
:101F2000C0698007204602D0FFF7AEFF04E000F052
:101F30005FF8204600F05DF8257720680169C94305
:101F4000C90617D4C168C943C90613D46FF010017C
:101F50000161082020772068C06910F4407F204686
:101F600002D0FFF791FF04E000F042F8204600F0B5
:101F700040F8257720680169C943C90708D1C168BD
:101F8000C943C90704D1891E0161204600F032F817
:101F900020680169C943090609D4C168C943090613
:101FA00005D46FF0800101612046FFF7FDFE206837
:101FB0000169C943490609D4C168C943490605D422
:101FC0006FF040010161204600F01EF820680169B1
:101FD000C94389060BD4C168C943890607D46FF089
:101FE000200101612046BDE87040FFF7DEBE70BDF4
:101FF0007047704700680349884201D1FFF760B815
:1020000070470000000001407047704770470000B3
:10201000F8B5016804460868CA684B6910F00F0FEC
:102020004FF0000559D003F0010602F490773743D2
:1020300065D0C10705D0D10503D5216C41F0010160
:102040002164410705D5D90703D0216C41F0020175
:102050002164810705D5D90703D0216C41F0040123
:102060002164010707D502F02001314303D0216C20
:1020700041F008012164216C00293AD0800604D582
:10208000900602D5204600F002FD20684069216CD0
:10209000C0F38010090700D460B3204600F0D0FCE4
:1020A00020684069400621D52068143050E8001FA0
:1020B00021F0400140E80012002AF5D1A06BA8B140
:1020C0006C490165A06BFEF752FD002811D0A06B92
:1020D000016D01B0BDE8F040084783060FD59306B7
:1020E0000DD52046BDE8F84000F0D1BC2046FFF7F2
:1020F0008DFFF8BD2046FFF789FF2564F8BD266BEC
:102100002023012E79D1C60677D5D60675D5086865
:10211000486800904869400640D5A16B086840684F
:102120000004000CEAD0A28D8242E7D9E085C8699C
:10213000B0F5807F2DD020680C3050E8001F21F4CE
:10214000807140E80012002AF5D12068143050E870
:10215000001F21F0010140E80012002AF5D120689B
:10216000143050E8001F21F0400140E80012002A1E
:10217000F5D184F83E30256320680C3050E8001F0C
:1021800021F0100140E80012002AF5D1A06BFEF703
:10219000A5FCA08DE18D401A81B229E0A08DE18DD2
:1021A000401A81B2E08D0028A8D00029A6D020686E
:1021B0000C3050E8002F22F4907240E80026002EE8
:1021C000F5D12068143050E8002F22F0010240E8D9
:1021D0000026002EF5D184F83E30256320680C30AF
:1021E00050E8002F22F0100240E80023002BF5D128
:1021F0002046FFF70AFFF8BDFFE705062BD51506B9
:1022000029D594F83D002128F5D1A068B0F5805F6C
:1022100001D12069B0B1206A411C21622168007897
:102220004860E08C401E0004000CE084E3D120688C
:10223000C16821F08001C1602068C16841F040019F
:10224000C160D8E7206A0088C0F308004860206AAF
:10225000801C2062E5E74006CDD55006CBD5CA6884
:10226000204622F04002CA6084F83D3000F00BF9AD
:10227000C1E70000312A000870B5040004D094F8CA
:102280003D00002510B106E0012070BD84F83C50EF
:10229000204600F023F8242084F83D002068C1681F
:1022A00021F40051C160204600F052FC2068016911
:1022B00021F4904101612068416921F02A014161C6
:1022C0002068C16841F40051C1602564202084F871
:1022D0003D0084F83E00002070BD00002DE9F04173
:1022E00086B0064614216846FEF746F95C495B480D
:1022F00033685B4A10390325022700244FF0080891
:1023000083424CD1106840F400201060106800F443
:1023100000200590086840F0010008600868CDE9D9
:10232000005700F00100CDE9048069464D48CDE931
:102330000245FEF7C1FD4D4D4B484FF480684705FF
:102340002860C5E90174C5E903486C61AC61EC61C2
:102350002C6228466C62FEF7EDFC08B1FEF7BCFB70
:10236000B563AE634048424D3030E5E80207402097
:10237000A5E811013E4845F81449AC61EC612C62B6
:102380006C62FEF7D7FC08B1FEF7A6FB756300226E
:1023900005213420AE63FEF725FF342034E0354EAE
:1023A0003548B34235D1136843F480131360126883
:1023B00002F4801205920A6842F004020A600A6878
:1023C00002F0040205920A6842F008020A600968F5
:1023D00002AB01F0080105918114CDE9001783E8F3
:1023E00030016946FEF768FD0420CDE9000702AB25
:1023F000694683E830012148FEF75EFD0022052191
:102400003520FEF7EFFE3520FEF7DEFE06B0BDE814
:10241000F0811B4EB342F9D1136843F4802313605B
:10242000126802F4802205920A6842F004020A60EF
:102430000968029401F0040105914FF44061CDE96F
:1024400000170721CDE903516946FEF735FD00224B
:1024500005212720FEF7C6FE2720D5E7004C0040C7
:10246000403802400000024040600240D007002097
:10247000300800200050004000080240000C0240DC
:102480000048004070477047FEE700002DE9F04328
:1024900087B014216846FEF76FF83C4800240168B5
:1024A00041F080010160016801F08001059101683F
:1024B00041F001010160016801F00101059101682D
:1024C00041F004010160016801F004010591016817
:1024D00041F002010160016801F00201059101680B
:1024E00041F0080101600068294F00F008000590E4
:1024F0000022F0213846FEF7D7FDDFF89890002241
:1025000030214846FEF7D0FDDFF88C8048F21B06EC
:10251000002231464046FEF7C7FDF813CDE900041E
:10252000694638460294FEF7C7FCF020009001256A
:10253000CDE90154694638460394FEF7BDFC3020CE
:102540000090CDE90154694648460394FEF7B4FC77
:102550000096CDE90154694640460394FEF7ACFC71
:10256000402000904FF40410CDE90104694648462C
:10257000FEF7A2FC002205211720FEF733FE1720EC
:10258000FEF722FE07B0BDE8F083000030380240BD
:102590000000024000080240000402400F4810B54D
:1025A0000D4901604FF4827141604FF48061816098
:1025B0000021C1604FF400720161C0E90512C161E0
:1025C0000162416281620A21C162FFF7DBF90028E2
:1025D00001D072B6FEE710BD003800404001002077
:1025E0000B4810B54FF0A041016004214160022268
:1025F0000021C0E90321C0E9062101624162C162F4
:102600000163FEF721FE002801D072B6FEE710BD7F
:1026100064020020FEE7FEE710B5806B01684A689F
:1026200022F003024A60416D41F010014165012131
:1026300080F85110FFF776F910BD10B5806BFFF7E9
:102640001DFB10BD10B5806BFFF7ADFB10BD70B565
:102650000546846BFEF72EFD024628680068C0051B
:1026600026D42068416821F020014160A06818B993
:102670006068B0F5827F16D02068416821F00101C2
:1026800041606421204600F044F808B120206065D4
:102690000020E087012084F85100606D40B12046A1
:1026A000FFF740F970BD2068416821F00301E7E7BA
:1026B0002046FFF78DFA70BD70B50546846BFEF7B6
:1026C000F9FC024628680068C0051ED420684168ED
:1026D00021F0200141606421204600F049F818B142
:1026E000606D40F0200060652068416821F00301C2
:1026F00041600020E086E087012084F85100606D91
:1027000018B12046FFF70EF970BD2046FFF74AFBCF
:1027100070BDF8B5044640684FF48273984221D1E9
:10272000A0684FF48065B0F5004F01D0A8420AD1EF
:102730002068066826F0400606606068984211D15D
:10274000A068A8420ED000920B46002280212046AD
:1027500000F03AF8002804D0606D40F02000606579
:102760000320F8BD00920B4600220121EFE7000094
:1027700038B504461248134B0068B0FBF3F04FF431
:102780007A73584300906068B0F5827F0DD10B4694
:10279000009200228021204600F016F870B1606D92
:1027A00040F020006065032038BD009830B1401E25
:1027B000009020688068C0430006F6D5002038BD30
:1027C0000C00002000366E012DE9F8431E469146AC
:1027D00088460446089DFEF76DFC401B351AFEF73F
:1027E00069FC074625480068C0F3CB30684338E0F1
:1027F000701C37D0FEF75EFCC01BA84203D215B197
:10280000009860B32CE02068416821F0E00141604D
:102810006068B0F5827F0BD1A068B0F5004F02D0A0
:10282000B0F5806F04D12068016821F0400101609B
:10283000A06AB0F5005F09D12068016821F4005159
:1028400001602068016841F400510160012084F8B2
:102850005100002084F850000320BDE8F8830025D3
:10286000401E00902068816838EA010004D00021F1
:102870004945BDD10020F0E70121F9E70C00002017
:1028800010B54FF0E020006902F092FD012803D05E
:10289000BDE8104002F00AB910BD000030B593B099
:1028A00030216846FDF768FE14210CA8FDF764FE90
:1028B0001E480025016841F080510160006800F069
:1028C000805011901A48016841F48041016000680D
:1028D000022400F480401190012000904FF4A020C9
:1028E00001906005CDE906400C200890A820CDE9B4
:1028F000090407200B906846FEF75EFE08B172B629
:10290000FEE70CA90F2081E831004FF4A0500F9092
:102910004FF48050109005210CA8FEF741FD0028CF
:1029200001D072B6FEE713B030BD0000403802405F
:10293000007000400248016841F470010160704776
:1029400088ED00E00148FFF7A0BA000090080020E1
:10295000F0B50268254C264D264E274F274B4FF0E9
:10296000804CA04209D0604507D0A84205D0B042B3
:1029700003D0B84201D0984204D122F0700E4A68C8
:1029800042EA0E02A0421BD0604519D0A84217D0DF
:10299000B04215D0B84213D0984211D0184DA84279
:1029A0000ED0184DA8420BD0174DA84208D0174D95
:1029B000A84205D0164DA84202D0164DA84203D118
:1029C00022F44075CA682A434D6922F080022A43E6
:1029D00002608A68C2620A688262A04201D098429C
:1029E00001D10969016301214161F0BD000001408D
:1029F0000004004000080040000C004000040140BA
:102A000000400140004401400048014000180040DF
:102A1000001C0040002000400148FFF7F9BA000008
:102A2000980100200148FFF7F3BA0000DC01002004
:102A300010B5806B0021C185C184FFF7E7FA10BD96
:102A400001680C3151E8002F22F4907241E8002314
:102A5000002BF5D10168143151E8002F22F001025A
:102A600041E80023002BF5D1016B012909D1016850
:102A70000C3151E8002F22F0100241E80023002B16
:102A8000F5D1202180F83E1000210163704708B580
:102A900090F83E10222901D0022008BD82684FF430
:102AA00080539A4201D1016921B1816A9A421BD0B7
:102AB0004AB10AE00268816A5268C2F308020A80D9
:102AC000816A891C08E0026972B10268526802F0EA
:102AD0007F020A70816A491C8162C18D491E090406
:102AE000090CC18503D019E002685268F1E701685A
:102AF000CA6822F02002CA600168CA6822F48072A3
:102B0000CA6001684A6922F001024A61202180F806
:102B10003E10016B012903D0FFF7B4FC002008BD73
:102B20000021016301680C3151E8002F22F01002EE
:102B300041E80023002BF5D101680A68D20602D5CE
:102B40000A6849680091818DFFF75FFAE6E70000A7
:102B500070B5044600680169E26821F440511143F0
:102B600001612169A068E269084361691143084372
:102B70002168CA6849F20C639A430243CA6020681C
:102B80004169A26921F440711143416131492068D2
:102B9000884202D03049884202D1FEF7CBFC01E0E6
:102BA000FEF7B8FCE2690023192164253226B2F54C
:102BB000004F626828D0A0FB0101930F9200FDF73F
:102BC000C3FB0146B0FBF5F06FF01802504301EB78
:102BD000800006EB0010B0FBF5F000F0F002B1FB56
:102BE000F5F002EB0012B1FBF5F06FF0180358435B
:102BF00001EB800006EB0010B0FBF5F000F00F00D9
:102C000021681044886070BDA0FB010192185B41EF
:102C1000FDF79AFB0146B0FBF5F00201B1FBF5F0C0
:102C20006FF01803584301EB800006EBC000B0FBC7
:102C3000F5F000F0F80002EB4002B1FBF5F058436C
:102C400001EB800006EBC000B0FBF5F000F00700E0
:102C5000D6E7000000100140001401400148FFF7D2
:102C6000D7B900002002002070B5044606990A9EDC
:102C7000049D0D98012916D0E06840F04000E06006
:102C8000204600F02BF8A16B1EB321F48031A16324
:102C9000012D07D1A16841F00601A160A16841F0B2
:102CA0002001A16070BDA16B21F48031A163E168B6
:102CB000094A1140E160E16821F44011E160012816
:102CC00003D1E06840F48010E060204600F006F890
:102CD000DEE741F48031DAE7BFFFBDFF08B500222F
:102CE0000D490092009B5B1C00938B420CD803693A
:102CF000002BF7DA0092026942F001020261009AA9
:102D0000521C00928A4201D9032008BD0269D207F1
:102D1000F5D1002008BD0000400D0300D0F8001ED2
:102D200021F00301C0F8001ED0F8041841F00201A0
:102D3000C0F80418002070472DE9F04F00250E461A
:102D40000446DDF82CC0DDF824B0109F2846294643
:102D500004EB8002C2F80411401C0F28F8D320466F
:102D6000C7B1806B20F40012A263A06B40F4002274
:102D7000A26308468846C4F8000ED4F8001820461E
:102D8000C4F80018BCF1010F16D0D0F8001841F0BB
:102D9000030116E0D0F8040840F00202C4F8042849
:102DA000A06B40F40012A263A06B20F40022A26387
:102DB000A06B20F48022DBE7D0F800180BB141F0C3
:102DC0000101C0F80018102100F094F800B10125AD
:102DD000204600F071F800B101254046C4F8108883
:102DE000C4F81488C4F81C8800214FF000694FF023
:102DF000904A4FF67F3314E004EB4112D2F800C939
:102E0000BCF1000F06DA11B1C2F800A904E0C4F861
:102E1000009901E0C2F80009C2F81009C2F80839A7
:102E2000491C8E42E8D8002115E000BF04EB411296
:102E3000D2F800CBBCF1000F06DA11B1C2F800AB3A
:102E400004E0C4F8009B01E0C2F8000BC2F8100BCC
:102E5000C2F8083B491C8E42E8D8D4F8101821F477
:102E60008072C4F81028A0616FF080406061BBF1EF
:102E7000000F03D1A06940F01000A061A0690949CA
:102E80000843A0610C9818B1A06940F00800A06147
:102E9000012F03D1A06904490843A0612846BDE879
:102EA000F08F000000383C8004000040816821F071
:102EB000010181600020704708B500220C49009292
:102EC000009B5B1C00938B420AD80369002BF7DA46
:102ED000009210220261009A521C00928A4201D98B
:102EE000032008BD0269D206F5D4002008BD000009
:102EF000400D030018B500230D4A0093009C641C8C
:102F0000009494420CD80469002CF7DA0093202333
:102F100043EA811101610099491C0091914201D954
:102F2000032018BD01698906F5D4002018BD0000F2
:102F3000400D030070B50446C068002520F0C04075
:102F4000E060012901D079B120E0E06840F0005054
:102F5000E0600120FDF790FF60696D1C10F0010F2B
:102F600010D1322DF5D30DE0E06840F08040E060F4
:102F70000120FDF781FF60696D1C10F0010F01D089
:102F8000322DF5D3322D01D0002070BD012070BD4F
:102F9000FEE74100080218BF04200A0E18BF40F0E7
:102FA00001004FF07F4232EA010108BF40F0020009
:102FB000012808BF052070470907090E002804DB17
:102FC00000F1E02080F80014704700F00F0000F1DD
:102FD000E02080F8141D704710B510EE100A2DED9A
:102FE000068BB7EE001A10EE901AB0EE418A00225E
:102FF000A0F5000CDFEDFE9A4FF00073BCF1FE4F20
:103000004FF07F4403EB410C80F0B481BCF1804F62
:10301000C0F02082F74901449FEDF73AB1F5005F17
:1030200040F2D48200F58021CB0C03F00F0101EEB9
:10303000901AC3F307137F3BA0EBC350B8EEE12A0D
:1030400000EE100A1A44DFEDED2AF0EE411A42EECE
:10305000221AF0EE613A70EE232A30EE632A12EE65
:10306000900A00F500606FF30B0001EE900A73EE1A
:10307000E13A33EE804AC1EE223A22EE230A10EE04
:10308000100A00F500606FF30B0000EE100A00EE6E
:10309000612A00EE442A62EE232A70EE221A21EE03
:1030A000A12ADFEDD73A02EE233A23EE023A20EED0
:1030B000012A22EE811A03EE211A32EE010A10EEE5
:1030C000100A00F500606FF30B0000EE100A72EEBC
:1030D000401A31EE812A9FEDCB1A60EE011A9FED66
:1030E000CA1A20EE011A9FEDC90A02EE001A31EE4B
:1030F000810A10EE100A00F500606FF30B0000EE7D
:10310000100AC34871EEC01A31EE812A784400EBF0
:10311000C10090ED003AD0ED011A100101EE100A45
:10312000F8EEC12A32EE211A31EE001A31EE031AFE
:1031300031EE221A11EE100A00F500606FF30B0059
:1031400009EE100A39EE621A31EE431A31EE400AE6
:1031500030EE610A32EE40AA10EE900A002100F52E
:1031600000606FF30B0008EE900A084670EEE8AAC4
:103170004FF0000029EE280A00F00C01F0EEC00A22
:1031800010EE900AB0F18B4F0DDD10EE900AB4EB0B
:10319000400F08D310EE100A4FF08B4262F31E006E
:1031A00008EE900A13E069EE2A0A38EEAA1A4AEEEF
:1031B000010A30EE201A11EE100A00F500606FF3DC
:1031C0000B0008EE900A30EE680A70EE209A0C2090
:1031D0004FF0000038EEA90AB5EEC00AF1EE10FA81
:1031E00034BFFEEE000AF6EE000A30EE800ABDEEB5
:1031F000C00A10EE100A011100EE101AF8EEC00A13
:1032000000EE100AB8EEC00A38EEC00A30EE290A05
:10321000DFED801A9FED801A00EE211ADFED7F1A94
:103220007F4900F00F0040EE011A21EE800A794438
:1032300001EB800191ED001A7A49794401EB80019C
:10324000D1ED001A784901EE801A794401EB800033
:10325000764990ED000A31EE001AB0EEE00A10EE69
:10326000100A884215DA10EE100AB4EB400F10D3A2
:103270009FED6F0A30EE800ADFED6E0A20EE200A25
:1032800068EE010ABDEC068BBCEEC00A20EE200AF7
:1032900010BD10EE100A6849884243DA10EE100A99
:1032A000B4EB400F3ED3BDEEE00A68EE010A10EE2B
:1032B000100A00EBD0725110C90501F17E5100EEE9
:1032C000101AA0EB6200C00560EE200A00F17E50EB
:1032D00000EE100A60EE808A18EE900AB4EB400F00
:1032E0000FD10220FDF777F900F0BEF910EE101AA9
:1032F00018EE100ABDEC068B61F31E0000EE100AFA
:1033000010BD18EE900A400011D018EE900AFFF799
:1033100040FE042808BF00F0AFF9B0EE680ABDEC2B
:10332000068B10BDF5EEC00AF1EE10FA0FD20220A6
:10333000FDF751F900F0A0F910EE101A18EE100A7E
:10334000BDEC068B61F31E0000EE100A10BD0220DA
:10335000FDF741F900F088F910EE101AB0EE480AB6
:1033600010EE100ABDEC068B61F31E0000EE100A91
:1033700010BD00BFBCF1804F6CD300BF00F1FF4314
:10338000B3F1FE4F24D200BFB0EEC00A10EE100A17
:10339000C1F3C7537F2B0DDB972BBFF63BAEC3F1B9
:1033A00096034FF0010C0CFA03F3A3F1010C1CEA95
:1033B000010F08D00120FDF70EF9BDEC068BBDE82A
:1033C000104000F049B90B4218BFBFEE008A21E659
:1033D00043001CBF4FF08073B3EB400F34D96FF044
:1033E0001A02DFED161A20EE210A10EE100A27E06D
:1033F00000000000001080C0ABAAAA3E0000803D83
:103400007EE24C3E00B03842D49AB8BB3BAA384268
:1034100038270000FC596337C9FF753A1872313DEF
:10342000D62600000A2700007A2600000000FC4291
:103430000000FE420000004B000040430000004D31
:1034400010F0004FA0D1E5E5A0F50003B3F1FE4F69
:1034500021D2DFE503EB4103B3F1007F11D3F5EE99
:10346000C00AF1EE10FA05D1430018BFB4EB400FCB
:1034700076D883E701F0004141F0FC5100EE901A4C
:103480007CE7B3F1807F06D210EE903AA3F50003FB
:1034900000EE903A72E720F000426FF0FF4C604C73
:1034A00002EB0C03A34210D321F000439C44A4453B
:1034B0000BD3B0F17E5F18BF5FEA410C50D0B2F180
:1034C000FF4F98BFB3F1FF4F05D9BDEC068BBDE8A8
:1034D000104000F0BDB8B0F1FF4F0FD0C1F3C7529C
:1034E0007F2A09DB972A11DAC2F19602012303FA37
:1034F00002F2531E0B4205D0002208E011F0004FEB
:1035000055D128E00A4218BF012200D1022210F54D
:10351000000F13D028B3B0F1004F26D010F1814F27
:103520004FD04FF0FE42B2EB400F94BF012000207D
:10353000012202EBE171884239D10CE011F0004F19
:1035400002D0012A38D032E0012A02BF9FED350AAD
:10355000BDEC068B10BD9FED340ABDEC068B10BD93
:103560002FE011F0004F0CD121E0B1F1FF4F1ED040
:1035700011F5000F05D011F0004F15D00AB1012A46
:1035800008D00220FDF727F8BDEC068BBDE81040FF
:1035900000F054B80220FDF71EF800F04FF8BDEC23
:1035A000068BB1EE400A10BD0AB1012A04D0B0EE7C
:1035B000690ABDEC068B10BDBDEC068B9FED1B0AA6
:1035C00010BDBDEC068BB7EE000A10BD30EE410A0F
:1035D000B5EE001A9FED172A00EE413AB6EE001A3A
:1035E00060EE001A00EE431A61EEC11A9FED101A48
:1035F00020EE011A20EE020A9FED0F2A01EE820A48
:1036000071EE001A11EE900A00F500606FF30B00E6
:1036100009EE100A31EE491A31EE00AA9CE50000CD
:10362000FFFF3F00000080FF0000807F000000805F
:1036300000B0B841D49A38BB3BAAB841DFED030AC9
:10364000B7EE001A81EE200A70470000000000006B
:1036500030EE200A70470000DFED020A80EEA00A7B
:1036600070470000000000009FED020A20EE000AF3
:1036700070470000000000709FED020A20EE000A73
:103680007047000000000010401C80B2202800D3CA
:103690000020704710B50A4C6068401C6060E0680C
:1036A00000280CD101202070064A0021064800F0B5
:1036B00055FAE06008B1022000E00320207010BD40
:1036C0003001002024580008CD360008264CACB04C
:1036D00004202070052506264FF007080A274FF41E
:1036E0007A79A068401CA0602570FDF76DF940B99B
:1036F00026701E48FDF7C0F818B984F80080FDF761
:1037000013F9607038B127701948FDF785F84846FD
:1037100000F042F9E5E708262670A068401CA0608A
:103720006846FDF737F9B0B16F46EFF3108572B612
:10373000AC220F483946AC38FCF7C2FEA02239460D
:103740000C48FCF7BDFE9DF8A800A07005B962B654
:103750000920207000E026700548FDF75DF80A207A
:1037600000F01AF9D9E700003001002040010020E4
:10377000BC570020705600202DE9F0470C46064645
:103780002DED068BAC212046FCF7F6FEB069C4F89F
:10379000A000F069C4F8A40001209FED2B9ADFED92
:1037A0002B9ADFF8AC909FED2BAA84F8A800002597
:1037B000F0EE048AB7EE088A804600BF05EB4500AC
:1037C0003044017842780904807841EA02220243B9
:1037D000100201D542F07F4200EE102A05EB850071
:1037E00004EB8007B8EEC00A44F8202020EE280A37
:1037F00060EE090AC7ED010A30EE880A87ED020A79
:1038000030EE480AC0EE290A10EE900A484502DD63
:10381000F3EE0E0A06E010EE900A0F49884201D935
:10382000FBEE0E0AB2EE040AFFF7D6FB20EE0A0A00
:103830006D1C082D87ED030A87F81080BED3BDEC00
:10384000068BBDE8F087000000000034CDCCCC3EF4
:103850000000F04195BFD6330000F0C1134CB4B066
:103860004FF0FF370126A06818B1394600F0D0F8B4
:1038700015E0012000F090F811E069462BA8FFF751
:103880007BFF6946EFF3108572B6AC220848FCF75F
:1038900017FE2670E068401CE06005B962B62BA8F0
:1038A000FDF734F80028DED1E7E700002001002012
:1038B000C455002008B5FDF70BFCFEF7EFFFFEF73F
:1038C000E5FD30480024016841F400110160006802
:1038D000224600F40010009005210D20FDF782FC27
:1038E0000D20FDF771FC002205210E20FDF77AFC6A
:1038F0000E20FDF769FC002205210F20FDF772FC68
:103900000F20FDF761FCFEF749FE20481E490C25FB
:1039100001604FF49641C0E90114C460C0E9044558
:103920008461C461FEF7A8FC08B172B6FEE71748CF
:10393000174944304FF4E1360160C0E90164C460C6
:10394000C0E904458461C461FEF796FC08B172B613
:10395000FEE70E480F4988300160C0E90164C46089
:10396000C0E904458461C461FEF786FC08B172B603
:10397000FEE7FEF735FE00F01DF8FFF78BFE00F0C6
:103980002BF8FEE730380240004C00409801002040
:10399000005000400048004010B5EFF3058111B120
:1039A0006FF0050403E0002408B100F0D7FE2046C4
:1039B00010BD0000EFF3058010B16FF005007047F7
:1039C0000448016811B14FF0FF30704701210160D8
:1039D000002070476000002010B5EFF3058010B1A3
:1039E0006FF0050010BD08480168012902D04FF0B2
:1039F000FF3010BD054A002182F8141D022101602C
:103A000000F05CFF002010BD600000200BE000E033
:103A1000F8B50D460024211F4E1C002804D000BF1D
:103A2000EFF30582A2B10DB10C461BE000216A46FE
:103A3000009101F021FB012813D1009890B10A49AF
:103A40004FF080500860BFF34F8FBFF36F8F09E0D6
:103A5000294601F05FFB012804D015B16FF0010485
:103A600000E034462046F8BD04ED00E0F8B5144609
:103A700003460E464FF00005EFF3058098BB93B365
:103A80009E423DD84CB1A0680028E06803D0502881
:103A900036D3012002E008B132E00020012B05D02E
:103AA00010B31846A26801F034F820E040B10320BA
:103AB0000090002211460120A36801F06BF804E099
:103AC00003220021012001F044F8050018D086B13E
:103AD00000231A46194601F0D5F8012809D02846D6
:103AE00000F0EEFD00250BE0184600F0F5FF0500A4
:103AF00006D00CB1216800E00021284600F0CCFD82
:103B00002846F8BD38B50024E51E00280BD000BFBC
:103B1000EFF30581A9B100210091694601F0C1F9D7
:103B2000012815D102E06FF0030412E0009880B183
:103B300009494FF080500860BFF34F8FBFF36F8F7C
:103B400007E000231A46194601F09CF8012800D02E
:103B50002C46204638BD000004ED00E02DE9FF4171
:103B60004FEA01034FF00005EFF30581039549BBD0
:103B700040B38027182100244AB3166806B13446A2
:103B800096691EB13146761E382E02D21679F60796
:103B900003D0002004B0BDE8F081566906B1B70833
:103BA000D2F808C0BCF1000F0DD0D5685C2D18D339
:103BB00012693AB136B18DE806103A46214601F055
:103BC000CCFB03900DE0D6685EB912694AB903AA2E
:103BD000CDE90012BAB2214601F092FB012800D0D3
:103BE00003950398D6E700002DE9F041134C0F46EA
:103BF0000546E6682068001D00F050FC681C07D1EF
:103C000037B12168BDE8F0410D48091D00F096BCB0
:103C100020683544B5424560216805D2A06BBDE8F7
:103C2000F041091D00F072BC606B091D00F06EFCD4
:103C3000A06A854200D2A562BDE8F0811000002094
:103C4000C80D00202DE9F041054600F083FC2D4C05
:103C5000A068401CA06020682B4F10B1606930B391
:103C60002BE02560A068012827D1002606EB8600FE
:103C700007EB800000F03CFC761C382EF6D323487E
:103C800000F036FC2148143000F032FC1F48283088
:103C900000F02EFC1D483C3000F02AFC1B48503040
:103CA00000F026FC194860631430A06305E020682A
:103CB000E96AC06A884200D82560606A401C606278
:103CC0006864E86A2169884200D9206100EB8000BD
:103CD00007EB8000291D00F031FC00F05BFC6069FF
:103CE00000280CD02068E96AC06A884207D20849D7
:103CF0004FF080500860BFF34F8FBFF36F8FBDE868
:103D0000F08100001000002018090020780D00202C
:103D100004ED00E038B500F01DFC104C2068C8B977
:103D20000F4800F0E5FB0E48143000F0E1FB0C48B2
:103D3000E060143020610A4B0020F03B009003F15A
:103D4000500210210A2000F025FF206010B105A1CB
:103D500000F0A2FCBDE8384000F01CBC4C00002084
:103D6000CC0E0020546D72510000000030B4026C83
:103D70000B46002A0BD0C1681144C1608468A1427F
:103D800001D30168C16030BC1846FCF754BB30BC9D
:103D900070472DE9F041856B174604460026026CFA
:103DA00082B1C7B1E068FCF746FBE168206C091AF4
:103DB000E1602268914202D2A168081AE060022FF5
:103DC00016D017E02068A8B9A06801F069FB064684
:103DD0000020A0600EE06068FCF72DFB216C60689D
:103DE00008446060A168884204D32068606001E0F4
:103DF00005B16D1E6D1CA5633046BDE8F08110B5A0
:103E0000044690F8590058B101280CD002280FD070
:103E1000502080F31188BFF34F8FBFF36F8FFEE701
:103E2000206B00F0CBFB2046BDE8104000F0C6BB85
:103E300010BD000010484FF47051420706D0C01D5D
:103E40000D4920F00700411AC1F570510B4A0023BB
:103E50000144C2E900030839183A21F00701116052
:103E60004B600B600B1AC0E9001393604FF00040E9
:103E70005360506170470000AC1500207C000020AA
:103E8000144E154CA6F29C474FF08058DFF84C902A
:103E900012E000BF00F05EFBF068C568281D00F06E
:103EA000FDFAA068401EA0606068401E606000F0DF
:103EB00071FB2846FFF7A3FF60680028EAD1386845
:103EC0000128F9D9C9F80080BFF34F8FBFF36F8F76
:103ED000F2E70000B40D00201000002004ED00E027
:103EE00070B51D46049C51B1C4F80020C4E90F010F
:103EF0000121204600F082FE84F84C5070BD246001
:103F0000F4E700002DE9F05F8846DDE90B941546E3
:103F1000834691009A460A9EA522206BFCF702FB7D
:103F20006FF00301206B01EB8501084420F00707C7
:103F3000780707D0502080F31188BFF34F8FBFF36D
:103F40006F8FFEE70025B8F1000F0FD05FF0000083
:103F5000221818F8001082F8341018F8001011B167
:103F6000401C1028F4D384F8435001E084F8345006
:103F7000382E00D33726E662C4E91365201D00F011
:103F8000C2FA04F1180000F0BEFA2461C6F138004C
:103F90006462A061656584F85850524659463846B7
:103FA00000F066FA2060B9F1000F01D0C9F80040B6
:103FB000BDE8F09F30B5114900E011460A68824221
:103FC000FBD34B685C18844203D1406818444860B6
:103FD000084643681C18944209D1084C183C2468D0
:103FE000A24209D052681A4442600A68126802600C
:103FF000814200D0086030BD0460F9E77C000020F9
:1040000070B5002441600B4D0061914206D8D11A71
:104010008269914206D2011D286907E09A4203D2C3
:10402000994201D3012403E0011DE86800F06EFA13
:10403000204670BD4C00002010B5044600F08AFAFE
:10404000A06B28B15FF0000400F0A4FA204610BD78
:104050000124F9E730B589B03C4D6EE004980028A2
:1040600006DADDE90601059A90470498002864DB2A
:10407000069C606910B1201D00F010FA03A800F042
:10408000D7F8024604980A2857D2DFE800F0050561
:10409000052D334A05052D3394F8280040F0010022
:1040A00084F828000599A069059B01442046FFF784
:1040B000A7FF68B3216A2046884794F82800400784
:1040C0003BD5002000900598A169002342181946AD
:1040D000204601F02BFBD8B9502080F31188BFF3A4
:1040E0004F8FBFF36F8FFEE714F8280F20F0010009
:1040F000207022E094F8280040F0010084F82800A5
:104100000598A06128B1811813462046FFF778FF73
:1041100013E0502080F31188BFF34F8FBFF36F8FF0
:10412000FEE794F82800810703D4204600F046FA01
:1041300003E020F0010084F82800002204A9286888
:1041400000F0FEFE002889D109B030BD4C000020EF
:104150002DE9FC410F46054600F0F4FB01A800F0F4
:1041600067F80446019818B101F04EFABDE8FC81E9
:10417000254EAFB130690068D0B30027291B3A46FD
:10418000306800F0C9FA01F03FFA0028EED11F496B
:104190004FF080500860BFF34F8FBFF36F8FE5E79C
:1041A000A542EBD801F030FAF0682746C068C46831
:1041B000201D00F073F994F82800410719D5A06973
:1041C0002B4641193A462046FFF71AFFA8B10020B6
:1041D0000346014600902A46204601F0A7FA60B93E
:1041E000502080F31188BFF34F8FBFF36F8FFEE72E
:1041F00007E020F0010084F82800216A2046884763
:10420000B4E70127BAE700004C00002004ED00E00D
:104210000648416B096829B1416BC968C96849689A
:10422000816270474FF0FF31FAE700001000002074
:1042300070B5054601F0CAF8064E0446B0688442DF
:1042400003D200F009F8012000E000202860204699
:10425000B46070BD4C000020F8B5194D20E0C06876
:10426000C4680668201D00F019F9216A20468847B5
:1042700094F82800400713D5A0693044B04206D90D
:1042800024616060211DE86800F040F908E000202A
:104290000346014600903246204601F047FA38B105
:1042A000E86801680029DAD12969C5E90310F8BD79
:1042B000502080F31188BFF34F8FBFF36F8FFEE75D
:1042C0004C00002008484068401C4FF0500080F32C
:1042D000118804D0BFF34F8FBFF36F8FFEE7BFF39A
:1042E0004F8FBFF36F8FFEE784000020074CE0681C
:1042F000016841B1C0680021D0F80000FFF728FF35
:10430000FFF7A8FEF3E701210020F7E74C000020AB
:104310002DE9F041044600F01DF994F9455004F1EF
:10432000240609E0606A48B1304601F035F908B169
:1043300000F042FA6D1E6DB2002DF3DC4FF0FF3637
:1043400084F8456000F026F900F004F994F944502F
:1043500004F1100709E0206948B1384601F01CF962
:1043600008B100F029FA6D1E6DB2002DF3DC84F85F
:104370004460BDE8F04100F00DB900002DE9F041C6
:104380000546002700F0DEFA324E306808B9FFF724
:1043900051FD706905424ED1C5B3083568070ED08E
:1043A00005F00700C0F108000544680707D0502059
:1043B00080F31188BFF34F8FBFF36F8FFEE72DB3EC
:1043C0007068854237D82348183001460C6801E0F0
:1043D00020460C466168A94202D221680029F7D123
:1043E00031688C4227D0076821680160606808370F
:1043F000411B10290FD96019420708D0502080F3C3
:104400001188BFF34F8FBFF36F8FFEE713E041605A
:104410006560FFF7CFFD61687068401A7060B26830
:10442000904200D2B060706901430020C4E90001ED
:10443000F068401CF06001F0E7F8780707D05020E2
:1044400080F31188BFF34F8FBFF36F8FFEE73846BD
:10445000BDE8F081640000200449086818B10868CC
:10446000026D521C026508687047000010000020B1
:1044700010B5031F4FF080741C601B1F21F0010159
:104480001960191F044B0B6014390A60091F6FF083
:10449000020244380A6010BDC5420008D0E901326A
:1044A00001699A60D0E901235A604A68824201D1C9
:1044B00082684A60002202610868401E086008683D
:1044C00070470000034B036003F15C00086080202C
:1044D00010607047F40E0020044B036003F15C0091
:1044E00008604FF480701060704700005011002089
:1044F00000F108014FF0FF32C0E90112C160016113
:1045000000210160704700210161704730B50B68E0
:104510005A1C02D000F1080202E0026904E02246BF
:10452000546825689D42FAD953684B6099608A6047
:10453000516008610168491C016030BD42684A60F1
:1045400093688B6093685960916008610168491CA9
:1045500001607047502080F31188BFF34F8FBFF385
:104560006F8F0A494868401C486001280CD10848F0
:10457000006810F0FF0F07D0502080F31188BFF3C0
:104580004F8FBFF36F8FFEE770470000840000205D
:1045900004ED00E00849486828B1401E486001D198
:1045A00080F311887047502080F31188BFF34F8F3C
:1045B000BFF36F8FFEE700008400002070B5002875
:1045C0002AD0164DA0F1080460686969084207D135
:1045D000502080F31188BFF34F8FBFF36F8FFEE73A
:1045E00022683AB1502080F31188BFF34F8FBFF398
:1045F0006F8FFEE78843606000F0A4F96068696827
:10460000084468602046FFF7D5FC2869401C2861F3
:10461000BDE8704000F0F8BF70BD000064000020ED
:104620004FF0E02000210161816105494FF47A7269
:104630000968B1FBF2F1491E416107210161704730
:104640000C00002010B5FBF75BFE114910280ED3BB
:1046500000F1E02090F8F0030A78904207D2502051
:1046600080F31188BFF34F8FBFF36F8FFEE70948C8
:104670000068896800F4E060884207D9502080F320
:104680001188BFF34F8FBFF36F8FFEE710BD00009F
:10469000840000200CED00E010B5084B002200BFA4
:1046A00053F832401CB1521C082AF9D310BD43F80C
:1046B000321003EBC201486010BD0000D808002092
:1046C00010B504000AD000F013F894F84600002852
:1046D0000CD12046BDE81040FFF770BF502080F39A
:1046E0001188BFF34F8FBFF36F8FFEE710BD00003F
:1046F000084A002102EBC1035B68834206D1002017
:1047000042F8310002EBC10148607047491C08299A
:10471000F0D37047D808002070B515460E46044601
:10472000FFF718FF94F944100020491C01D184F8C8
:10473000440094F94510491C01D184F84500FFF765
:1047400029FFA06B28B92A46314604F1240000F065
:1047500051F82046BDE87040FFF7DABD10B5020001
:1047600014D00F48006B38B1502080F31188BFF38C
:104770004F8FBFF36F8FFEE700F0E4F80021104683
:10478000FFF732FA00F040FF002807D105494FF04B
:1047900080500860BFF34F8FBFF36F8F10BD0000D4
:1047A0001000002004ED00E002490A6A0260C968B6
:1047B000416070471000002001490120C861704726
:1047C0001000002010B50C4650B109490968183195
:1047D000FFF79CFE2046BDE810400121FFF704BA18
:1047E000502080F31188BFF34F8FBFF36F8FFEE728
:1047F0001000002070B514460D4668B10A490968DA
:104800001831FFF79BFE0CB14FF0FF3521462846CB
:10481000BDE87040FFF7E8B9502080F31188BFF37E
:104820004F8FBFF36F8FFEE71000002070B50400BC
:104830003ED0226DA2B1E06C884200D30146E06A0E
:10484000884235D0012A33D11A4D2A6894420FD1BB
:10485000502080F31188BFF34F8FBFF36F8FFEE7B7
:10486000502080F31188BFF34F8FBFF36F8FFEE7A7
:10487000E162A269002A02DBC1F13801A1610E4E9A
:1048800000EB8000616906EB8000814210D1201DA1
:10489000FFF704FEE06A2969884200D9286100EB2D
:1048A000800006EB8000211DBDE87040FFF746BE8A
:1048B00070BD0000100000201809002030B587B03E
:1048C0000024039405AA04A903A80494FFF7FAFDA1
:1048D000DDE903010094CDE90110002315A117487B
:1048E000059A00F03AFD164D0028E8621FD000F04E
:1048F000EDFE012809D0401C19D1502080F3118809
:10490000BFF34F8FBFF36F8FFEE7502080F3118806
:10491000BFF34F8FBFF36F8F4FF0FF30A8620120BE
:104920006861EC6007B0BDE8304000F045B807B002
:1049300030BD000049444C4500000000813E0008A5
:10494000100000200248016B491C01637047000001
:1049500010000020164810B5016B11B10121C16192
:1049600010BD0021C1610169124A01E0B9B1491EBF
:1049700001EB810352F82330002BF7D001EB8103C8
:1049800002EB830202F1080453685B685360A342A0
:1049900001D15B685360DA680260016110BD50208C
:1049A00080F31188BFF34F8FBFF36F8FFEE70000D6
:1049B00010000020180900201CB537480168374A4C
:1049C000914207D1502080F31188BFF34F8FBFF37E
:1049D0006F8FFEE700683149491E884207D1502099
:1049E00080F31188BFF34F8FBFF36F8FFEE72C4921
:1049F00008780190FF20087008788DF800009DF875
:104A000000009DF8002000F0F000904207D05020F8
:104A100080F31188BFF34F8FBFF36F8FFEE79DF8D0
:104A20000000204C00F0500020700720A06005E03E
:104A30009DF8002052008DF80020401E9DF80020B7
:104A40001206F5D4A060032807D0502080F3118807
:104A5000BFF34F8FBFF36F8FFEE74FF44070A0603E
:104A6000019808700C482030016841F47001016021
:104A7000016841F070410160FFF7D2FD00206060E5
:104A8000FBF706FC0848016841F040410160FBF774
:104A9000EBFB00201CBD000000ED00E071C20F41E7
:104AA00000E400E08400002034EF00E010B5502066
:104AB00080F31188BFF34F8FBFF36F8F00F08CFC32
:104AC00018B104494FF080500860002080F311882D
:104AD00010BD000004ED00E010B50C4648B1844262
:104AE0000FD9502080F31188BFF34F8FBFF36F8F22
:104AF000FEE7502080F31188BFF34F8FBFF36F8F15
:104B0000FEE70222002100F024F8002800D0846390
:104B100010BD38B50C4648B184420FD9502080F3FF
:104B20001188BFF34F8FBFF36F8FFEE7502080F3E4
:104B30001188BFF34F8FBFF36F8FFEE7022113463B
:104B400000220091114600F025F8002800D084636F
:104B500038BDF8B517460E46050013D005FB06F024
:104B60005030FFF70BFC04000AD0002084F8460008
:104B700004F150023B46314628460094FFF7B0F955
:104B80002046F8BD502080F31188BFF34F8FBFF34C
:104B90006F8FFEE738B5049D18B153B1CAB181B12A
:104BA00020E0502080F31188BFF34F8FBFF36F8F49
:104BB000FEE7502080F31188BFF34F8FBFF36F8F54
:104BC000FEE7502080F31188BFF34F8FBFF36F8F44
:104BD000FEE739B1502080F31188BFF34F8FBFF348
:104BE0006F8FFEE750241C46012384F846302B4685
:104BF0000094FFF775F9204638BD000070B50D46EA
:104C0000040025D0FFF7A6FCD4E90F20216802FBA1
:104C10000011A1600021A163216861600A46D4E906
:104C20000F01401E00FB0121E16021464FF0FF30E3
:104C300001F8440F487004F110008DB1FFF758FCE3
:104C400004F12400FFF754FCFFF7A4FC012070BD21
:104C5000502080F31188BFF34F8FBFF36F8FFEE7B3
:104C600021690029F0D000F097FC0028ECD004491D
:104C70004FF080500860BFF34F8FBFF36F8FE3E7B3
:104C800004ED00E02DE9FF4782B01D468A464FF053
:104C90000008040003D0BAF1000F08D011E0502042
:104CA00080F31188BFF34F8FBFF36F8FFEE7206C47
:104CB00038B1502080F31188BFF34F8FBFF36F8F4F
:104CC000FEE7022D0AD1E06B012807D0502080F3C7
:104CD0001188BFF34F8FBFF36F8FFEE700F068FBC3
:104CE0003F4F4FF000094FF0805648B9049838B153
:104CF000502080F31188BFF34F8FBFF36F8FFEE713
:104D0000FFF728FCA06BE16B884207D3022D05D08A
:104D10000498D0B1B8F1000F1AD01EE02A465146CF
:104D20002046FFF736F8616A19B104F1240000F05B
:104D300033FC20B13E60BFF34F8FBFF36F8FFFF79F
:104D400029FC012006B0BDE8F087FFF723FC22E034
:104D50006846FFF729FD4FF00108FFF71BFCFFF73E
:104D6000F1FDFFF7F7FB94F94400401C01D184F8F2
:104D7000449094F94500401C01D184F84590FFF718
:104D800009FC04A9684600F081FA30B12046FFF71B
:104D9000BFFA00F039FC0020D4E7FFF7DBFBA06B83
:104DA000E16B884213D1FFF7F5FB04F11000049981
:104DB000FFF708FD2046FFF7ABFA00F025FC0028BE
:104DC0009ED13E60BFF34F8FBFF36F8F98E7FFF721
:104DD000E1FB2046FFF79CFA00F016FC90E700008C
:104DE00004ED00E02DE9F0471F4690468946040097
:104DF00003D0B9F1000F08D011E0502080F31188E2
:104E0000BFF34F8FBFF36F8FFEE7206C38B1502098
:104E100080F31188BFF34F8FBFF36F8FFEE7022F30
:104E20000AD1E06B012807D0502080F31188BFF32E
:104E30004F8FBFF36F8FFEE7FFF704FC5020EFF3B7
:104E4000118680F31188BFF34F8FBFF36F8FA06B74
:104E5000E16B884206D3022F04D0002086F311882C
:104E6000BDE8F08794F94550A06B3A464946204684
:104E7000FEF78FFF681C04D06D1C84F8455001209C
:104E8000ECE7606A0028FAD004F1240000F084FB0B
:104E90000028F4D0B8F1000FF1D00121C8F80010BB
:104EA000EDE770B50E46040009D0206C78B15020B3
:104EB00080F31188BFF34F8FBFF36F8FFEE7502051
:104EC00080F31188BFF34F8FBFF36F8FFEE7206829
:104ED00048B9A06838B1502080F31188BFF34F8FD4
:104EE000BFF36F8FFEE7FFF7ADFB5020EFF31185A7
:104EF00080F31188BFF34F8FBFF36F8FA16BE06B0F
:104F0000884218D994F94500491CA163411C04D07A
:104F1000401C84F8450001200EE0606A0028FAD0A9
:104F200004F1240000F038FB0028F4D0002EF2D069
:104F300001203060EFE7002085F3118870BD00008C
:104F40002DE9F747002683B08A46040003D0BAF162
:104F5000000F08D011E0502080F31188BFF34F8F6D
:104F6000BFF36F8FFEE7206C38B1502080F31188BB
:104F7000BFF34F8FBFF36F8FFEE700F019FADFF832
:104F8000F4804FF000094FF0805748B9059838B1C8
:104F9000502080F31188BFF34F8FBFF36F8FFEE770
:104FA000FFF7D8FAA56BC5B151462046FEF7DEFEE5
:104FB0006D1EA563206950B104F1100000F0ECFAF9
:104FC00028B1C8F80070BFF34F8FBFF36F8FFFF7A2
:104FD000E1FA012006B0BDE8F087059808B11EB1DE
:104FE00006E0FFF7D7FA27E06846FFF7DDFB01266A
:104FF000FFF7D0FAFFF7A6FCFFF7ACFA94F94400EC
:10500000401C01D184F8449094F94500401C01D122
:1050100084F84590FFF7BEFA05A9684600F036F916
:10502000002820460AD0FFF773F900F0EDFA204679
:10503000FFF702F80028B3D00020CBE7FEF7FCFF13
:1050400090B104F124000599FFF7BCFB2046FFF75F
:105050005FF900F0D9FA0028A2D1C8F80070BFF3B8
:105060004F8FBFF36F8F9BE72046FFF751F900F09A
:10507000CBFA95E704ED00E02DE9F047904689462C
:10508000040003D0B9F1000F08D011E0502080F3E4
:105090001188BFF34F8FBFF36F8FFEE7206C38B1DD
:1050A000502080F31188BFF34F8FBFF36F8FFEE75F
:1050B000FFF7C8FA5020EFF3118680F31188BFF391
:1050C0004F8FBFF36F8FA76BF7B194F944504946E8
:1050D0002046FEF74BFE7F1EA763681C04D06D1CA4
:1050E00084F84450012010E020690028FAD004F12F
:1050F000100000F051FA0028F4D0B8F1000FF1D000
:105100000121C8F80010EDE7002086F31188BDE802
:10511000F08700002DE9F343002683B004003546F4
:1051200009D0206C78B1502080F31188BFF34F8FE5
:10513000BFF36F8FFEE7502080F31188BFF34F8FCE
:10514000BFF36F8FFEE700F033F9DFF83C814FF0DB
:1051500000094FF0805748B9049838B1502080F3C7
:105160001188BFF34F8FBFF36F8FFEE7FFF7F2F9A0
:10517000A06BC8B1401EA063206810B9FFF76CF99E
:10518000A060206950B104F1100000F005FA28B1C8
:10519000C8F80070BFF34F8FBFF36F8FFFF7FAF9B6
:1051A000012005B0BDE8F083049808B166B10FE0B6
:1051B0003DB1502080F31188BFF34F8FBFF36F8F45
:1051C000FEE7FFF7E7F95DE06846FFF7EDFA012635
:1051D000FFF7E0F9FFF7B6FBFFF7BCF994F94400DD
:1051E000401C01D184F8449094F94500401C01D141
:1051F00084F84590FFF7CEF904A9684600F046F818
:105200000028204612D0FFF783F800F0FDF9204671
:10521000FEF712FF0028A9D09DB3FFF79BF9606A43
:1052200050B3206B0068C0F1380126E0FEF704FFA0
:10523000E0B1206838B9FFF78DF9A06800F070F987
:105240000546FFF7A7F904F124000499FFF7BAFA1D
:105250002046FFF75DF800F0D7F9002886D1C8F89E
:105260000070BFF34F8FBFF36F8F7FE72046FFF7CC
:105270004FF800F0C9F979E70021A068FFF7D6FAE6
:105280009FE7FFE700208CE704ED00E02DE9F04107
:105290000C46050011D0C4B1FFF75CF9174BDA6872
:1052A0006E682068911B471C17D02F681B6A9F42AD
:1052B00019D0964217D8012410E0502080F31188AD
:1052C000BFF34F8FBFF36F8FFEE7502080F311883D
:1052D000BFF34F8FBFF36F8FFEE70024FFF75AF93C
:1052E0002046BDE8F081884205D9401A2060284652
:1052F000FFF75AFAF1E700202060DCE710000020F9
:105300002DE9FF5F8346DDE90E87994616468A46FA
:105310009000FFF733F805001CD05C20FFF72EF853
:10532000040014D00020256384F85900CDE9024020
:10533000CDE900874B46324651465846FEF7E2FD1E
:105340002046FEF77FFC012004B0BDE8F09F284610
:10535000FFF734F94FF0FF30F6E7F0B585B0DDE93F
:105360000B640A9DA6B1DCB15C2700972663022678
:1053700084F85960002604AFCDE90246CDE9005714
:10538000FEF7C0FD2046FEF75DFC049805B0F0BDB9
:10539000502080F31188BFF34F8FBFF36F8FFEE76C
:1053A000502080F31188BFF34F8FBFF36F8FFEE75C
:1053B0000548416919B1006B18B100207047012000
:1053C0007047022070470000100000200148C068AC
:1053D00070470000100000202DE9F0412E4C0027FE
:1053E000206B28B1A069401CA0613846BDE8F0815F
:1053F000E668761CE66013D1606B006838B1502017
:1054000080F31188BFF34F8FBFF36F8FFEE7606BA0
:10541000A16B6163A063206A401C2062FEF7F8FE66
:10542000A06ADFF87880864209D3606B0068A0B17B
:10543000606BC068C5686868864211D2A062206847
:10544000C06A00EB800158F82100012800D901272B
:10545000E0690028C9D00127C7E74FF0FF30EDE72A
:10546000281DFFF71BF8A86A18B105F11800FFF70F
:1054700015F8E86A2169884200D9206100EB8001B3
:1054800008EB8100291DFFF759F8E86A2168C96A0D
:105490008842CAD30127C8E710000020180900205D
:1054A00070B504004FF0000133D01B4D28688442D2
:1054B00007D0502080F31188BFF34F8FBFF36F8F59
:1054C000FEE7206D38B1401E2065E36CE26A9A4227
:1054D0001FD040B11DE0502080F31188BFF34F8FE3
:1054E000BFF36F8FFEE7201DFEF7D8FFE06CE06290
:1054F000C0F13800A061E06A2969884200D92861BA
:10550000064900EB800001EB8000211DFFF716F833
:105510000121084670BD000010000020180900207D
:1055200070B504004FF000002BD0194DE16A2A68D5
:10553000D26A914226D2A069002804DB2868C06A9A
:10554000C0F13800A061134E01EB8101606906EBE8
:105550008101884211D1201DFEF7A0FF2868C06A92
:10556000E0622969884200D9286100EB800006EBDF
:105570008000211DFEF7E2FF02E02868C06AE062B9
:10558000012070BDE16C2A68D26A9142F8D370BDE7
:10559000100000201809002070B5C068C46854B11C
:1055A00004F118000646FEF779FF144D286B50B140
:1055B0003146134815E0502080F31188BFF34F8F18
:1055C000BFF36F8FFEE7201DFEF768FFE06A2969D1
:1055D000884200D928610B4900EB800001EB800074
:1055E000211DFEF7ABFFE06A2968C96A884202D92B
:1055F0000120E86170BD002070BD00001000002097
:10560000A00D0020180900202DE9F0472C4D0024A2
:105610002746286B38B1FEF79DFF286B401E286394
:10562000286B40B146E0502080F31188BFF34F8FC4
:10563000BFF36F8FFEE7A968224E0120D1B3A6F514
:10564000916980463068E0B1F068C46804F11800E0
:10565000FEF724FF201DFEF721FFE06A296988423A
:1056600000D9286100EB800109EB8100211DFEF7C4
:1056700065FFE06A2968C96A8842E3D3C5F81C80DF
:10568000E0E70CB1FEF7C4FDAC694CB14FEA080687
:10569000FFF7A2FE00B1EE61641EF9D10020A861FF
:1056A000E86938B10849012738070860BFF34F8F10
:1056B000BFF36F8FFEF76EFF3846BDE8F08700003E
:1056C00010000020A00D002004ED00E010B586B011
:1056D000FEF720FB114C2068B8B100200390049025
:1056E00005AA04A903A8FEF7F7FEDDE903210220BD
:1056F0008DE8070000230AA10B48059AFFF72DFE4D
:10570000606010B106B0012010BD502080F31188F8
:10571000BFF34F8FBFF36F8FFEE700004C000020F8
:10572000546D722053766300ED4200082DE9FF416D
:105730001E46134602000A9D4FF0000016D0144C7E
:105740002768002F0FD0CDE900130292062917DA3F
:10575000FFF72EFE02284FF000030FD0002269460B
:105760002068FFF78FFA04B0BDE8F081502080F385
:105770001188BFF34F8FBFF36F8FFEE72A46EEE726
:105780000023324669463846FFF72CFBEBE7000062
:105790004C0000204FF04070E1EE100A7047000608
:1057A00010160006101600000000000000000102A4
:1057B00003040607080900000000010203040000BA
:1057C0000000024010000000000002402000000025
:1057D0000000024040000000000002408000000085
:1057E00000080240100000000008024020000000F5
:1057F000000402400100000000040240020000001A
:1058000088590008000000000000000000000000AF
:105810000000000000080000200000000000000060
:105820000000000094590008000000000000000083
:10583000000000000000000000060000180000004A
:105840000000000000000000000000000000000058
:105850000000B33FB2BE7D3A00002E40DFCF51388A
:1058600000007E40BF51FABA00E0A44019DAC3BA82
:1058700000E0C840C2ED8AB90040EB40CD1F2CBA11
:10588000001006412AFFFABA00C01541DFCFD13718
:1058900000D024419A97703A0050334189478E36A0
:1058A00000404141E75B9D3800B04E41C00A98B9C5
:1058B00000A05B41558F943A00306841DA92C0BA3B
:1058C0000040744162B3C63A0000803F00A0853FAB
:1058D00000908B3F00C0913F0030983F00F09E3F0A
:1058E00000F0A53F0050AD3F0000B53F0000BD3FB8
:1058F0000060C53F0020CE3F0040D73F00C0E03FE2
:1059000000C0EA3F0020F53F000000007D36AC39C2
:105910007D3C3839EBDCF438320A7E39124C2639BA
:105920009B6AED39A4EE83397F661E39F6398A39D0
:105930002B426539A48211395B991F39C3EECD39E9
:10594000DDE7C637A5A22F390000803FC3AA853FF7
:10595000C2958B3FD3C3913FF037983F32F59E3FBE
:10596000D7FEA53F3F58AD3FF304B53FA408BD3F68
:105970002A67C53F8C24CE3FFD44D73FDFCCE03FB4
:10598000C7C0EA3F7D25F53F6164635F756E706156
:10599000636B00006164635F7461736B00000000FF
:1059A000C05900080000002040010000C4010008A8
:1059B000D059000840010020205D000000020008CE
:1059C00042019210037A24F405A6AAAAAAAAF20117
:040000050800018965
:00000001FF
