:020000040800F2
:10000000285F00202903000847230008B5210008C5
:10001000452300085D0A0008592A00080000000076
:10002000000000000000000000000000690200085D
:10003000290B000800000000C50200084923000841
:100040004303000843030008430300084303000878
:100050004303000843030008430300084303000868
:100060004303000843030008430300084303000858
:1000700043030008610A00086D0A0008790A0008B5
:100080004303000843030008430300084303000838
:100090004303000843030008430300082B0B000838
:1000A000430300080D24000843030008430300082D
:1000B0004303000843030008430300084303000808
:1000C00043030008430300084303000843030008F8
:1000D00043030008430300084303000825270008E2
:1000E00043030008430300084303000843030008D8
:1000F00043030008430300084303000843030008C8
:1001000043030008430300084303000843030008B7
:10011000E1240008ED24000843030008430300081D
:100120004303000843030008430300084303000897
:100130004303000800000000000000004303000823
:100140004303000843030008430300084303000877
:100150004303000843030008430300084303000867
:100160004303000843030008430300084303000857
:1001700043030008430300080000000000000000E3
:10018000430300084303000800F002F800F05CF8A5
:100190000AA090E8000C82448344AAF10107DA45E2
:1001A00001D100F051F8AFF2090EBAE80F0013F0D8
:1001B000010F18BFFB1A43F001031847304D000030
:1001C000504D00000A444FF0000C10F8013B13F0B2
:1001D000070408BF10F8014B1D1108BF10F8015BA0
:1001E000641E05D010F8016B641E01F8016BF9D193
:1001F00013F0080F1EBF10F8014BAD1C0C1B09D1EA
:100200006D1E58BF01F801CBFAD505E014F8016B5B
:1002100001F8016B6D1EF9D59142D6D370470000ED
:100220000023002400250026103A28BF78C1FBD8FF
:10023000520728BF30C148BF0B6070471FB504F09C
:10024000EFFD1FBD10B510BD00F0D0F91146FFF74E
:10025000F5FF02F063FE00F0EEF903B4FFF7F2FFE2
:1002600003BC00F0F5F900002C4B19680868B0E8F1
:10027000F04F80F30988BFF36F8F4FF0000080F3D9
:10028000118870470000000008480068006880F38B
:1002900008884FF0000080F3148862B661B6BFF39F
:1002A0004F8FBFF36F8F00DF00BF00BF08ED00E08E
:1002B000DFF80C00016841F470010160704700BF75
:1002C00088ED00E0EFF30980BFF36F8F134B1A68DE
:1002D0001EF0100F08BF20ED108A20E9F04F1060CB
:1002E00009B44FF0500080F31188BFF34F8FBFF374
:1002F0006F8F03F075FE4FF0000080F3118809BC8A
:1003000019680868B0E8F04F1EF0100F08BFB0EC95
:10031000108A80F30988BFF36F8F704710000020A8
:10032000EFF30580704700000948804709480047FF
:10033000FEE7FEE7FEE7FEE7FEE7FEE7FEE7FEE795
:10034000FEE7FEE704480549054A064B70470000F2
:10035000FD2300088901000828590020285F00209B
:10036000285B0020285B002053EA020C00F0698023
:100370002DE9F04B4FF00006002B1FBFB3FA83F5B9
:1003800003FA05F424FA05F65E4012BF1643B2FAEA
:1003900082F502FA05F4C5F120051EBF22FA05FC1C
:1003A00044EA0C04203556EA044C4FEA144418BFC2
:1003B000641C4FF000084FF00009904271EB030CF1
:1003C00039D3002919BFB1FA81F701FA07F6B0FA5B
:1003D00080F700FA07F6C7F120071EBF20FA07FCD6
:1003E00046EA0C062037B6FBF4FCA7EB0507103FE6
:1003F00007F01F0BCBF120060CFA0BFB2CFA06F6CC
:1004000044BFB3460026202FA4BF5E464FF0000B2A
:100410005BEA060C08BF4FF0010B19EB0B09ABFBB5
:10042000027C48EB0608C01B06FB02CC0BFB03CC8E
:1004300071EB0C01C1E70B46024641464846BDE858
:10044000F08B13B54FF000004FF00001AFF30080C8
:10045000BDE81C407047032A40F2308010F0030CC6
:1004600000F0158011F8013BBCF1020F624498BF07
:1004700011F801CB00F8013B38BF11F8013BA2F1A4
:10048000040298BF00F801CB38BF00F8013B11F01F
:10049000030300F02580083AC0F0088051F8043BBF
:1004A000083A51F804CBA0E80810F5E7121D5CBF2C
:1004B00051F8043B40F8043BAFF30080D20724BF5F
:1004C00011F8013B11F801CB48BF11F8012B24BFF3
:1004D00000F8013B00F801CB48BF00F8012B704742
:1004E00010B5203AC0F00B80B1E81850203AA0E8CF
:1004F0001850B1E81850A0E81850BFF4F5AF5FEA03
:10050000027C24BFB1E81850A0E8185044BF18C9B5
:1005100018C0BDE810405FEA827C24BF51F8043B5C
:1005200040F8043B08BF7047D20728BF31F8023BB0
:1005300048BF11F8012B28BF20F8023B48BF00F844
:10054000012B704702F0FF0343EA032242EA024212
:1005500000F002B84FF000020429C0F0128010F041
:10056000030C00F01B80CCF1040CBCF1020F18BF8F
:1005700000F8012BA8BF20F8022BA1EB0C0100F022
:100580000DB85FEAC17C24BF00F8012B00F8012BF5
:1005900048BF00F8012B70474FF0000200B513462A
:1005A00094469646203922BFA0E80C50A0E80C5093
:1005B000B1F12001BFF4F7AF090728BFA0E80C5044
:1005C00048BF0CC05DF804EB890028BF40F8042B3D
:1005D00008BF704748BF20F8022B11F0804F18BFAA
:1005E00000F8012B7047704770477047754600F060
:1005F0002BF8AE4605006946534620F007008546B5
:1006000018B020B5FFF79EFEBDE820404FF0000671
:100610004FF000074FF000084FF0000B21F00701EA
:10062000AC46ACE8C009ACE8C009ACE8C009ACE82D
:10063000C0098D46704710B50446AFF300802046D0
:10064000BDE81040FFF709BE00487047C4580020BD
:1006500001491820ABBEFEE72600020070470000EB
:1006600070B548B1EFF3108472B60D4D29886A88D1
:10067000914206D114B102E0022070BD62B604209E
:1006800070BD08496A8801EB42112022FFF728FF5C
:10069000688802F0F2F9688004B962B6002070BD83
:1006A00090000020E05100202DE9F0479146884657
:1006B00007000AD0104C208802F0DFF96188054657
:1006C000884204D10520BDE8F0870220FBE70B4EED
:1006D0002088182206EB40103946FFF7BCFE21881F
:1006E00006EB4111C1F81880218806EB4111C1F8D1
:1006F0001C9025800020E6E790000020E0510020BB
:10070000EFF3108072B60021034A11805180002857
:1007100000D162B6704700009000002070B54028FC
:100720001CD1214C2078002818D06068002815D0F2
:100730002169491C21612169E165617879B1A06A6B
:10074000401CA062206B401C2063606B401C6063F7
:10075000A06AE066206B6067606BA06770BDC16CCB
:10076000B9B1012060706069401C606160692066F9
:1007700002F02CFA05460146606802F087FA002D67
:10078000ECD000206070E06A401CE062E06A206704
:1007900070BDE16A491CE162E16A2167BDE8704011
:1007A000012102F073BA0000940000202DE9F0410D
:1007B00000240B4E0746012505FA04F0384201D00B
:1007C000012200E0002206EBC400818856F83400C4
:1007D00000F096FC641C082CEED3BDE8F08100000C
:1007E0004C4E000803488068002801D002F0BEBCCF
:1007F000704700004401002070B5040032D01A4D4B
:10080000686818B1E96BC9B202F040FAEFF31080E2
:1008100072B62969216069696160A969A160E969A5
:10082000E160296A2161696A6161A96AA161E96A75
:10083000E161296B2162696B6162A96BA162E96B5D
:10084000E162296C2163696C6163A96CA163E96C45
:10085000E163297884F84010697884F84110002811
:1008600000D162B670BD00009400002070B518B1D0
:10087000264A0168914201D0022070BD244C60607C
:10088000002020706070A060E06020616061A06165
:10089000E06120626062A062E06220636063A06346
:1008A000E06320646064A064E06420656065A06526
:1008B000E06520666066A066E06620676067A06706
:1008C000E06704F1800528606860A860E86028613E
:1008D0006861A861E86128626862A862E86218211C
:1008E0000C48FFF737FE0B4818211830FFF732FE8F
:1008F000FFF706FF0122D103074800F001FCE06882
:1009000028600020FFF752FF002070BD0038004033
:1009100094000020E05500200004024010B5FFF7CD
:100920009FFE002807D104490A6A521C0A62096A1C
:10093000014A8032916010BD9400002010B50B4C2C
:10094000606880B1002020706070FFF7D9FEFF2042
:10095000FFF72CFF0A2000F0BBFA00F009F8012095
:100960002070002010BD012010BD00009400002068
:1009700070B50C4D4FF4004400222146284600F08B
:10098000BFFB012000F0A4FA01222146284600F016
:10099000B7FB05488021C160C06803498031086009
:1009A00070BD0000000402409400002070B50500F6
:1009B0000CD00948007848B1EFF3108472B6AC222D
:1009C00006492846FFF78CFD14B102E0002070BDF7
:1009D00062B695F8A80070BD4401002010560020B2
:1009E00010B5194C606858BBAC211848FFF7D4FD0E
:1009F00000202070E0602061606114481821AC3054
:100A0000FFF7CAFD11482021C430FFF7C5FD0F488C
:100A10002021E430FFF7C0FD20210D48FFF7BCFD89
:100A2000A06830B900221146202002F053FBA060DC
:100A300040B1084A0021084802F0C4FB606008B1D8
:100A4000002010BD012010BD4401002010560020E0
:100A5000145700208C4E0008B92E0008FEE7000055
:100A6000014800F0C3B8000004080020014800F06D
:100A7000BDB80000A4070020014800F0B7B800008E
:100A80006408002001681823CAB2103AB2FBF3F2DE
:100A9000054B6FF30901032A9B5CC36500D9091D4F
:100AA00081650846704700002A4E000810B50146CF
:100AB00000208B698A6A4FF0C07453B1B3F5005FB0
:100AC00015D072B1012A0CD0022A0AD0032A09D10A
:100AD00004E01AB1012A06D0022A03D1C96AC90169
:100AE00000D5012010BDC96AA142FAD010BD002A6C
:100AF000F7D0012AF2D0022AF3D0032AF3D010BD96
:100B000030B50468256825F4802525600468636095
:100B10008368402B036803D099600068C26030BDD1
:100B20009A600068C16030BD7047402000F0E4B9B1
:100B300072B6FEE72DE9F0410446876D00F0E6FA53
:100B4000064694F835000025022806D0802060650E
:100B500084F834500120BDE8F0812068016821F05C
:100B6000160101602068416921F080014161206C1B
:100B700008B9A06C20B12068016821F0080101606B
:100B80002068016821F0010101600CE000F0BEFA6C
:100B9000801B052807D920206065032084F83500D4
:100BA00084F83450D7E720680068C007EED194F885
:100BB0005C103F208840B860012084F8350084F83C
:100BC00034500020C7E790F83510022903D0802167
:100BD000416501207047052180F8351000680168E3
:100BE00021F0010101600020704700002DE9F84369
:100BF00004464FF00009CDF8009063484FF41651B9
:100C0000A56D0068B0FBF1F72E6894F85C10082021
:100C100000FA01F131420FD021680A6852070BD562
:100C20000A6822F004020A6094F85C108840A86008
:100C3000606D40F00100606594F85C104FF00108B1
:100C400008FA01F0304208D021684969090604D544
:100C5000A860606D40F00200606594F85C100420AC
:100C60008840304208D021680968890704D5A86007
:100C7000606D40F00400606594F85C1010208840BE
:100C8000304218D021680968090714D5A860206887
:100C90000168490304D50068000308D5A16C07E08A
:100CA0000168C90503D4016821F008010160216CC5
:100CB00009B12046884794F85C10202088403042D3
:100CC00031D021680968C9062DD5A86094F835008F
:100CD00005282068016806D0490347D5006800034D
:100CE0001DD4616C1CE021F016010160206841698F
:100CF00021F080014161206C08B9A06C20B120680E
:100D0000016821F00801016094F85C103F208840E0
:100D1000A86084F8358084F83490216D1FE0E16B81
:100D200009B120468847606D00282BD0606DC00750
:100D300014D0052084F835002068016821F00101F5
:100D400001600098401C0090B84203D820680068F9
:100D5000C007F6D184F8358084F83490E16C00291E
:100D600010D001B02046BDE8F04308470168C9052E
:100D7000D5D4016821F01001016084F8358084F831
:100D80003490CCE7BDE8F8830C0000202DE9F04159
:100D9000044600F0BBF906465CB1022084F8350039
:100DA000002584F834502068016821F001010160B9
:100DB0000DE00120BDE8F08100F0A8F9801B0528B6
:100DC00005D920206065032084F83500F2E720680B
:100DD0000068C007F0D12268116820480140D4E9BA
:100DE00001031843D4E903363343184363691843B6
:100DF000A3691843E3691843236A18430843616AE7
:100E0000042903D1D4E90B13194308431060206867
:100E10004069666A20F0070130460E430127042826
:100E20000CD1A06A0643E06A40B12046FFF73EFEBF
:100E300020B14020606584F83570BAE720684661CB
:100E40002046FFF71FFE94F85C203F21914081600F
:100E5000656584F835700020ACE700003F8010F035
:100E60002DE9F0410446866D90F8340000250128F4
:100E70000DD0012084F8340094F835700020012F43
:100E800007D084F8340002252846BDE8F08102200E
:100E9000FBE7022784F8357060652046FFF730FED7
:100EA00094F85C103F208840B0602068016841F0F1
:100EB00016010160206C20B12068016841F0080132
:100EC00001602068016841F001010160DCE7000079
:100ED00070B5044600F01AF90546601C02D00448BB
:100EE0000078044400F012F9401BA042FAD370BD10
:100EF00000000020FFF712BC044910B50A68024246
:100F000002D00860FFF7F6FF10BD0000143C01405E
:100F10002DE9F84FDFF8BCA10022012503264FF090
:100F20000F090AF1040BAAF1040E00BF0B6805FAC1
:100F300002F42340A34270D10F7907F00307012F79
:100F400001D0022F16D187684FEA420806FA08FC42
:100F500027EA0C07D1F80CC00CFA08FC4CEA070C85
:100F6000C0F808C04768A7430C79C4F30014944044
:100F70003C4344600C79E443A4070AD0C4684FEAB8
:100F8000420C06FA0CF7BC438F6807FA0CF72743AC
:100F9000C7600C7904F00304022C12D1D40800EBD2
:100FA000840CDCF820405707FF0E09FA07F824EA02
:100FB0000804D1F8108008FA07F848EA0408CCF8C9
:100FC000208004684FEA420C06FA0CF7BC430F7904
:100FD00007F0030707FA0CF7274307604C6814F47F
:100FE000403F70D03C4C276847F480472760246816
:100FF00022F0030704F480440094384C07EB040CFF
:10100000DCF8084897074FEA177809FA08F7BC4355
:10101000334FB84202D1002724E054E0314FB842A8
:1010200001D101271EE0304FB84201D1022719E05B
:101030002E4FB84201D1032714E02D4FB84201D101
:1010400004270FE02B4FB84201D105270AE02A4FB1
:10105000B84201D1062705E0284FB84201D1072741
:1010600000E0082707FA08F72743CCF80878DAF8F1
:1010700000405746D1F804C09C435FEACC2C00D511
:101080001C433C60DBF800405F46D1F804C09C4341
:101090005FEA8C2C00D51C433C60DEF800407746AC
:1010A000D1F804C09C435FEA8C3C00D51C433C60F3
:1010B000084F083F3C68D1F804C09C435FEACC3C31
:1010C00000D51C433C60521C102AFFF42FAFBDE832
:1010D000F88F0000083C01404438024000300140D5
:1010E000000002400004024000080240000C0240E0
:1010F000001002400014024000180240001C024090
:101100000AB1816170470904FBE70000014880686B
:1011100070470000000000200248816802781144F6
:1011200081607047000000200B4810B5016841F451
:1011300000710160016841F480610160016841F45F
:1011400080710160032000F099F80F2000F006F88C
:1011500000F04AF8002010BD003C024030B50546C2
:101160001C4887B00024016841F00101016000685B
:1011700006A900F00100009001A800F0D7F900F0E6
:1011800005FA15494000B0FBF1F11548134A491E14
:10119000026040F2E732C0E90324C0E9011484612F
:1011A00000F09AFC040012D10D4800F0C3FC0400CA
:1011B0000DD1192000F034F8102D07D20022294655
:1011C000192000F03BF80748056000E0012407B053
:1011D000204630BD4438024040420F00000001402C
:1011E000C4080020040000200C4882B0016841F4CB
:1011F00080410160006800F4804000900748001FB3
:10120000016841F0805101600068002200F08050C8
:1012100000900F21901E02B000F010B84438024038
:10122000002809DB00F01F020121914040098000E5
:1012300000F1E020C0F8001170470000F0B40E4B40
:101240001B680C46C3F30223C3F10705042D00D924
:101250000425191D072901D2002300E0DB1E012609
:1012600006FA05F1491E214099409E40761E16401F
:101270003143F0BC01F0F1BB0CED00E0064900F099
:10128000070208684FF6FF03184040EA0220034AAD
:1012900010430860704700000CED00E00000FA0504
:1012A0002DE9F0418AB0040005D094F8BD04266809
:1012B000002520B108E001200AB0BDE8F08184F8E3
:1012C000BC54204600F05EF8032084F8BD04F06BA7
:1012D000C00500D42561206801F04CFB04F1100129
:1012E000282288466846FFF7FBF894E80F0001F0D3
:1012F0001FFA0226C8BB0021206801F07FFB0020F6
:1013000001270EE000EBC00104EB810181F83D7084
:1013100001F83C0F08810D71CD600D61401CC0B219
:101320008D6161688142EDD8002011E000EBC001C1
:1013300004EB810181F87D5281F87C0281F88052B2
:10134000C1F88852C1F88C52401CC0B2C1F8945206
:1013500061688142EAD8282241466846FFF7C0F812
:1013600094E80F0001F04CFA10B184F8BD64A2E7D4
:1013700084F8385084F8BD74206801F033FA0020F6
:101380009AE7000010B586B0044614216846FFF7BE
:1013900003F92068B0F1A04F27D115480021026859
:1013A00042F001020260006800F0010005904FF475
:1013B000C05000900220CDE90101032003900A20D3
:1013C000049069460B48FFF7A3FD0948001D01681A
:1013D00041F08001016006481430016841F4804109
:1013E0000160006800F48040059006B010BD000068
:1013F00030380240000002402DE9F0470E4605005B
:1014000065D0DFF81481D8F80000F7B200F00700CB
:10141000B04207D288F80070D8F8000000F007004A
:10142000B04254D128683D4C810712D5400703D5FE
:10143000206840F4E05020602878000703D5206839
:1014400040F4604020602068A96820F0F000084364
:1014500020602878C0072DD03049686808390128F5
:1014600012D0022813D0032811D009688907002957
:101470002DDA216821F0030101432160FFF746FEC8
:10148000814641F2883A0EE009688903EFE709686E
:101490008901ECE7FFF73AFEA0EB0901514502D9BB
:1014A0000320BDE8F0872068696800F00C00B0EB0D
:1014B000810FEFD1D8F80010404601F00701B1428A
:1014C00007D90770006800F00700B04201D0012082
:1014D000E7E72878400705D52068E96820F4E05060
:1014E000084320602878000706D52068296920F481
:1014F000604040EAC100206000F058F82168084AC6
:10150000C1F30311515CC8400649086006480068F1
:10151000FFF724FE0020C4E7003C024008380240E8
:10152000324E00080C000020040000200F22026050
:101530000C4A136803F003034360136803F0F003DD
:101540008360136803F4E053C36012684FF4E05300
:1015500003EAD20202610448006800F00700086054
:101560007047000008380240003C0240044805492A
:1015700000680968044AC1F38221515CC840704781
:101580000C00002008380240424E0008044805497B
:1015900000680968044AC1F34231515CC840704791
:1015A0000C00002008380240424E0008154810B5D3
:1015B000006810F00C02144813D01449042A0FD00C
:1015C000082A0ED10F4C241F2268236802F03F0224
:1015D0005B0207D52068C0F38810A0FB010106E07C
:1015E000084610BD2168C1F38811A1FB000100234A
:1015F000FEF7BAFE2168C1F30141491C4900B0FB66
:10160000F1F010BD083802400024F40000366E01ED
:101610002DE9F84F04006ED02078DFF84C93C00716
:10162000A9F104054AD009F104000168C1F3810160
:10163000012908D00068C0F3810002280AD1D9F836
:101640000000400206D52868800337D5606800286E
:10165000E1D033E06068B0F5803F10D0B0F5A02F46
:10166000286810D020F480302860286820F480207A
:1016700028606068A8B1FFF749FD06460DE02868BC
:1016800040F48030F4E740F480202860F7E700BFA2
:10169000FFF73CFD801B642873D828688003F7D5CA
:1016A0000CE0FFF733FD064605E000BFFFF72EFD17
:1016B000801B6428F0D828688003F7D42078DFF8EE
:1016C000AC8280074FF0000A3ED5A748001D016894
:1016D00011F00C0F08D00068C0F3810002280BD174
:1016E000D9F80000400207D42868800716D5E068C2
:1016F000012800D112E033E1E068B8B10120C8F858
:101700000000FFF703FD064605E000BFFFF7FEFC03
:10171000801B0228C0D828688007F7D5286821696F
:1017200020F0F80040EAC10028600DE0C8F800A0F1
:10173000FFF7ECFC064604E0FFF7E8FC801B0228FC
:101740001FD828688007F7D42078000722D5864F55
:1017500087486169703771B101210160FFF7D6FCDC
:10176000064604E0FFF7D2FC801B022809D838683F
:101770008007F7D50EE0C0F800A0FFF7C7FC0646CB
:1017800005E082E0FFF7C2FC801B02287DD83868A4
:101790008007F7D42078400768D5DFF8CCB1002760
:1017A0000BF13C0BDBF80000C0000BD4DBF80010A1
:1017B00041F08051CBF80010DBF80000012700F069
:1017C000805000906B4E3068C00510D4306840F4F3
:1017D00080703060FFF79AFC009005E0FFF796FC00
:1017E0000099401A022850D83068C005F6D55E4EE0
:1017F000A0686C3601280FD00528306810D020F082
:1018000001003060306820F004003060A068B8B19A
:10181000FFF77CFC00900FE0306840F00100F4E737
:1018200040F004003060F7E7FFF770FC0099411AC0
:1018300041F28830814266D830688007F4D50EE0E6
:10184000FFF764FC009007E0FFF760FC0099411A85
:1018500041F28830814256D830688007F4D42FB1E5
:10186000DBF8001021F08051CBF80010A069C8B35C
:101870003D49091D0968C1F3810102294AD00228A6
:10188000504607D0C8F8600000E03CE0FFF73EFC9F
:1018900004463BE04746C8F86000FFF737FC0646C1
:1018A00005E000BFFFF732FC801B02282BD8286818
:1018B0008001F7D4D4E907010843A16A2E4A4908F8
:1018C00002EB0141626A41EA8211084394F82C104C
:1018D00040EA0161C9F8001001203866FFF716FCE4
:1018E000044606E03EE000BFFFF710FC001B0228A4
:1018F00009D828688001F7D534E000BFFFF706FC5F
:10190000001B022802D90320BDE8F88F2868800157
:10191000F4D427E00128F7D0D9F80000E26900F4F8
:10192000800191421CD1226A00F03F01914217D1FF
:1019300047F6C071626A0140B1EB821F10D1A26A02
:101940004FF0FF3300F4403103EB5202B1EB024F92
:1019500006D194F82C1000F07060B0EB016F01D04C
:101960000120D1E70020CFE70438024000004742C1
:10197000800E4742007000400000FFFF70B5040079
:1019800009D0606A002540B125616561A56294F8BF
:10199000510040B10CE0012070BD6068B0F5827F5D
:1019A000F4D0E561F2E784F85050204600F044F8A6
:1019B000022084F851002068016821F04001016094
:1019C000A088218900F4827001F404410843A189B0
:1019D00001F400610843217C01F002010843217DEC
:1019E00001F001010843218B01F400710843217FBC
:1019F00001F03801084394F8201001F080010843F9
:101A0000218D01F40051084321680860A069042178
:101A100001EA104094F8241001F0100108432168F5
:101A200048602068C16921F40061C16165650120D9
:101A300084F85100002070BD70B586B006461421B0
:101A40006846FEF7A9FD1E493068884236D11D4818
:101A50000025016841F480410160006800F4804085
:101A6000059018481038016841F0020101600068D3
:101A7000694600F0020005904FF4C040009002203B
:101A8000CDE9010503200390052004900E48FFF7DF
:101A90003FFA0F4C0D48C4E900050015A560C4E9E4
:101AA00003506561A561E561256220466562FFF727
:101AB0006DF908B1FFF73CF8F464A66306B070BD99
:101AC00000380040403802400004024058600240A4
:101AD000A40700207047704710B5040003D094F8A5
:101AE0003D0010B107E0012010BD002084F83C004B
:101AF000204600F01EF8022084F83D00211D2068D9
:101B000000F08AFC012084F8460084F83E0084F846
:101B10003F0084F8400084F8410084F8420084F8D3
:101B2000430084F8440084F8450084F83D00002018
:101B300010BD704790F83D10012901D00120704779
:101B4000022180F83D100168CA6842F00102CA60B3
:101B500000681149884214D0B0F1804F11D00F496C
:101B600088420ED00E4988420BD00E49884208D0D8
:101B70000D49884205D00D49884202D00C4988425F
:101B800004D1816801F00701062903D0016841F002
:101B90000101016000207047000001400004004086
:101BA00000080040000C00400004014000400140DB
:101BB00000180040704770B50446006801694FF096
:101BC0000005C943890715D4C168C943890711D4E1
:101BD000E91E016101202077206880698007204686
:101BE00002D0FFF7E7FF04E000F098F8204600F08D
:101BF00096F8257720680169C943490717D4C16859
:101C0000C943490713D46FF0040101610220207712
:101C10002068806910F4407F204602D0FFF7CAFF99
:101C200004E000F07BF8204600F079F82577206882
:101C30000169C943090716D4C168C943090712D409
:101C40006FF008010161042020772068C0698007D7
:101C5000204602D0FFF7AEFF04E000F05FF8204618
:101C600000F05DF8257720680169C943C90617D4DB
:101C7000C168C943C90613D46FF01001016108207F
:101C800020772068C06910F4407F204602D0FFF71B
:101C900091FF04E000F042F8204600F040F825777C
:101CA00020680169C943C90708D1C168C943C90788
:101CB00004D1891E0161204600F032F820680169D4
:101CC000C943090609D4C168C943090605D46FF0A0
:101CD000800101612046FFF7FDFE20680169C943CC
:101CE000490609D4C168C943490605D46FF04001CB
:101CF0000161204600F01EF820680169C943890689
:101D00000BD4C168C943890607D46FF02001016173
:101D10002046BDE87040FFF7DEBE70BD70477047DB
:101D200000680349884201D1FFF7F6B97047000007
:101D3000000001407047704770470000F8B5016827
:101D400004460868CA684B6910F00F0F4FF0000591
:101D500059D003F0010602F49077374365D0C107EC
:101D600005D0D10503D5216C41F001012164410763
:101D700005D5D90703D0216C41F002012164810708
:101D800005D5D90703D0216C41F004012164010776
:101D900007D502F02001314303D0216C41F0080146
:101DA0002164216C00293AD0800604D5900602D522
:101DB000204600F0D0FB20684069216CC0F3801001
:101DC000090700D460B3204600F09EFB20684069FC
:101DD000400621D52068143050E8001F21F0400152
:101DE00040E80012002AF5D1A06BA8B16C4901654A
:101DF000A06BFEF7E8FE002811D0A06B016D01B0CA
:101E0000BDE8F040084783060FD593060DD5204660
:101E1000BDE8F84000F09FBB2046FFF78DFFF8BDFE
:101E20002046FFF789FF2564F8BD266B2023012E8D
:101E300079D1C60677D5D60675D50868486800906A
:101E40004869400640D5A16B086840680004000C52
:101E5000EAD0A28D8242E7D9E085C869B0F5807FDB
:101E60002DD020680C3050E8001F21F4807140E82C
:101E70000012002AF5D12068143050E8001F21F02C
:101E8000010140E80012002AF5D12068143050E822
:101E9000001F21F0400140E80012002AF5D184F82B
:101EA0003E30256320680C3050E8001F21F01001FF
:101EB00040E80012002AF5D1A06BFEF73BFEA08D92
:101EC000E18D401A81B229E0A08DE18D401A81B2E6
:101ED000E08D0028A8D00029A6D020680C3050E85A
:101EE000002F22F4907240E80026002EF5D12068E1
:101EF000143050E8002F22F0010240E80026002EA6
:101F0000F5D184F83E30256320680C3050E8002F6E
:101F100022F0100240E80023002BF5D12046FFF705
:101F20000AFFF8BDFFE705062BD5150629D594F85D
:101F30003D002128F5D1A068B0F5805F01D120696E
:101F4000B0B1206A411C2162216800784860E08CB1
:101F5000401E0004000CE084E3D12068C16821F039
:101F60008001C1602068C16841F04001C160D8E7CC
:101F7000206A0088C0F308004860206A801C206244
:101F8000E5E74006CDD55006CBD5CA68204622F0FD
:101F90004002CA6084F83D3000F00BF9C1E7000050
:101FA000F924000870B5040004D094F83D00002521
:101FB00010B106E0012070BD84F83C50204600F0CE
:101FC00023F8242084F83D002068C16821F40051E2
:101FD000C160204600F020FB2068016921F4904197
:101FE00001612068416921F02A0141612068C168CE
:101FF00041F40051C1602564202084F83D0084F83C
:102000003E00002070BD00002DE9F04186B006467C
:1020100014216846FEF7C0FA5C495B4833685B4AA6
:1020200010390325022700244FF0080883424CD1C1
:10203000106840F400201060106800F40020059043
:10204000086840F0010008600868CDE9005700F01A
:102050000100CDE9048069464D48CDE90245FEF70F
:1020600057FF4D4D4B484FF4806847052860C5E940
:102070000174C5E903486C61AC61EC612C622846CF
:102080006C62FEF783FE08B1FEF752FDB563AE63E6
:102090004048424D3030E5E802074020A5E81101F4
:1020A0003E4845F81449AC61EC612C626C62FEF765
:1020B0006DFE08B1FEF73CFD75630022052134205A
:1020C000AE63FFF7BBF8342034E0354E3548B342F9
:1020D00035D1136843F480131360126802F4801240
:1020E00005920A6842F004020A600A6802F00402DB
:1020F00005920A6842F008020A60096802AB01F022
:10210000080105918114CDE9001783E83001694683
:10211000FEF7FEFE0420CDE9000702AB694683E826
:1021200030012148FEF7F4FE002205213520FFF79B
:1021300085F83520FFF774F806B0BDE8F0811B4E36
:10214000B342F9D1136843F480231360126802F498
:10215000802205920A6842F004020A60096802942B
:1021600001F0040105914FF44061CDE9001707210A
:10217000CDE903516946FEF7CBFE00220521272059
:10218000FFF75CF82720D5E7004C004040380240BC
:102190000000024040600240040800206408002063
:1021A0000050004000080240000C0240004800407F
:1021B00070477047FEE700002DE9F04387B0142117
:1021C0006846FEF7E9F93C480024016841F08001C7
:1021D0000160016801F080010591016841F0010191
:1021E0000160016801F001010591016841F00401FD
:1021F0000160016801F004010591016841F00201EC
:102200000160016801F002010591016841F00801D7
:1022100001600068294F00F0080005900022F021BD
:102220003846FEF76DFFDFF89890002230214846CF
:10223000FEF766FFDFF88C8048F21B06002231466D
:102240004046FEF75DFFF813CDE9000469463846C5
:102250000294FEF75DFEF02000900125CDE90154C7
:10226000694638460394FEF753FE30200090CDE9CE
:102270000154694648460394FEF74AFE0096CDE9AC
:102280000154694640460394FEF742FE4020009008
:102290004FF40410CDE9010469464846FEF738FEC4
:1022A000002205211720FEF7C9FF1720FEF7B8FF0F
:1022B00007B0BDE8F0830000303802400000024063
:1022C0000008024000040240104810B50E490160A9
:1022D0004FF4827141604FF4806181600021C160E0
:1022E0004FF400720161C0E905120822C0E907211C
:1022F000416281620A21C162FFF740FB002801D0E0
:1023000072B6FEE710BD00000038004074010020E6
:102310000B4810B54FF0A04101600421416002223A
:102320000021C0E90321C0E9062101624162C162C6
:102330000163FEF7B5FF002801D072B6FEE710BDBD
:1023400098020020FEE7FEE710B54FF0E02000699C
:1023500002F074FB012803D0BDE8104001F0ECBE90
:1023600010BD000030B593B030216846FEF714F977
:1023700014210CA8FEF710F91E480025016841F051
:1023800080510160006800F0805011901A48016887
:1023900041F4804101600068022400F48040119003
:1023A000012000904FF4A02001906005CDE9064087
:1023B0000C200890D820099004200A9009200B9046
:1023C0006846FFF725F908B172B6FEE70CA90F20A1
:1023D00081E831004FF4A0500F904FF480501090DE
:1023E00003210CA8FFF708F8002801D072B6FEE719
:1023F00013B030BD40380240007000400248016810
:1024000041F470010160704788ED00E00148FFF77A
:10241000D2BB0000C4080020F0B50268254C264D50
:10242000264E274F274B4FF0804CA04209D06045E5
:1024300007D0A84205D0B04203D0B84201D098429C
:1024400004D122F0700E4A6842EA0E02A0421BD06C
:10245000604519D0A84217D0B04215D0B84213D069
:10246000984211D0184DA8420ED0184DA8420BD05A
:10247000174DA84208D0174DA84205D0164DA842C6
:1024800002D0164DA84203D122F44075CA682A43EF
:102490004D6922F080022A4302608A68C2620A689B
:1024A0008262A04201D0984201D1096901630121F1
:1024B0004161F0BD00000140000400400008004000
:1024C000000C004000040140004001400044014075
:1024D0000048014000180040001C0040002000405F
:1024E0000148FFF72BBC0000CC0100200148FFF79A
:1024F00025BC00001002002010B5806B0021C185B2
:10250000C184FFF719FC10BD01680C3151E8002FA0
:1025100022F4907241E80023002BF5D101681431B8
:1025200051E8002F22F0010241E80023002BF5D1F1
:10253000016B012909D101680C3151E8002F22F00B
:10254000100241E80023002BF5D1202180F83E1035
:1025500000210163704708B590F83E10222901D090
:10256000022008BD82684FF480539A4201D101696C
:1025700021B1816A9A421BD04AB10AE00268816A9D
:102580005268C2F308020A80816A891C08E0026965
:1025900072B10268526802F07F020A70816A491CB7
:1025A0008162C18D491E0904090CC18503D019E05F
:1025B00002685268F1E70168CA6822F02002CA6026
:1025C0000168CA6822F48072CA6001684A6922F010
:1025D00001024A61202180F83E10016B012903D0DD
:1025E000FFF7E6FD002008BD0021016301680C3102
:1025F00051E8002F22F0100241E80023002BF5D112
:1026000001680A68D20602D50A6849680091818D7E
:10261000FFF791FBE6E7000070B50446006801692A
:10262000E26821F44051114301612169A068E26927
:1026300008436169114308432168CA6849F20C6381
:102640009A430243CA6020684169A26921F440713B
:102650001143416131492068884202D030498842A3
:1026600002D1FEF793FF01E0FEF780FFE26900234D
:10267000192164253226B2F5004F626828D0A0FBEC
:102680000101930F9200FDF76FFE0146B0FBF5F0DC
:102690006FF01802504301EB800006EB0010B0FB16
:1026A000F5F000F0F002B1FBF5F002EB0012B1FB27
:1026B000F5F06FF01803584301EB800006EB0010B3
:1026C000B0FBF5F000F00F0021681044886070BD89
:1026D000A0FB010192185B41FDF746FE0146B0FBED
:1026E000F5F00201B1FBF5F06FF01803584301EB70
:1026F000800006EBC000B0FBF5F000F0F80002EB44
:102700004002B1FBF5F0584301EB800006EBC0003E
:10271000B0FBF5F000F00700D6E700000010014024
:10272000001401400148FFF709BB000054020020DB
:1027300070B5044606990A9E049D0D98012916D08D
:10274000E06840F04000E060204600F02BF8A16B0C
:102750001EB321F48031A163012D07D1A16841F09E
:102760000601A160A16841F02001A16070BDA16BCC
:1027700021F48031A163E168094A1140E160E16818
:1027800021F44011E160012803D1E06840F4801099
:10279000E060204600F006F8DEE741F48031DAE739
:1027A000BFFFBDFF08B500220D490092009B5B1CD6
:1027B00000938B420CD80369002BF7DA0092026970
:1027C00042F001020261009A521C00928A4201D931
:1027D000032008BD0269D207F5D1002008BD000022
:1027E000400D0300D0F8001E21F00301C0F8001EC8
:1027F000D0F8041841F00201C0F804180020704716
:102800002DE9F04F00250E460446DDF82CC0DDF81A
:1028100024B0109F2846294604EB8002C2F8041118
:10282000401C0F28F8D32046C7B1806B20F400125B
:10283000A263A06B40F40022A26308468846C4F855
:10284000000ED4F800182046C4F80018BCF1010F9F
:1028500016D0D0F8001841F0030116E0D0F80408B3
:1028600040F00202C4F80428A06B40F40012A263F6
:10287000A06B20F40022A263A06B20F48022DBE78F
:10288000D0F800180BB141F00101C0F80018102178
:1028900000F094F800B10125204600F071F800B175
:1028A00001254046C4F81088C4F81488C4F81C8870
:1028B00000214FF000694FF0904A4FF67F3314E04B
:1028C00004EB4112D2F800C9BCF1000F06DA11B1D5
:1028D000C2F800A904E0C4F8009901E0C2F80009B8
:1028E000C2F81009C2F80839491C8E42E8D8002104
:1028F00015E000BF04EB4112D2F800CBBCF1000F91
:1029000006DA11B1C2F800AB04E0C4F8009B01E0A4
:10291000C2F8000BC2F8100BC2F8083B491C8E42EB
:10292000E8D8D4F8101821F48072C4F81028A061F7
:102930006FF080406061BBF1000F03D1A06940F0EF
:102940001000A061A06909490843A0610C9818B162
:10295000A06940F00800A061012F03D1A0690449DB
:102960000843A0612846BDE8F08F000000383C8095
:1029700004000040816821F001018160002070475F
:1029800008B500220C490092009B5B1C00938B420F
:102990000AD80369002BF7DA009210220261009A2C
:1029A000521C00928A4201D9032008BD0269D20656
:1029B000F5D4002008BD0000400D030018B5002329
:1029C0000D4A0093009C641C009494420CD8046946
:1029D000002CF7DA0093202343EA8111016100996A
:1029E000491C0091914201D9032018BD0169890653
:1029F000F5D4002018BD0000400D030070B504465A
:102A0000C068002520F0C040E060012901D079B104
:102A100020E0E06840F00050E0600120FEF758FA46
:102A200060696D1C10F0010F10D1322DF5D30DE04F
:102A3000E06840F08040E0600120FEF749FA6069FC
:102A40006D1C10F0010F01D0322DF5D3322D01D0C5
:102A5000002070BD012070BDFEE70907090E0028A7
:102A600004DB00F1E02080F80014704700F00F0054
:102A700000F1E02080F8141D7047401C80B220282F
:102A800000D30020704700000449806B496800298A
:102A900003D0884201D100F037B87047940000207D
:102AA000184918B44A68806B002A29D0904227D16F
:102AB0000268536823F0010353600268536823F0EF
:102AC000200353600268136823F040031360026818
:102AD0000023D46892680092012280F851204B7044
:102AE000CA6A521CCA62CA6A0A678A6E521C8A661D
:102AF000416D41F01001416518BC012100F0C6B8DC
:102B000018BC70479400002038B501684A6822F06C
:102B100001024A6001684A6822F020024A600168A6
:102B20000A6822F040020A6002680021D3689268B5
:102B30000092C187012280F85120214C6170A16967
:102B4000491CA161A1696166002100F09FF8A0689D
:102B500004F18005401CE8601A49182201F11800B0
:102B6000FDF779FC18480068400604D5606B401CEE
:102B70006063606BA067E06850B1E068401EE06091
:102B8000A06B401CA063A06BE067E068286038BDC4
:102B9000A068401CA060FEF7B9FAA1680246094887
:102BA000FDF782FD18B1606A401C606238BDE069C3
:102BB000401CE061E0696860FDF714FE38BD00006C
:102BC00094000020E0550020143C014038B52B4C07
:102BD000606838B1C16C29B190F85110012903D057
:102BE000022038BD012038BD01680A6822F0400289
:102BF0000A6001684A6822F003024A600268002104
:102C0000D36892680092042280F8512041651C4AE2
:102C1000826318228287C2870164416401638186CE
:102C2000C186C26C1164C36C164ADA63C36C164A5F
:102C3000DA64C26C182311650168C06C104A0C314B
:102C4000FEF70EF940B16168012281F851204A6D0A
:102C500042F010024A6538BD606801684A6842F077
:102C600020024A6001684A6842F001024A60006836
:102C7000016841F040010160002038BD940000204F
:102C8000E0550020892A0008A12A0008174A10B53B
:102C9000D16390F851101164416D5164C16C4FF0D3
:102CA000FF33002901D04C6D00E01C46946401D034
:102CB00009684B68D36400688168116501685165D3
:102CC00040689065D16B094800F180000161116C8A
:102CD0004161516C8161916CC161D16C0162116D76
:102CE0004162516D8162916DC16210BD94000020FE
:102CF00010B50A4C6068401C6060606900280CD107
:102D000001202070064A0021064800F05BFA60614D
:102D100008B1022000E00320207010BD5C010020FB
:102D2000B04E0008292D0008284CACB004202070BB
:102D3000052506264FF007080A274FF47A79A06880
:102D4000401CA0602570FDF74BFE40B9267020485E
:102D5000FDF78CFD18B984F80080FDF7EFFD607079
:102D600038B127701B48FDF747FD484600F048F989
:102D7000E5E708262670A068401CA0606846FDF7BD
:102D800015FED8B16F46EFF3108572B6AC2211482C
:102D90003946AC38FDF7A4FBA02239460E48FDF7B2
:102DA0009FFB9DF8A800A070E068401CE060289898
:102DB000206105B962B60920207000E02670054840
:102DC000FDF71AFD0A2000F01BF9D4E75C01002092
:102DD0007401002080580020345700202DE9F0476E
:102DE0000E4607460024AC213046FDF7D5FBB869F6
:102DF000C6F8A000F869C6F8A400012586F8A85016
:102E0000182239462848FDF76BFBDFF89CC0DFED40
:102E1000271A0CF1180C9FED262A0CF1200800212E
:102E2000B0EE041A08F1200901EB4100C219107834
:102E30005378000440EA032093781843030201D535
:102E400040F07F4000EE100A01EB8103B8EEC00AAB
:102E500046F8230006EB830320EE010A20EE210A48
:102E600083ED010A71EE400AC3ED020A83ED032AE5
:102E70001D7413781BB953780BB9927812B105FA07
:102E800001F214434CF8210008EB810080ED000AA8
:102E900009EB8100491CC0ED000A0829C4D305488C
:102EA0004461BDE8F0870000BC56002000000034FB
:102EB0000000000044010020164CB4B00025A068BA
:102EC00018B1691E00F0D8F81EE0012000F098F853
:102ED0001AE069462BA8FFF781FF6946EFF31086D9
:102EE00072B6AC220C48FDF7FBFA01202070E068B6
:102EF000401CE060E068206106B962B66D1C042DDC
:102F000002D300F0A5F900252BA8FDF707FD002846
:102F1000D4D1DEE7440100201056002008B5FEF7AA
:102F200003F9FFF71FFAFFF747F93048002401685B
:102F300041F4001101600068224600F40010009086
:102F400005210D20FEF77AF90D20FEF769F9002220
:102F500005210E20FEF772F90E20FEF761F900221E
:102F600005210F20FEF76AF90F20FEF759F9FFF748
:102F7000ABF920481E490C2501604FF49641C0E989
:102F80000114C460C0E904458461C461FFF70AF814
:102F900008B172B6FEE71748174944304FF4E136DE
:102FA0000160C0E90164C460C0E904458461C46192
:102FB000FEF7F8FF08B172B6FEE70E480F498830F9
:102FC0000160C0E90164C460C0E904458461C46172
:102FD000FEF7E8FF08B172B6FEE7FFF799F9FFF7D1
:102FE00087FE00F01BF800F02BF8FEE730380240B7
:102FF000004C0040CC010020005000400048004040
:1030000010B5EFF3058111B16FF0050403E0002462
:1030100008B100F0E9FE204610BD0000EFF3058086
:1030200010B16FF0050070470448016811B14FF00E
:10303000FF307047012101600020704760000020D0
:1030400010B5EFF3058010B16FF0050010BD084812
:103050000168012902D04FF0FF3010BD054A002160
:1030600082F8141D0221016000F06EFF002010BDE7
:10307000600000200BE000E0F8B50D460024211FA1
:103080004E1C002804D000BFEFF30582A2B10DB1A1
:103090000C461BE000216A46009101F033FB012839
:1030A00013D1009890B10A494FF080500860BFF3E7
:1030B0004F8FBFF36F8F09E0294601F071FB0128A4
:1030C00004D015B16FF0010400E034462046F8BD8D
:1030D00004ED00E0F8B5144603460E464FF0000537
:1030E000EFF3058098BB93B39E423DD84CB1A068E6
:1030F0000028E06803D0502836D3012002E008B150
:1031000032E00020012B05D010B31846A26801F070
:1031100046F820E040B10320009000221146012033
:10312000A36801F07DF804E003220021012001F0F2
:1031300056F8050018D086B100231A46194601F04A
:10314000E7F8012809D0284600F000FE00250BE032
:10315000184601F007F8050006D00CB1216800E020
:103160000021284600F0DEFD2846F8BD38B50024D1
:10317000E51E00280BD000BFEFF30581A9B10021A7
:103180000091694601F0D3F9012815D102E06FF0F2
:10319000030412E0009880B109494FF080500860A4
:1031A000BFF34F8FBFF36F8F07E000231A46194616
:1031B00001F0AEF8012800D02C46204638BD0000B2
:1031C00004ED00E02DE9FF414FEA01034FF0000557
:1031D000EFF30581039549BB40B3802718210024F4
:1031E0004AB3166806B1344696691EB13146761E5A
:1031F000382E02D21679F60703D0002004B0BDE8BD
:10320000F081566906B1B708D2F808C0BCF1000FCA
:103210000DD0D5685C2D18D312693AB136B18DE85E
:1032200006103A46214601F0DEFB03900DE0D66819
:103230005EB912694AB903AACDE90012BAB22146B1
:1032400001F0A4FB012800D003950398D6E7000005
:10325000EFF3058010B16FF005007047044A4FF09E
:10326000805100201160BFF34F8FBFF36F8F704705
:1032700004ED00E02DE9F041134C0F460546E668E9
:103280002068001D00F050FC681C07D137B1216890
:10329000BDE8F0410D48091D00F096BC206835449A
:1032A000B5424560216805D2A06BBDE8F041091D1B
:1032B00000F072BC606B091D00F06EFCA06A8542D4
:1032C00000D2A562BDE8F08110000020FC0D0020B6
:1032D0002DE9F041054600F083FC2D4CA068401C10
:1032E000A06020682B4F10B1606930B32BE02560DF
:1032F000A068012827D1002606EB860007EB800096
:1033000000F03CFC761C382EF6D3234800F036FC47
:103310002148143000F032FC1F48283000F02EFC09
:103320001D483C3000F02AFC1B48503000F026FCC1
:10333000194860631430A06305E02068E96AC06A38
:10334000884200D82560606A401C60626864E86A50
:103350002169884200D9206100EB800007EB8000E2
:10336000291D00F031FC00F05BFC606900280CD0E6
:103370002068E96AC06A884207D208494FF0805045
:103380000860BFF34F8FBFF36F8FBDE8F08100007F
:10339000100000204C090020AC0D002004ED00E0DE
:1033A00038B500F01DFC104C2068C8B90F4800F07B
:1033B000E5FB0E48143000F0E1FB0C48E0601430EF
:1033C00020610A4B0020F03B009003F150021021D5
:1033D0000A2000F025FF206010B105A100F0A2FC3A
:1033E000BDE8384000F01CBC4C000020000F00205D
:1033F000546D72510000000030B4026C0B46002A7C
:103400000BD0C1681144C1608468A14201D3016836
:10341000C16030BC1846FDF71EB830BC70472DE9BE
:10342000F041856B174604460026026C82B1C7B195
:10343000E068FDF710F8E168206C091AE160226885
:10344000914202D2A168081AE060022F16D017E05C
:103450002068A8B9A06801F069FB06460020A060BA
:103460000EE06068FCF7F7FF216C6068084460605C
:10347000A168884204D32068606001E005B16D1E38
:103480006D1CA5633046BDE8F08110B5044690F888
:10349000590058B101280CD002280FD0502080F3D9
:1034A0001188BFF34F8FBFF36F8FFEE7206B00F0E3
:1034B000CBFB2046BDE8104000F0C6BB10BD0000AD
:1034C00010484FF47051420706D0C01D0D4920F03E
:1034D0000700411AC1F570510B4A00230144C2E9AB
:1034E00000030839183A21F0070111604B600B60A6
:1034F0000B1AC0E9001393604FF000405360506115
:1035000070470000E01500207C000020144E154C90
:10351000A6F29C474FF08058DFF84C9012E000BFB5
:1035200000F05EFBF068C568281D00F0FDFAA06899
:10353000401EA0606068401E606000F071FB28467D
:10354000FFF7A3FF60680028EAD138680128F9D99D
:10355000C9F80080BFF34F8FBFF36F8FF2E7000011
:10356000E80D00201000002004ED00E070B51D46BD
:10357000049C51B1C4F80020C4E90F010121204688
:1035800000F082FE84F84C5070BD2460F4E7000027
:103590002DE9F05F8846DDE90B94154683469100DE
:1035A0009A460A9EA522206BFCF7CCFF6FF0030120
:1035B000206B01EB8501084420F00707780707D04E
:1035C000502080F31188BFF34F8FBFF36F8FFEE75A
:1035D0000025B8F1000F0FD05FF00000221818F896
:1035E000001082F8341018F8001011B1401C102897
:1035F000F4D384F8435001E084F83450382E00D3DB
:103600003726E662C4E91365201D00F0C2FA04F112
:10361000180000F0BEFA2461C6F138006462A061AF
:10362000656584F8585052465946384600F066FAA7
:103630002060B9F1000F01D0C9F80040BDE8F09F4B
:1036400030B5114900E011460A688242FBD34B684D
:103650005C18844203D140681844486008464368B7
:103660001C18944209D1084C183C2468A24209D085
:1036700052681A4442600A6812680260814200D0AF
:10368000086030BD0460F9E77C00002070B50024BC
:1036900041600B4D0061914206D8D11A8269914276
:1036A00006D2011D286907E09A4203D2994201D34C
:1036B000012403E0011DE86800F06EFA204670BDA9
:1036C0004C00002010B5044600F08AFAA06B28B127
:1036D0005FF0000400F0A4FA204610BD0124F9E7D1
:1036E00030B589B03C4D6EE00498002806DADDE97B
:1036F0000601059A90470498002864DB069C6069DF
:1037000010B1201D00F010FA03A800F0D7F802460F
:1037100004980A2857D2DFE800F00505052D334A42
:1037200005052D3394F8280040F0010084F82800A6
:103730000599A069059B01442046FFF7A7FF68B3E0
:10374000216A2046884794F8280040073BD500208E
:1037500000900598A169002342181946204601F0FF
:103760002BFBD8B9502080F31188BFF34F8FBFF3E4
:103770006F8FFEE714F8280F20F00100207022E080
:1037800094F8280040F0010084F828000598A06112
:1037900028B1811813462046FFF778FF13E0502028
:1037A00080F31188BFF34F8FBFF36F8FFEE794F85C
:1037B0002800810703D4204600F046FA03E020F0F9
:1037C000010084F82800002204A9286800F0FEFE09
:1037D000002889D109B030BD4C0000202DE9FC4102
:1037E0000F46054600F0F4FB01A800F067F8044618
:1037F000019818B101F04EFABDE8FC81254EAFB139
:1038000030690068D0B30027291B3A46306800F0C1
:10381000C9FA01F03FFA0028EED11F494FF080505D
:103820000860BFF34F8FBFF36F8FE5E7A542EBD87A
:1038300001F030FAF0682746C068C468201D00F027
:1038400073F994F82800410719D5A0692B4641194E
:103850003A462046FFF71AFFA8B10020034601466A
:1038600000902A46204601F0A7FA60B9502080F364
:103870001188BFF34F8FBFF36F8FFEE707E020F093
:10388000010084F82800216A20468847B4E7012710
:10389000BAE700004C00002004ED00E00648416B50
:1038A000096829B1416BC968C96849688162704774
:1038B0004FF0FF31FAE700001000002070B5054618
:1038C00001F0CAF8064E0446B068844203D200F004
:1038D00009F8012000E0002028602046B46070BD97
:1038E0004C000020F8B5194D20E0C068C468066897
:1038F000201D00F019F9216A2046884794F8280015
:10390000400713D5A0693044B04206D924616060F5
:10391000211DE86800F040F908E000200346014658
:1039200000903246204601F047FA38B1E868016855
:103930000029DAD12969C5E90310F8BD502080F3C8
:103940001188BFF34F8FBFF36F8FFEE74C0000204D
:1039500008484068401C4FF0500080F3118804D0A4
:10396000BFF34F8FBFF36F8FFEE7BFF34F8FBFF3F0
:103970006F8FFEE784000020074CE068016841B1CA
:10398000C0680021D0F80000FFF728FFFFF7A8FE6D
:10399000F3E701210020F7E74C0000202DE9F0417A
:1039A000044600F01DF994F9455004F1240609E09D
:1039B000606A48B1304601F035F908B100F042FACA
:1039C0006D1E6DB2002DF3DC4FF0FF3684F84560BC
:1039D00000F026F900F004F994F9445004F11007BE
:1039E00009E0206948B1384601F01CF908B100F03F
:1039F00029FA6D1E6DB2002DF3DC84F84460BDE839
:103A0000F04100F00DB900002DE9F0410546002716
:103A100000F0DEFA324E306808B9FFF751FD7069E8
:103A200005424ED1C5B3083568070ED005F0070032
:103A3000C0F108000544680707D0502080F31188C2
:103A4000BFF34F8FBFF36F8FFEE72DB370688542D2
:103A500037D82348183001460C6801E020460C4650
:103A60006168A94202D221680029F7D131688C42ED
:103A700027D007682168016060680837411B10295A
:103A80000FD96019420708D0502080F31188BFF386
:103A90004F8FBFF36F8FFEE713E041606560FFF764
:103AA000CFFD61687068401A7060B268904200D2C1
:103AB000B060706901430020C4E90001F068401C57
:103AC000F06001F0E7F8780707D0502080F3118804
:103AD000BFF34F8FBFF36F8FFEE73846BDE8F0812D
:103AE000640000200449086818B10868026D521C7F
:103AF00002650868704700001000002010B5031F21
:103B00004FF080741C601B1F21F001011960191F08
:103B1000044B0B6014390A60091F6FF0020244382D
:103B20000A6010BD51390008D0E9013201699A607C
:103B3000D0E901235A604A68824201D182684A6012
:103B4000002202610868401E086008687047000093
:103B5000034B036003F15C00086080201060704735
:103B6000280F0020044B036003F15C0008604FF451
:103B700080701060704700008411002000F108017F
:103B80004FF0FF32C0E90112C16001610021016004
:103B9000704700210161704730B50B685A1C02D094
:103BA00000F1080202E0026904E022465468256838
:103BB0009D42FAD953684B6099608A6051600861F0
:103BC0000168491C016030BD42684A6093688B609F
:103BD00093685960916008610168491C01607047F1
:103BE000502080F31188BFF34F8FBFF36F8F0A49C6
:103BF0004868401C486001280CD10848006810F053
:103C0000FF0F07D0502080F31188BFF34F8FBFF311
:103C10006F8FFEE7704700008400002004ED00E095
:103C20000849486828B1401E486001D180F31188D6
:103C30007047502080F31188BFF34F8FBFF36F8F11
:103C4000FEE700008400002070B500282AD0164D41
:103C5000A0F1080460686969084207D1502080F328
:103C60001188BFF34F8FBFF36F8FFEE722683AB121
:103C7000502080F31188BFF34F8FBFF36F8FFEE7A3
:103C80008843606000F0A4F960686968084468606F
:103C90002046FFF7D5FC2869401C2861BDE870402C
:103CA00000F0F8BF70BD0000640000204FF0E0207D
:103CB00000210161816105494FF47A720968B1FB05
:103CC000F2F1491E41610721016170470C0000209B
:103CD00010B5FCF725FB114910280ED300F1E020A8
:103CE00090F8F0030A78904207D2502080F31188B0
:103CF000BFF34F8FBFF36F8FFEE7094800688968F5
:103D000000F4E060884207D9502080F31188BFF3A7
:103D10004F8FBFF36F8FFEE710BD000084000020BF
:103D20000CED00E010B5084B002200BF53F8324004
:103D30001CB1521C082AF9D310BD43F8321003EB12
:103D4000C201486010BD00000C09002010B504003D
:103D50000AD000F013F894F8460000280CD1204651
:103D6000BDE81040FFF770BF502080F31188BFF30B
:103D70004F8FBFF36F8FFEE710BD0000084A002190
:103D800002EBC1035B68834206D1002042F8310098
:103D900002EBC10148607047491C0829F0D3704705
:103DA0000C09002070B515460E460446FFF718FFB3
:103DB00094F944100020491C01D184F8440094F97E
:103DC0004510491C01D184F84500FFF729FFA06B7D
:103DD00028B92A46314604F1240000F051F8204663
:103DE000BDE87040FFF7DABD10B5020014D00F48EF
:103DF000006B38B1502080F31188BFF34F8FBFF3B1
:103E00006F8FFEE700F0E4F800211046FFF732FA6A
:103E100000F040FF002807D105494FF080500860AE
:103E2000BFF34F8FBFF36F8F10BD00001000002055
:103E300004ED00E002490A6A0260C9684160704707
:103E40001000002001490120C861704710000020C7
:103E500010B50C4650B1094909681831FFF79CFEAE
:103E60002046BDE810400121FFF704BA502080F33E
:103E70001188BFF34F8FBFF36F8FFEE71000002054
:103E800070B514460D4668B10A4909681831FFF744
:103E90009BFE0CB14FF0FF3521462846BDE870402F
:103EA000FFF7E8B9502080F31188BFF34F8FBFF3BD
:103EB0006F8FFEE71000002070B504003ED0226D29
:103EC000A2B1E06C884200D30146E06A884235D056
:103ED000012A33D11A4D2A6894420FD1502080F321
:103EE0001188BFF34F8FBFF36F8FFEE7502080F331
:103EF0001188BFF34F8FBFF36F8FFEE7E162A269B6
:103F0000002A02DBC1F13801A1610E4E00EB8000F6
:103F1000616906EB8000814210D1201DFFF704FE8D
:103F2000E06A2969884200D9286100EB800006EB2D
:103F30008000211DBDE87040FFF746BE70BD000047
:103F4000100000204C09002030B587B000240394F5
:103F500005AA04A903A80494FFF7FAFDDDE903010B
:103F60000094CDE90110002315A11748059A00F02F
:103F70003AFD164D0028E8621FD000F0EDFE012842
:103F800009D0401C19D1502080F31188BFF34F8F06
:103F9000BFF36F8FFEE7502080F31188BFF34F8F80
:103FA000BFF36F8F4FF0FF30A86201206861EC60B3
:103FB00007B0BDE8304000F045B807B030BD0000A4
:103FC00049444C45000000000D3500081000002059
:103FD0000248016B491C016370470000100000207B
:103FE000164810B5016B11B10121C16110BD00214E
:103FF000C1610169124A01E0B9B1491E01EB8103B7
:1040000052F82330002BF7D001EB810302EB83023F
:1040100002F1080453685B685360A34201D15B68F6
:104020005360DA680260016110BD502080F311888E
:10403000BFF34F8FBFF36F8FFEE70000100000202B
:104040004C0900201CB537480168374A914207D116
:10405000502080F31188BFF34F8FBFF36F8FFEE7BF
:1040600000683149491E884207D1502080F31188E9
:10407000BFF34F8FBFF36F8FFEE72C490878019095
:10408000FF20087008788DF800009DF800009DF86A
:10409000002000F0F000904207D0502080F31188FB
:1040A000BFF34F8FBFF36F8FFEE79DF80000204CEA
:1040B00000F0500020700720A06005E09DF800206F
:1040C00052008DF80020401E9DF800201206F5D405
:1040D000A060032807D0502080F31188BFF34F8FD2
:1040E000BFF36F8FFEE74FF44070A0600198087037
:1040F0000C482030016841F470010160016841F012
:1041000070410160FFF7D2FD00206060FCF7D0F83D
:104110000848016841F040410160FCF7B5F8002013
:104120001CBD000000ED00E071C20F4100E400E0A2
:104130008400002034EF00E010B5502080F3118897
:10414000BFF34F8FBFF36F8F00F08CFC18B10449A1
:104150004FF080500860002080F3118810BD0000EF
:1041600004ED00E010B50C4648B184420FD9502050
:1041700080F31188BFF34F8FBFF36F8FFEE750209E
:1041800080F31188BFF34F8FBFF36F8FFEE70222DA
:10419000002100F024F8002800D0846310BD38B559
:1041A0000C4648B184420FD9502080F31188BFF3E8
:1041B0004F8FBFF36F8FFEE7502080F31188BFF35E
:1041C0004F8FBFF36F8FFEE702211346002200914D
:1041D000114600F025F8002800D0846338BDF8B5FA
:1041E00017460E46050013D005FB06F05030FFF7CA
:1041F0000BFC04000AD0002084F8460004F15002B1
:104200003B46314628460094FFF7B0F92046F8BDFA
:10421000502080F31188BFF34F8FBFF36F8FFEE7FD
:1042200038B5049D18B153B1CAB181B120E0502016
:1042300080F31188BFF34F8FBFF36F8FFEE75020DD
:1042400080F31188BFF34F8FBFF36F8FFEE75020CD
:1042500080F31188BFF34F8FBFF36F8FFEE739B143
:10426000502080F31188BFF34F8FBFF36F8FFEE7AD
:1042700050241C46012384F846302B460094FFF757
:1042800075F9204638BD000070B50D46040025D0F4
:10429000FFF7A6FCD4E90F20216802FB0011A16002
:1042A0000021A163216861600A46D4E90F01401E24
:1042B00000FB0121E16021464FF0FF3001F8440F7F
:1042C000487004F110008DB1FFF758FC04F1240090
:1042D000FFF754FCFFF7A4FC012070BD502080F3D1
:1042E0001188BFF34F8FBFF36F8FFEE7216900295D
:1042F000F0D000F097FC0028ECD004494FF080503B
:104300000860BFF34F8FBFF36F8FE3E704ED00E06A
:104310002DE9FF4782B01D468A464FF00008040091
:1043200003D0BAF1000F08D011E0502080F31188BB
:10433000BFF34F8FBFF36F8FFEE7206C38B1502073
:1043400080F31188BFF34F8FBFF36F8FFEE7022D0D
:104350000AD1E06B012807D0502080F31188BFF309
:104360004F8FBFF36F8FFEE700F068FB3F4F4FF0BA
:1043700000094FF0805648B9049838B1502080F3B6
:104380001188BFF34F8FBFF36F8FFEE7FFF728FC55
:10439000A06BE16B884207D3022D05D00498D0B101
:1043A000B8F1000F1AD01EE02A4651462046FFF70A
:1043B00036F8616A19B104F1240000F033FC20B131
:1043C0003E60BFF34F8FBFF36F8FFFF729FC0120D3
:1043D00006B0BDE8F087FFF723FC22E06846FFF750
:1043E00029FD4FF00108FFF71BFCFFF7F1FDFFF778
:1043F000F7FB94F94400401C01D184F8449094F9EF
:104400004500401C01D184F84590FFF709FC04A940
:10441000684600F081FA30B12046FFF7BFFA00F09D
:1044200039FC0020D4E7FFF7DBFBA06BE16B88428F
:1044300013D1FFF7F5FB04F110000499FFF708FD15
:104440002046FFF7ABFA00F025FC00289ED13E6025
:10445000BFF34F8FBFF36F8F98E7FFF7E1FB204665
:10446000FFF79CFA00F016FC90E7000004ED00E076
:104470002DE9F0471F4690468946040003D0B9F164
:10448000000F08D011E0502080F31188BFF34F8F48
:10449000BFF36F8FFEE7206C38B1502080F3118896
:1044A000BFF34F8FBFF36F8FFEE7022F0AD1E06B90
:1044B000012807D0502080F31188BFF34F8FBFF33E
:1044C0006F8FFEE7FFF704FC5020EFF3118680F3B7
:1044D0001188BFF34F8FBFF36F8FA06BE16B8842E2
:1044E00006D3022F04D0002086F31188BDE8F087A0
:1044F00094F94550A06B3A4649462046FEF78FFF97
:10450000681C04D06D1C84F845500120ECE7606AFB
:104510000028FAD004F1240000F084FB0028F4D035
:10452000B8F1000FF1D00121C8F80010EDE770B527
:104530000E46040009D0206C78B1502080F3118819
:10454000BFF34F8FBFF36F8FFEE7502080F31188CA
:10455000BFF34F8FBFF36F8FFEE7206848B9A068A5
:1045600038B1502080F31188BFF34F8FBFF36F8FA6
:10457000FEE7FFF7ADFB5020EFF3118580F31188C4
:10458000BFF34F8FBFF36F8FA16BE06B884218D9D9
:1045900094F94500491CA163411C04D0401C84F8D7
:1045A000450001200EE0606A0028FAD004F12400E2
:1045B00000F038FB0028F4D0002EF2D0012030604B
:1045C000EFE7002085F3118870BD00002DE9F74763
:1045D000002683B08A46040003D0BAF1000F08D049
:1045E00011E0502080F31188BFF34F8FBFF36F8F1E
:1045F000FEE7206C38B1502080F31188BFF34F8F55
:10460000BFF36F8FFEE700F019FADFF8F4804FF088
:1046100000094FF0805748B9059838B1502080F311
:104620001188BFF34F8FBFF36F8FFEE7FFF7D8FA04
:10463000A56BC5B151462046FEF7DEFE6D1EA56393
:10464000206950B104F1100000F0ECFA28B1C8F86C
:104650000070BFF34F8FBFF36F8FFFF7E1FA0120B8
:1046600006B0BDE8F087059808B11EB106E0FFF777
:10467000D7FA27E06846FFF7DDFB0126FFF7D0FAFF
:10468000FFF7A6FCFFF7ACFA94F94400401C01D1F7
:1046900084F8449094F94500401C01D184F8459079
:1046A000FFF7BEFA05A9684600F036F90028204653
:1046B0000AD0FFF773F900F0EDFA2046FFF702F891
:1046C0000028B3D00020CBE7FEF7FCFF90B104F147
:1046D00024000599FFF7BCFB2046FFF75FF900F0C7
:1046E000D9FA0028A2D1C8F80070BFF34F8FBFF3EA
:1046F0006F8F9BE72046FFF751F900F0CBFA95E763
:1047000004ED00E02DE9F04790468946040003D00F
:10471000B9F1000F08D011E0502080F31188BFF3E9
:104720004F8FBFF36F8FFEE7206C38B1502080F3BE
:104730001188BFF34F8FBFF36F8FFEE7FFF7C8FA03
:104740005020EFF3118680F31188BFF34F8FBFF332
:104750006F8FA76BF7B194F9445049462046FEF796
:104760004BFE7F1EA763681C04D06D1C84F8445068
:10477000012010E020690028FAD004F1100000F0B8
:1047800051FA0028F4D0B8F1000FF1D00121C8F897
:104790000010EDE7002086F31188BDE8F0870000E7
:1047A0002DE9F343002683B00400354609D0206C80
:1047B00078B1502080F31188BFF34F8FBFF36F8F14
:1047C000FEE7502080F31188BFF34F8FBFF36F8F48
:1047D000FEE700F033F9DFF83C814FF000094FF0BD
:1047E000805748B9049838B1502080F31188BFF33E
:1047F0004F8FBFF36F8FFEE7FFF7F2F9A06BC8B1E1
:10480000401EA063206810B9FFF76CF9A060206912
:1048100050B104F1100000F005FA28B1C8F800709A
:10482000BFF34F8FBFF36F8FFFF7FAF9012005B089
:10483000BDE8F083049808B166B10FE03DB15020A7
:1048400080F31188BFF34F8FBFF36F8FFEE7FFF741
:10485000E7F95DE06846FFF7EDFA0126FFF7E0F9BA
:10486000FFF7B6FBFFF7BCF994F94400401C01D1F7
:1048700084F8449094F94500401C01D184F8459097
:10488000FFF7CEF904A9684600F046F80028204654
:1048900012D0FFF783F800F0FDF92046FEF712FF73
:1048A0000028A9D09DB3FFF79BF9606A50B3206B35
:1048B0000068C0F1380126E0FEF704FFE0B120688F
:1048C00038B9FFF78DF9A06800F070F90546FFF7D9
:1048D000A7F904F124000499FFF7BAFA2046FFF77C
:1048E0005DF800F0D7F9002886D1C8F80070BFF352
:1048F0004F8FBFF36F8F7FE72046FFF74FF800F031
:10490000C9F979E70021A068FFF7D6FA9FE7FFE72A
:1049100000208CE704ED00E02DE9F0410C46050095
:1049200011D0C4B1FFF75CF9174BDA686E682068E4
:10493000911B471C17D02F681B6A9F4219D09642C3
:1049400017D8012410E0502080F31188BFF34F8F57
:10495000BFF36F8FFEE7502080F31188BFF34F8FB6
:10496000BFF36F8FFEE70024FFF75AF92046BDE83A
:10497000F081884205D9401A20602846FFF75AFA8C
:10498000F1E700202060DCE7100000202DE9FF5F48
:104990008346DDE90E87994616468A469000FFF762
:1049A00033F805001CD05C20FFF72EF8040014D06B
:1049B0000020256384F85900CDE90240CDE9008745
:1049C0004B46324651465846FEF7E2FD2046FEF77A
:1049D0007FFC012004B0BDE8F09F2846FFF734F9C2
:1049E0004FF0FF30F6E7F0B585B0DDE90B640A9DC6
:1049F000A6B1DCB15C2700972663022684F85960D3
:104A0000002604AFCDE90246CDE90057FEF7C0FD10
:104A10002046FEF75DFC049805B0F0BD502080F301
:104A20001188BFF34F8FBFF36F8FFEE7502080F3E5
:104A30001188BFF34F8FBFF36F8FFEE705484169C1
:104A400019B1006B18B10020704701207047022097
:104A500070470000100000200148C0687047000047
:104A6000100000202DE9F0412E4C0027206B28B1CA
:104A7000A069401CA0613846BDE8F081E668761C5C
:104A8000E66013D1606B006838B1502080F3118864
:104A9000BFF34F8FBFF36F8FFEE7606BA16B616356
:104AA000A063206A401C2062FEF7F8FEA06ADFF8CF
:104AB0007880864209D3606B0068A0B1606BC068E3
:104AC000C5686868864211D2A0622068C06A00EB9F
:104AD000800158F82100012800D90127E069002849
:104AE000C9D00127C7E74FF0FF30EDE7281DFFF7DA
:104AF0001BF8A86A18B105F11800FFF715F8E86A65
:104B00002169884200D9206100EB800108EB810017
:104B1000291DFFF759F8E86A2168C96A8842CAD393
:104B20000127C8E7100000204C09002070B50400E0
:104B30004FF0000133D01B4D2868844207D050202D
:104B400080F31188BFF34F8FBFF36F8FFEE7206DA7
:104B500038B1401E2065E36CE26A9A421FD040B132
:104B60001DE0502080F31188BFF34F8FBFF36F8F8C
:104B7000FEE7201DFEF7D8FFE06CE062C0F13800D0
:104B8000A061E06A2969884200D92861064900EBE2
:104B9000800001EB8000211DFFF716F80121084677
:104BA00070BD0000100000204C09002070B504000A
:104BB0004FF000002BD0194DE16A2A68D26A914269
:104BC00026D2A069002804DB2868C06AC0F138003A
:104BD000A061134E01EB8101606906EB81018842FF
:104BE00011D1201DFEF7A0FF2868C06AE062296984
:104BF000884200D9286100EB800006EB8000211D6F
:104C0000FEF7E2FF02E02868C06AE062012070BDA2
:104C1000E16C2A68D26A9142F8D370BD100000207E
:104C20004C09002070B5C068C46854B104F1180084
:104C30000646FEF779FF144D286B50B131461348F4
:104C400015E0502080F31188BFF34F8FBFF36F8FB3
:104C5000FEE7201DFEF768FFE06A2969884200D957
:104C600028610B4900EB800001EB8000211DFEF75D
:104C7000ABFFE06A2968C96A884202D90120E8616D
:104C800070BD002070BD000010000020D40D002079
:104C90004C0900202DE9F0472C4D00242746286BB5
:104CA00038B1FEF79DFF286B401E2863286B40B18A
:104CB00046E0502080F31188BFF34F8FBFF36F8F12
:104CC000FEE7A968224E0120D1B3A6F5916980467E
:104CD0003068E0B1F068C46804F11800FEF724FF02
:104CE000201DFEF721FFE06A2969884200D928616A
:104CF00000EB800109EB8100211DFEF765FFE06AF2
:104D00002968C96A8842E3D3C5F81C80E0E70CB182
:104D1000FEF7C4FDAC694CB14FEA0806FFF7A2FEEE
:104D200000B1EE61641EF9D10020A861E86938B1D4
:104D30000849012738070860BFF34F8FBFF36F8F13
:104D4000FEF76EFF3846BDE8F08700001000002037
:104D5000D40D002004ED00E010B586B0FEF720FB76
:104D6000114C2068B8B100200390049005AA04A952
:104D700003A8FEF7F7FEDDE9032102208DE8070016
:104D800000230AA10B48059AFFF72DFE606010B1C1
:104D900006B0012010BD502080F31188BFF34F8F63
:104DA000BFF36F8FFEE700004C000020546D7220AF
:104DB00053766300793900082DE9FF411E461346FA
:104DC00002000A9D4FF0000016D0144C2768002FF7
:104DD0000FD0CDE900130292062917DAFFF72EFE55
:104DE00002284FF000030FD0002269462068FFF729
:104DF0008FFA04B0BDE8F081502080F31188BFF332
:104E00004F8FBFF36F8FFEE72A46EEE7002332464F
:104E100069463846FFF72CFBEBE700004C0000200A
:104E20004FF04070E1EE100A7047000610160006C1
:104E30001016000000000000000001020304060735
:104E40000809000000000102030400000000024005
:104E5000100000000000024020000000000002409E
:104E600040000000000002408000000000080240F6
:104E70001000000000080240200000000004024072
:104E8000010000000004024002000000D44E0008AF
:104E90000000000000000000000000000000000012
:104EA00000080000180000000000000000000000E2
:104EB000E04E0008000000000000000000000000BC
:104EC00000000000000600001800000000000000C4
:104ED000000000006164635F756E7061636B0000C9
:104EE0006164635F7461736B000000000C4F000825
:104EF0000000002074010000C40100081C4F0008DD
:104F000074010020B45D000020020008320182100C
:0C4F1000037924F41AAA0101D102160151
:040000050800018965
:00000001FF
